S01E00004F62737461636C652061766F6964616E6365206361722E73726563B9
S11300000C942A000C9487000C943C000C943C0043
S11300100C943C000C943C000C943C000C943C006C
S11300200C943C000C943C000C943C000C943C005C
S11300300C943C000C943C000C943C000C943C004C
S11300400C943C000C943C000C943C000C943C003C
S11300500C943C0011241FBECFE5D8E0DEBFCDBF19
S113006020E0A0E6B0E001C01D92A736B207E1F798
S11300700E9401020C94F6040C9400001092660095
S1130080109265001092640040E062E083E00E94F8
S113009006020E9408030E9414030E94AC030E94FB
S11300A0FE0062E370E080E090E00E943B0380E0A9
S11300B00E943F0181E00E943F0182E00E943F01D3
S11300C083E00E943F0180E00E948D0181E00E9454
S11300D08D0182E00E948D0183E00E948D010895CC
S11300E041E062E081E00E94850260E470E080E02B
S11300F090E00E94770340E062E081E00E94850284
S113010060E470E080E090E00E94770308951F921D
S11301100F920FB60F9211242F933F934F935F9337
S11301206F937F938F939F93AF93BF93EF93FF93BB
S113013080E00E94C70181E00E94C70182E00E9422
S1130140C70183E00E94C701FF91EF91BF91AF9176
S11301509F918F917F916F915F914F913F912F91DB
S11301600F900FBE0F901F901895CF93C82F0E9429
S1130170140340E061E080E00E94850240E062E018
S113018080E00E94850240E063E080E00E948502F6
S11301908BB39C2F907F8F70892B8BBB41E063E0E6
S11301A080E00E94850261E070E080E090E00E94BF
S11301B03B0340E063E080E00E94850220E1C29FAF
S11301C0C00111249BB39F70892B8BBB41E063E07A
S11301D080E00E94850261E070E080E090E00E948F
S11301E03B0340E063E080E00E94850265E070E04C
S11301F080E090E00E943B03CF9108950E94140395
S113020041E061E080E00E94060241E062E080E0BB
S11302100E94060241E063E080E00E94060241E0A1
S113022064E080E00E94060241E065E080E00E9414
S1130230060241E066E080E00E94060241E067E0D9
S113024080E00E94060264E170E080E090E00E9499
S11302503B0383E30E94B50082E30E94B50088E279
S11302600E94B5008CE00E94B50086E00E94B500B3
S113027082E00E94B50081E00E94B50008958130BB
S1130280B9F028F0823029F18330A1F144C041E073
S113029060E081E00E94060241E061E081E00E94AA
S11302A0060241E062E081E00E94060280E00895D7
S11302B041E063E081E00E94060241E064E081E005
S11302C00E94060241E065E081E00E94060280E0AF
S11302D0089541E060E082E00E94060241E061E0AE
S11302E082E00E94060241E062E082E00E9406028F
S11302F080E0089541E063E082E00E94060241E06C
S113030064E082E00E94060241E065E082E00E942F
S1130310060280E0089581E00895813091F028F08C
S11303208230D9F0833029F130C041E060E081E0CF
S11303300E94850240E061E081E00E94850280E045
S1130340089541E063E081E00E94850240E064E0BA
S113035081E00E94850280E0089541E060E082E04F
S11303600E94850240E061E082E00E94850280E014
S1130370089541E063E082E00E94850240E064E089
S113038082E00E94850280E0089581E00895813032
S113039091F028F08230D9F0833029F130C040E068
S11303A060E081E00E94850240E061E081E00E941B
S11303B0850280E0089541E063E081E00E948502C7
S11303C041E064E081E00E94850280E0089541E01C
S11303D060E082E00E94850241E061E082E00E94E8
S11303E0850280E0089541E063E082E00E94850296
S11303F041E064E082E00E94850280E0089581E0AB
S113040008950E943E000E947000FDCF442319F01D
S11304104130E9F174C0813099F028F08230E9F07C
S1130420833041F16EC02AB381E090E002C0880FAE
S1130430991F6A95E2F7809582238ABB80E008952C
S113044027B381E090E002C0880F991F6A95E2F714
S11304508095822387BB80E0089524B381E090E0F7
S113046002C0880F991F6A95E2F78095822384BBA6
S113047080E0089521B381E090E002C0880F991FC5
S11304806A95E2F78095822381BB80E008958130EC
S113049091F028F08230D9F0833029F134C02AB3A6
S11304A081E090E002C0880F991F6A95E2F7822BE1
S11304B08ABB80E0089527B381E090E002C0880FF2
S11304C0991F6A95E2F7822B87BB80E0089524B3D5
S11304D081E090E002C0880F991F6A95E2F7822BB1
S11304E084BB80E0089521B381E090E002C0880FCE
S11304F0991F6A95E2F7822B81BB80E0089581E021
S1130500089581E0089581E00895442319F041306D
S1130510E9F174C0813099F028F08230E9F0833039
S113052041F16EC02BB381E090E002C0880F991FA7
S11305306A95E2F7809582238BBB80E0089528B307
S113054081E090E002C0880F991F6A95E2F78095D8
S1130550822388BB80E0089525B381E090E002C047
S1130560880F991F6A95E2F78095822385BB80E006
S1130570089522B381E090E002C0880F991F6A9524
S1130580E2F78095822382BB80E00895813091F068
S113059028F08230D9F0833029F134C02BB381E0C4
S11305A090E002C0880F991F6A95E2F7822B8BBBFB
S11305B080E0089528B381E090E002C0880F991F7D
S11305C06A95E2F7822B88BB80E0089525B381E029
S11305D090E002C0880F991F6A95E2F7822B85BBD1
S11305E080E0089522B381E090E002C0880F991F53
S11305F06A95E2F7822B82BB80E0089581E008953A
S113060081E0089581E008958FB780688FBF0895D1
S11306100E94040385B7816085BF85B78D7F85BF40
S11306208BB780648BBF089583B78F7783BF83B7FD
S11306308F7B83BF83B7877F83BF83B78F7E83BF5F
S113064083B78F7D83BF80E0089583B7816083BFC4
S113065083B78D7F83BF83B7846083BF80E00895B1
S113066083B78E7F83BF83B78D7F83BF83B78B7F31
S113067083BF80E008950E9468042FE632E143E8D6
S113068051E40E94C7030E94390460936000709390
S11306906100809362009093630012BE0E94250360
S11306A040E050E0BA010AC008B600FEFDCF88B7AA
S11306B0816088BF4F5F5F4F6F4F7F4F80916000B5
S11306C090916100A0916200B091630048175907AE
S11306D06A077B0748F31092600010926100109241
S11306E06200109263000E94300380E00895DC01F0
S11306F0CB01072E7FE0B695A795979587957A95B8
S1130700D1F7702D8093600090936100A0936200F4
S1130710B093630012BE0E94250340E050E0BA018A
S11307200AC008B600FEFDCF88B7816088BF4F5F5E
S11307305F4F6F4F7F4F8091600090916100A09157
S11307406200B0916300481759076A077B0748F3B2
S11307500E94300380E008958FB58E7F8FBD8FB5E2
S11307608D7F8FBD8EB5877F8EBD8EB58F7E8EBDFE
S11307708FB584608FBD8FB588608FBD8FB780685B
S11307808FBF89B79AB784609ABF89BF08950E94C2
S1130790DB030C94BC040E94B50458F00E94AE0420
S11307A040F029F45F3F29F00C94A50451110C94F6
S11307B0F0040C94AB040E94CD0468F39923B1F3C4
S11307C0552391F3951B550BBB27AA276217730773
S11307D0840738F09F5F5F4F220F331F441FAA1F07
S11307E0A9F335D00E2E3AF0E0E832D091505040C3
S11307F0E695001CCAF72BD0FE2F29D0660F771F71
S1130800881FBB1F261737074807AB07B0E809F056
S1130810BB0B802DBF01FF2793585F4F3AF09E3FDB
S1130820510578F00C94A5040C94F0045F3FE4F3B4
S1130830983ED4F3869577956795B795F7959F5F1E
S1130840C9F7880F911D9695879597F90895E1E06A
S1130850660F771F881FBB1F621773078407BA07C9
S113086020F0621B730B840BBA0BEE1F88F7E09524
S113087008950E94D50488F09F5798F0B92F9927BE
S1130880B751B0F0E1F0660F771F881F991F1AF077
S1130890BA95C9F714C0B13091F00E94EF04B1E0E9
S11308A008950C94EF04672F782F8827B85F39F0E8
S11308B0B93FCCF3869577956795B395D9F73EF410
S11308C090958095709561957F4F8F4F9F4F0895B8
S11308D0E89409C097FB3EF49095809570956195D6
S11308E07F4F8F4F9F4F9923A9F0F92F96E9BB278C
S11308F09395F695879577956795B795F111F8CF08
S1130900FAF4BB0F11F460FF1BC06F5F7F4F8F4F72
S11309109F4F16C0882311F096E911C0772321F068
S11309209EE8872F762F05C0662371F096E8862F00
S113093070E060E02AF09A95660F771F881FDAF757
S1130940880F9695879597F9089597F99F6780E89A
S113095070E060E008959FEF80EC089500240A940D
S11309601616170618060906089500240A94121686
S11309701306140605060895092E0394000C11F4B9
S1130980882352F0BB0F40F4BF2B11F460FF04C066
S11309906F5F7F4F8F4F9F4F089557FD9058440FBF
S11309A0551F59F05F3F71F04795880F97FB991FCA
S11309B061F09F3F79F08795089512161306140687
S11309C0551FF2CF4695F1DF08C016161706180614
S11309D0991FF1CF86957105610508940895E894EF
S11309E0BB2766277727CB0197F90895F894FFCFA3
S9030000FC
