:100000000C942A000C949A000C943C000C943C0034
:100010000C943C000C943C000C943C000C943C0070
:100020000C943C000C94D6000C943C000C943C00C6
:100030000C943C000C943C000C943C000C943C0050
:100040000C943C000C943C000C943C000C943C0040
:100050000C943C0011241FBECFE5D8E0DEBFCDBF1D
:1000600020E0A0E6B0E001C01D92AB36B207E1F798
:100070000E9414030C9479060C94000010926A00FC
:10008000109269000E94E0000E94FD020E94270475
:100090000E944A0162E370E080E090E00E944E041A
:1000A00080E00E94750281E00E94750282E00E9459
:1000B000750283E00E94750280E00E94C30281E025
:1000C0000E94C30282E00E94C30283E00E94C30236
:1000D00061E080E00E94D20167E170E080E090E0A2
:1000E0000E94EA0164EF71E080E090E00E944E041B
:1000F00008950E94030361E080E00E94D2012091F4
:10010000690030916A00AFE9B6E40E944806880FA2
:10011000892F881F990B9195BC0180E090E0609336
:1001200061007093620080936300909364000E946A
:10013000EA0108951F920F920FB60F9211242F9388
:100140003F934F935F936F937F938F939F93AF935F
:10015000BF93EF93FF93809160008F5F8093600067
:10016000813019F40E94F80010C0823071F40E94AE
:10017000FE000E94E60090936A008093690080E090
:1001800090E00E94FB0010926000FF91EF91BF9100
:10019000AF919F918F917F916F915F914F913F911F
:1001A0002F910F900FBE0F901F9018951F920F92D6
:1001B0000FB60F9211240F900FBE0F901F9018953D
:1001C0000E94BE040E941B0480E00895CF93DF9339
:1001D00000D0CDB7DEB71A821982CE0101960E94F7
:1001E000F10489819A810F900F90DF91CF9108954A
:1001F0000E94D90408950E94F70408950E94E6041D
:100200000895CF93C82F0E94270440E061E080E06A
:100210000E94980340E062E080E00E94980340E082
:1002200063E080E00E9498038BB39C2F907F8F70D7
:10023000892B8BBB41E063E080E00E94980361E082
:1002400070E080E090E00E944E0440E063E080E0D7
:100250000E94980320E1C29FC00111249BB39F70AC
:10026000892B8BBB41E063E080E00E94980361E052
:1002700070E080E090E00E944E0440E063E080E0A7
:100280000E94980365E070E080E090E00E944E04D8
:10029000CF9108950E94270441E061E080E00E9430
:1002A000190341E062E080E00E94190341E063E04D
:1002B00080E00E94190341E064E080E00E9419039D
:1002C00041E065E080E00E94190341E066E080E0E3
:1002D0000E94190341E067E080E00E94190364E195
:1002E00070E080E090E00E944E0483E30E940101F0
:1002F00082E30E94010188E20E9401018CE00E94D9
:10030000010186E00E94010182E00E94010181E07A
:100310000E9401010895CF93C82F41E061E080E081
:100320000E94980340E062E080E00E94980340E071
:1003300063E080E00E9498038BB39C2F907F8F70C6
:10034000892B8BBB41E063E080E00E94980361E071
:1003500070E080E090E00E944E0440E063E080E0C6
:100360000E94980320E1C29FC00111249BB39F709B
:10037000892B8BBB41E063E080E00E94980361E041
:1003800070E080E090E00E944E0440E063E080E096
:100390000E94980365E070E080E090E00E944E04C7
:1003A000CF910895CF93DF9300D0CDB7DEB790E81B
:1003B000998390EC9A83E1E0F0E0EC0FFD1FE80FE9
:1003C000F11D8081860F0E9401010F900F90DF9137
:1003D000CF9108951F93CF93DF93CDB7DEB72A97C0
:1003E0000FB6F894DEBF0FBECDBF9923DCF5909514
:1003F0008095709561957F4F8F4F9F4F10E013C090
:100400002AE030E040E050E00E942906E1E0F0E020
:10041000EC0FFD1FE10FF11D605D6083622F732FF4
:10042000842F952F1F5F161617061806190644F31A
:10043000E1E0F0E0EC0FFD1FE10FF11D8DE28083A4
:100440001F5F0DC0E12FF0E0319781E090E08C0F4D
:100450009D1FE80FF91F80810E948B01115011111F
:10046000F1CF39C0611571058105910521F480E353
:100470000E948B0130C01616170618061906ACF03C
:100480002AC02AE030E040E050E00E942906E1E086
:10049000F0E0EC0FFD1FE10FF11D605D6083622F46
:1004A000732F842F952F1F5F01C010E016161706BB
:1004B0001806190634F30DC0E12FF0E0319781E002
:1004C00090E08C0F9D1FE80FF91F80810E948B0127
:1004D00011501111F1CF2A960FB6F894DEBF0FBE5E
:1004E000CDBFDF91CF911F9108958130B9F028F0F1
:1004F000823029F18330A1F144C041E060E081E025
:100500000E94190341E061E081E00E94190341E08B
:1005100062E081E00E94190380E0089541E063E019
:1005200081E00E94190341E064E081E00E94190328
:1005300041E065E081E00E94190380E0089541E018
:1005400060E082E00E94190341E061E082E00E94E5
:10055000190341E062E082E00E94190380E00895FF
:1005600041E063E082E00E94190341E064E082E040
:100570000E94190341E065E082E00E94190380E0D7
:10058000089581E00895813091F028F08230D9F00B
:10059000833029F130C041E060E081E00E9498039F
:1005A00040E061E081E00E94980380E0089541E02E
:1005B00063E081E00E94980340E064E081E00E94F3
:1005C000980380E0089541E060E082E00E94980393
:1005D00040E061E082E00E94980380E0089541E0FD
:1005E00063E082E00E94980340E064E082E00E94C1
:1005F000980380E0089581E0089541E060E083E0A1
:100600000E941903089541E060E083E00E9498038E
:100610006FE070E080E090E00E948A0440E060E0DB
:1006200083E00E94980308950E943E000E94790092
:10063000FDCF442319F04130E9F174C0813099F0C5
:1006400028F08230E9F0833041F16EC02AB381E0B6
:1006500090E002C0880F991F6A95E2F78095822387
:100660008ABB80E0089527B381E090E002C0880F44
:10067000991F6A95E2F78095822387BB80E00895F1
:1006800024B381E090E002C0880F991F6A95E2F7D9
:100690008095822384BB80E0089521B381E090E0BF
:1006A00002C0880F991F6A95E2F78095822381BB6B
:1006B00080E00895813091F028F08230D9F08330C5
:1006C00029F134C02AB381E090E002C0880F991F5D
:1006D0006A95E2F7822B8ABB80E0089527B381E018
:1006E00090E002C0880F991F6A95E2F7822B87BBC2
:1006F00080E0089524B381E090E002C0880F991F44
:100700006A95E2F7822B84BB80E0089521B381E0F3
:1007100090E002C0880F991F6A95E2F7822B81BB97
:1007200080E0089581E0089581E0089581E00895D2
:10073000442319F04130E9F174C0813099F028F078
:100740008230E9F0833041F16EC02BB381E090E05C
:1007500002C0880F991F6A95E2F7809582238BBBB0
:1007600080E0089528B381E090E002C0880F991FCF
:100770006A95E2F78095822388BB80E0089525B3CF
:1007800081E090E002C0880F991F6A95E2F780959A
:10079000822385BB80E0089522B381E090E002C00F
:1007A000880F991F6A95E2F78095822382BB80E0CB
:1007B0000895813091F028F08230D9F0833029F10A
:1007C00034C02BB381E090E002C0880F991F6A9576
:1007D000E2F7822B8BBB80E0089528B381E090E0A4
:1007E00002C0880F991F6A95E2F7822B88BB80E0D0
:1007F000089525B381E090E002C0880F991F6A95A3
:10080000E2F7822B85BB80E0089522B381E090E07F
:1008100002C0880F991F6A95E2F7822B82BB80E0A5
:10082000089581E0089581E0089581E008958FB7EB
:1008300080688FBF08950E94170485B7816085BFC7
:1008400085B78D7F85BF8BB780648BBF089583B7D5
:100850008F7783BF83B78F7B83BF83B7877F83BF48
:1008600083B78F7E83BF83B78F7D83BF80E008957A
:1008700083B7816083BF83B78D7F83BF83B78B7F4F
:1008800083BF80E0089583B78E7F83BF83B78D7F5A
:1008900083BF83B78B7F83BF80E008950E949B0551
:1008A0002FE632E143E05DE30E94FA040E946C050A
:1008B0006093650070936600809367009093680072
:1008C00012BE0E94380440E050E0BA010AC008B6E7
:1008D00000FEFDCF88B7816088BF4F5F5F4F6F4FCD
:1008E0007F4F8091650090916600A0916700B09164
:1008F0006800481759076A077B0748F3109265009C
:100900001092660010926700109268000E944304E3
:1009100080E00895DC01CB01689414F8B695A795A2
:10092000979587951694D1F780936500909366000C
:10093000A0936700B093680012BE0E94380440E0A4
:1009400050E0BA010AC008B600FEFDCF88B781604A
:1009500088BF4F5F5F4F6F4F7F4F809165009091D1
:100960006600A0916700B0916800481759076A07B0
:100970007B0748F30E94430480E008958FB58E7F83
:100980008FBD8FB58D7F8FBD8EB5877F8EBD8EB5A8
:100990008F7E8EBD8FB584608FBD8FB588608FBD13
:1009A0008FB780688FBF89B79AB784609ABF89BFB5
:1009B00008951DBC1CBC8EB581608EBD8EB58D7F2B
:1009C0008EBD8EB58B7F8EBD80E008958EB58E7FF7
:1009D0008EBD8EB58D7F8EBD8EB58B7F8EBD81E039
:1009E00008952CB53DB5FC013183208308959DBD4C
:1009F0008CBD08950E940E050C94EF050E94E80539
:100A000058F00E94E10540F029F45F3F29F00C9472
:100A1000D80551110C9423060C94DE050E940006A3
:100A200068F39923B1F3552391F3951B550BBB271D
:100A3000AA2762177307840738F09F5F5F4F220F62
:100A4000331F441FAA1FA9F335D00E2E3AF0E0E859
:100A500032D091505040E695001CCAF72BD0FE2FA3
:100A600029D0660F771F881FBB1F26173707480737
:100A7000AB07B0E809F0BB0B802DBF01FF279358EF
:100A80005F4F3AF09E3F510578F00C94D8050C94D6
:100A900023065F3FE4F3983ED4F3869577956795F8
:100AA000B795F7959F5FC9F7880F911D9695879524
:100AB00097F90895E1E0660F771F881FBB1F621743
:100AC00073078407BA0720F0621B730B840BBA0B01
:100AD000EE1F88F7E09508950E94080688F09F575A
:100AE00098F0B92F9927B751B0F0E1F0660F771F52
:100AF000881F991F1AF0BA95C9F714C0B13091F048
:100B00000E942206B1E008950C942206672F782FE8
:100B10008827B85F39F0B93FCCF38695779567950C
:100B2000B395D9F73EF490958095709561957F4F78
:100B30008F4F9F4F0895E89409C097FB3EF490951E
:100B40008095709561957F4F8F4F9F4F9923A9F0A6
:100B5000F92F96E9BB279395F69587957795679535
:100B6000B795F111F8CFFAF4BB0F11F460FF1BC079
:100B70006F5F7F4F8F4F9F4F16C0882311F096E90C
:100B800011C0772321F09EE8872F762F05C06623BA
:100B900071F096E8862F70E060E02AF09A95660F73
:100BA000771F881FDAF7880F9695879597F908952C
:100BB00097F99F6780E870E060E008959FEF80EC10
:100BC000089500240A9416161706180609060895B3
:100BD00000240A9412161306140605060895092E19
:100BE0000394000C11F4882352F0BB0F40F4BF2B88
:100BF00011F460FF04C06F5F7F4F8F4F9F4F0895C8
:100C000057FD9058440F551F59F05F3F71F04795BD
:100C1000880F97FB991F61F09F3F79F087950895A2
:100C2000121613061406551FF2CF4695F1DF08C0C1
:100C3000161617061806991FF1CF869571056105DE
:100C400008940895E894BB2766277727CB0197F986
:100C50000895052E97FB1EF400940E94400657FD50
:100C600007D00E94570607FC03D04EF40C944006B0
:100C700050954095309521953F4F4F4F5F4F0895C8
:100C800090958095709561957F4F8F4F9F4F0895F8
:100C9000A29FB001B39FC001A39F700D811D1124BD
:100CA000911DB29F700D811D1124911D0895A1E227
:100CB0001A2EAA1BBB1BFD010DC0AA1FBB1FEE1FD6
:100CC000FF1FA217B307E407F50720F0A21BB30B21
:100CD000E40BF50B661F771F881F991F1A9469F79D
:100CE00060957095809590959B01AC01BD01CF01F9
:060CF0000895F894FFCF07
:00000001FF
