S01E00004F62737461636C652061766F6964616E6365206361722E73726563B9
S11300000C942A000C9419030C9447000C94470098
S11300100C9447000C946E030C9447000C94470016
S11300200C9447000C9464030C9447000C94470010
S11300300C9447000C9447000C9447000C94470020
S11300400C9447000C9447000C9447000C94470010
S11300500C94470011241FBECFE5D8E0DEBFCDBF0E
S113006010E0A0E6B0E0E4E0F7E102C005900D92F4
S1130070A63AB107D9F720E0A6EAB0E001C01D9284
S1130080A73BB207E1F70E9466070C94800B0C941F
S113009000000E94B8030E944F070E94F3080E94C8
S11300A0C6090E94D9030E9493030E94030562E3D8
S11300B070E080E090E00E941A0980E00E9441060E
S11300C081E00E94410682E00E94410683E00E9492
S11300D0410680E00E948F0681E00E948F0682E044
S11300E00E948F0683E00E948F060895CF93DF93CA
S11300F000D0CDB7DEB719821A821092A6001092F2
S1130100A7001092A8001092A90088E893E10E9429
S1130110F3096093AA007093AB008093AC009093B2
S1130120AD000E94DD0939C061E080E00E949E05B7
S113013080E690E00E948B05AE014F5F5F4F63E065
S113014083E00E94990364E670E080E090E00E94FE
S11301501A09AE014F5F5F4F63E083E00E94990389
S113016089818823D1F08091AE008F5F8093AE00A7
S1130170813041F461E00E949E058DE690E00E948A
S11301808B050AC0823041F461E081E00E949E0543
S11301908BE790E00E948B0519824091A600509154
S11301A0A7006091A8007091A9008091AA00909185
S11301B0AB00A091AC00B091AD00481759076A0795
S11301C07B0708F4B1CF0E94E809CE0102960E9491
S11301D017048A818133C9F781E00E94BA0464E17B
S11301E070E080E090E00E941A0962E080E00E94E2
S11301F09E058AE890E00E948B0560ED77E080E040
S113020090E00E941A0981E00E94BA0464E170E05F
S113021080E090E00E941A0961E080E00E949E055F
S113022084E990E00E948B0568E080E00E949E05CE
S113023083E50E9444058AE30E94440561E081E06D
S11302400E949E0589E990E00E948B050F900F9013
S1130250DF91CF9108951092A6001092A7001092FA
S1130260A8001092A9001092AA001092AB0010925C
S1130270AC001092AD000E94550788E893E10E94FB
S1130280F3096093AA007093AB008093AC00909341
S1130290AD00A5C0AFE9B6E40E944F0B880F892FCB
S11302A0881F990B91958093B2000E94DD0938C094
S11302B080E00E94290781E00E94290782E00E94D1
S11302C0290783E00E9429076AE080E00E949E05D6
S11302D08EE990E00E948B0560EF73E280E090E08D
S11302E00E94560980E00E94030781E00E940307F0
S11302F082E00E94030783E00E94030765E080E038
S11303000E949E056091B20070E080E090E00E943F
S1130310B60565E081E00E949E0586E40E944405DE
S11303204091A6005091A7006091A8007091A90087
S11303308091AA009091AB00A091AC00B091AD0067
S1130340481759076A077B0740F48091B0009091E1
S1130350B100803B904808F0ABCF0E94E80980E0F0
S11303600E94290781E00E94290782E00E94290750
S113037083E00E9429076AE080E00E949E0582EAE9
S113038090E00E948B0564E670E080E090E00E94BB
S1130390560980E00E94030781E00E94030782E07F
S11303A00E94030783E00E94030760E27EE480E08A
S11303B090E00E94560965E080E00E949E056091ED
S11303C0B20070E080E090E00E94B60565E081E054
S11303D00E949E0586E40E9444050E9455072091D0
S11303E0B0003091B100203B80E8380708F052CFCC
S11303F040C080E00E94290781E00E94290782E032
S11304000E94290783E00E9429076AE080E00E9495
S11304109E0582EA90E00E948B0564E670E080E02D
S113042090E00E94560980E00E94030781E00E9448
S1130430030782E00E94030783E00E94030760E24F
S11304407EE480E090E00E94560965E080E00E942E
S11304509E056091B20070E080E090E00E94B605D5
S113046065E081E00E949E0586E40E9444050E94A6
S113047055078091B0009091B1008036964308F002
S1130480B8CF1092A6001092A7001092A800109264
S1130490A90084EF91E00E94F3096093AA0070938D
S11304A0AB008093AC009093AD004EC080E00E94FE
S11304B0030781E00E94030782E00E94030783E0B0
S11304C00E9403076AE080E00E949E0582EA90E0B1
S11304D00E948B0560E27EE480E090E00E94560971
S11304E065E080E00E949E056091B20070E080E0CB
S11304F090E00E94B60565E081E00E949E0582E5D9
S11305000E9444050E94DD0906C082E00E9429077A
S113051083E00E9429074091A6005091A7006091B2
S1130520A8007091A9008091AA009091AB00A091BD
S1130530AC00B091AD00481759076A077B0728F350
S11305400E94E8090E9455078091B0009091B10083
S1130550805494428032924108F4A8CF61C080E074
S11305600E94C90681E00E94C90682E00E94C90671
S113057083E00E94C90640C080E00E94290781E010
S11305800E94290782E00E94290783E00E9429072C
S11305906AE080E00E949E0582EA90E00E948B055A
S11305A064E670E080E090E00E94560980E00E94DA
S11305B0030781E00E94030782E00E94030783E0AF
S11305C00E94030760E27EE480E090E00E94560906
S11305D065E080E00E949E056091B20070E080E0DA
S11305E090E00E94B60565E081E00E949E0582E4E9
S11305F00E9444050E9455078091B0009091B1007B
S11306008031964208F4B8CF80E00E948F0681E0E2
S11306100E948F0682E00E948F0683E00E948F066C
S11306208091B0009091B1008034944208F497CF47
S113063008951F920F920FB60F9211242F933F9398
S11306404F935F936F937F938F939F93AF93BF93D6
S1130650EF93FF938091AF008F5F8093AF00813061
S113066019F40E94D0031FC08230E9F40E94D6031B
S11306700E94BE039093B1008093B00080E090E0AC
S11306800E94D3031092AF002091B0003091B100CA
S1130690AFE9B6E40E944F0B880F892F881F990B8E
S11306A091958093B200FF91EF91BF91AF919F918B
S11306B08F917F916F915F914F913F912F910F9007
S11306C00FBE0F901F9018951F920F920FB60F92A6
S11306D011240F900FBE0F901F9018951F920F9228
S11306E00FB60F9211248F939F93AF93BF93809172
S11306F0A6009091A700A091A800B091A90001962E
S1130700A11DB11D8093A6009093A700A093A800FB
S1130710B093A900BF91AF919F918F910F900FBE9D
S11307200F901F90189540E063E083E00E946D07EE
S113073008950F931F93CF93DF931F92CDB7DEB726
S11307408A011982AE014F5F5F4F0E946B088111CD
S113075005C08981F801808381E004C08981F801A2
S1130760808380E00F90DF91CF911F910F910895C6
S11307700E948A090E94E70880E00895CF93DF93DE
S113078000D0CDB7DEB71A821982CE0101960E943D
S1130790BD0989819A810F900F90DF91CF910895BF
S11307A00E94A50908950E94C30908950E94B209F0
S11307B0089541E065E083E00E946D0741E066E052
S11307C083E00E946D0741E067E083E00E946D07CB
S11307D040E060E083E00E946D0740E061E083E078
S11307E00E946D0740E064E083E00E946D0741E0F1
S11307F065E083E00E94EC0741E066E083E00E944C
S1130800EC0741E067E083E00E94EC0741E060E030
S113081083E00E94EC0741E061E083E00E94EC0782
S113082041E064E083E00E94EC0780E00895EF92E9
S1130830FF920F931F93CF93DF9300D000D000D08B
S1130840CDB7DEB77C0185E0898386E08A8387E0C3
S11308508B831C8281E08D8384E08E8300E079C0E9
S1130860033039F440E060E083E00E94EC0710E0DC
S113087062C0E1E0F0E0EC0FFD1FE00FF11D40E08D
S1130880608183E00E94EC07F2CFE4E0F0E0EC0F3B
S1130890FD1FE10FF11DA701608183E00E946B0839
S11308A0F7018081811146C0011111C0111103C0EB
S11308B081E3808333C0113021F482E3F701808324
S11308C02DC0123059F583E3F701808327C001302E
S11308D091F4111104C084E3F70180831FC0113027
S11308E021F485E3F701808319C01230B9F486E35B
S11308F0F701808313C0023089F4111104C087E327
S1130900F70180830BC0113021F488E3F701808361
S113091005C0123019F489E3F7018083E1E0F0E0C7
S1130920EC0FFD1FE00FF11D608183E00E94A90818
S113093080E013C01F5F133008F4A7CFE1E0F0E0BC
S1130940EC0FFD1FE00FF11D608183E00E94A908F8
S11309500F5F033008F484CF81E026960FB6F89435
S1130960DEBF0FBECDBFDF91CF911F910F91FF90DE
S1130970EF900895CF93C82F0E94F30840E061E000
S113098080E00E94EC0740E062E080E00E94EC0717
S113099040E063E080E00E94EC078BB39C2F907FE3
S11309A08F70892B8BBB41E063E080E00E94EC07F1
S11309B061E070E080E090E00E941A0940E063E0AA
S11309C080E00E94EC0720E1C29FC00111249BB388
S11309D09F70892B8BBB41E063E080E00E94EC07B1
S11309E061E070E080E090E00E941A0940E063E07A
S11309F080E00E94EC0765E070E080E090E00E94F7
S1130A001A09CF9108950E94F30841E061E080E063
S1130A100E946D0741E062E080E00E946D0741E0C2
S1130A2063E080E00E946D0741E064E080E00E94A2
S1130A306D0741E065E080E00E946D0741E066E0FB
S1130A4080E00E946D0741E067E080E00E946D074E
S1130A5064E170E080E090E00E941A0983E30E9460
S1130A60BA0482E30E94BA0488E20E94BA048CE0C9
S1130A700E94BA0486E00E94BA0482E00E94BA048A
S1130A8081E00E94BA040895CF93C82F41E061E049
S1130A9080E00E94EC0740E062E080E00E94EC0706
S1130AA040E063E080E00E94EC078BB39C2F907FD2
S1130AB08F70892B8BBB41E063E080E00E94EC07E0
S1130AC061E070E080E090E00E941A0940E063E099
S1130AD080E00E94EC0720E1C29FC00111249BB377
S1130AE09F70892B8BBB41E063E080E00E94EC07A0
S1130AF061E070E080E090E00E941A0940E063E069
S1130B0080E00E94EC0765E070E080E090E00E94E5
S1130B101A09CF9108950F931F93CF938C01C0E0CE
S1130B2003C00E944405CF5FF801EC0FF11D8081E2
S1130B308111F7CFCF911F910F910895CF93DF9338
S1130B4000D0CDB7DEB790E8998390EC9A83E1E0CA
S1130B50F0E0EC0FFD1FE80FF11D8081860F0E946D
S1130B60BA040F900F90DF91CF9108951F93CF9304
S1130B70DF93CDB7DEB72A970FB6F894DEBF0FBE6A
S1130B80CDBF9923DCF590958095709561957F4F45
S1130B908F4F9F4F10E013C02AE030E040E050E058
S1130BA00E94300BE1E0F0E0EC0FFD1FE10FF11DBE
S1130BB0605D6083622F732F842F952F1F5F16163D
S1130BC017061806190644F3E1E0F0E0EC0FFD1FE8
S1130BD0E10FF11D8DE280831F5F0DC0E12FF0E076
S1130BE0319781E090E08C0F9D1FE80FF91F808101
S1130BF00E94440511501111F1CF39C061157105DE
S1130C008105910521F480E30E94440530C0161645
S1130C10170618061906ACF02AC02AE030E040E0B6
S1130C2050E00E94300BE1E0F0E0EC0FFD1FE10F1B
S1130C30F11D605D6083622F732F842F952F1F5FDA
S1130C4001C010E0161617061806190634F30DC075
S1130C50E12FF0E0319781E090E08C0F9D1FE80FC9
S1130C60F91F80810E94440511501111F1CF2A9679
S1130C700FB6F894DEBF0FBECDBFDF91CF911F91A9
S1130C8008958130B9F028F0823029F18330A1F140
S1130C9044C041E060E081E00E946D0741E061E012
S1130CA081E00E946D0741E062E081E00E946D07EF
S1130CB080E0089541E063E081E00E946D0741E037
S1130CC064E081E00E946D0741E065E081E00E94FC
S1130CD06D0780E0089541E060E082E00E946D07C6
S1130CE041E061E082E00E946D0741E062E082E061
S1130CF00E946D0780E0089541E063E082E00E9475
S1130D006D0741E064E082E00E946D0741E065E028
S1130D1082E00E946D0780E0089581E008958130AB
S1130D2091F028F08230D9F0833029F130C041E0CD
S1130D3060E081E00E94EC0740E061E081E00E9415
S1130D40EC0780E0089541E063E081E00E94EC0755
S1130D5040E064E081E00E94EC0780E0089541E017
S1130D6060E082E00E94EC0740E061E082E00E94E3
S1130D70EC0780E0089541E063E082E00E94EC0724
S1130D8040E064E082E00E94EC0780E0089581E0A6
S1130D900895813091F028F08230D9F0833029F120
S1130DA030C040E060E081E00E94EC0741E061E097
S1130DB081E00E94EC0780E0089540E063E081E078
S1130DC00E94EC0741E064E081E00E94EC0780E0CF
S1130DD0089540E060E082E00E94EC0741E061E0B9
S1130DE082E00E94EC0780E0089540E063E082E046
S1130DF00E94EC0741E064E082E00E94EC0780E09E
S1130E00089581E00895813069F028F0823089F0F6
S1130E108330B1F01CC040E062E081E00E94EC0746
S1130E2080E0089540E065E081E00E94EC0780E006
S1130E30089540E062E082E00E94EC0780E00895BB
S1130E4040E065E082E00E94EC0780E0089581E0E4
S1130E500895813069F028F0823089F08330B1F050
S1130E601CC041E062E081E00E94EC0780E008954C
S1130E7041E065E081E00E94EC0780E0089541E0F4
S1130E8062E082E00E94EC0780E0089541E065E0C2
S1130E9082E00E94EC0780E0089581E0089541E03B
S1130EA060E080E00E946D07089541E060E080E02A
S1130EB00E94EC076FE070E080E090E00E94560929
S1130EC040E060E080E00E94EC0708950E94490041
S1130ED00E9476000E942B01FDCF442319F041307B
S1130EE0E9F174C0813099F028F08230E9F0833060
S1130EF041F16EC02AB381E090E002C0880F991FCF
S1130F006A95E2F7809582238ABB80E0089527B32F
S1130F1081E090E002C0880F991F6A95E2F78095FE
S1130F20822387BB80E0089524B381E090E002C06F
S1130F30880F991F6A95E2F78095822384BB80E02D
S1130F40089521B381E090E002C0880F991F6A954B
S1130F50E2F78095822381BB80E00895813091F08F
S1130F6028F08230D9F0833029F134C02AB381E0EB
S1130F7090E002C0880F991F6A95E2F7822B8ABB22
S1130F8080E0089527B381E090E002C0880F991FA4
S1130F906A95E2F7822B87BB80E0089524B381E051
S1130FA090E002C0880F991F6A95E2F7822B84BBF8
S1130FB080E0089521B381E090E002C0880F991F7A
S1130FC06A95E2F7822B81BB80E0089581E0089561
S1130FD081E0089581E00895442319F04130E9F156
S1130FE074C0813099F028F08230E9F0833041F107
S1130FF06EC02BB381E090E002C0880F991F6A9500
S1131000E2F7809582238BBB80E0089528B381E0CA
S113101090E002C0880F991F6A95E2F780958223B9
S113102088BB80E0089525B381E090E002C0880F7A
S1131030991F6A95E2F78095822385BB80E0089525
S113104022B381E090E002C0880F991F6A95E2F70D
S11310508095822382BB80E00895813091F028F04E
S11310608230D9F0833029F134C02BB381E090E091
S113107002C0880F991F6A95E2F7822B8BBB80E030
S1131080089528B381E090E002C0880F991F6A9503
S1131090E2F7822B88BB80E0089525B381E090E0DD
S11310A002C0880F991F6A95E2F7822B85BB80E006
S11310B0089522B381E090E002C0880F991F6A95D9
S11310C0E2F7822B82BB80E0089581E0089581E0FD
S11310D0089581E00895813099F028F08230E9F094
S11310E0833041F134C089B390E002C0959587956F
S11310F06A95E2F7817089BBFA01808380E00895E4
S113110086B390E002C0959587956A95E2F7817061
S113111086BBFA01808380E0089583B390E002C027
S1131120959587956A95E2F7817083BBFA01808370
S113113080E0089580B390E002C0959587956A9504
S1131140E2F7817080BBFA01808380E0089581E03A
S11311500895813091F028F08230D9F0833029F15C
S113116030C02BB381E090E002C0880F991F6A95CC
S1131170E2F782278BBB80E0089528B381E090E0FA
S113118002C0880F991F6A95E2F7822788BB80E026
S1131190089525B381E090E002C0880F991F6A95F5
S11311A0E2F7822785BB80E0089522B381E090E0D6
S11311B002C0880F991F6A95E2F7822782BB80E0FC
S11311C0089581E008958FB780688FBF08950E94C5
S11311D0E30885B7816085BF85B78D7F85BF8BB7F1
S11311E080648BBF089583B78F7783BF83B78F7B6A
S11311F083BF83B7877F83BF83B78F7E83BF83B764
S11312008F7D83BF80E0089583B7816083BF83B7F8
S11312108D7F83BF83B78B7F83BF80E0089583B7BF
S11312208E7F83BF83B78D7F83BF83B78B7F83BF5D
S113123080E008950E94A20A2FE632E143E05DE3D4
S11312400E94010A0E94730A6093B3007093B40071
S11312508093B5009093B60012BE0E94040940E04A
S113126050E0BA010AC008B600FEFDCF88B781601D
S113127088BF4F5F5F4F6F4F7F4F8091B300909156
S1131280B400A091B500B091B600481759076A0799
S11312907B0748F31092B3001092B4001092B5008B
S11312A01092B6000E940F0980E00895DC01CB0182
S11312B0689414F8B695A795979587951694D1F7E1
S11312C08093B3009093B400A093B500B093B6009C
S11312D012BE0E94040940E050E0BA010AC008B6F8
S11312E000FEFDCF88B7816088BF4F5F5F4F6F4FAF
S11312F07F4F8091B3009091B400A091B500B0915C
S1131300B600481759076A077B0748F30E940F097C
S113131080E008958FB58E7F8FBD8FB58D7F8FBD93
S11313208EB5877F8EBD8EB58F7E8EBD8FB5846062
S11313308FBD8FB588608FBD8FB780688FBF89B729
S11313409AB784609ABF89BF08951DBC1CBC8EB532
S113135081608EBD8EB58D7F8EBD8EB58B7F8EBD2B
S113136080E008958EB58E7F8EBD8EB58D7F8EBD47
S11313708EB58B7F8EBD81E008952CB53DB5FC0103
S11313803183208308959DBD8CBD089585B58F77E5
S113139085BD85B58F7B85BD85B5877F85BD85B5C5
S11313A08F7E85BD85B58F7D85BD8FB780688FBFE6
S11313B089B7806489BF80E0089585B5816085BD63
S11313C085B58D7F85BD85B58B7F85BD80E008950E
S11313D085B58E7F85BD85B58D7F85BD85B58B7FB4
S11313E085BD80E00895BC0180E090E00E94A20ADF
S11313F02FE632E143E05DE30E94010A0E94730A92
S113140008950E94150A0C94F60A0E94EF0A58F0F7
S11314100E94E80A40F029F45F3F29F00C94DF0AA7
S113142051110C942A0B0C94E50A0E94070B68F3E3
S11314309923B1F3552391F3951B550BBB27AA2789
S113144062177307840738F09F5F5F4F220F331FC3
S1131450441FAA1FA9F335D00E2E3AF0E0E832D08B
S113146091505040E695001CCAF72BD0FE2F29D08E
S1131470660F771F881FBB1F261737074807AB0760
S1131480B0E809F0BB0B802DBF01FF2793585F4FD5
S11314903AF09E3F510578F00C94DF0A0C942A0B25
S11314A05F3FE4F3983ED4F3869577956795B795B7
S11314B0F7959F5FC9F7880F911D9695879597F9C2
S11314C00895E1E0660F771F881FBB1F621773073B
S11314D08407BA0720F0621B730B840BBA0BEE1F50
S11314E088F7E09508950E940F0B88F09F5798F0B5
S11314F0B92F9927B751B0F0E1F0660F771F881F15
S1131500991F1AF0BA95C9F714C0B13091F00E942E
S1131510290BB1E008950C94290B672F782F8827A5
S1131520B85F39F0B93FCCF3869577956795B39555
S1131530D9F73EF490958095709561957F4F8F4FC4
S11315409F4F0895E89409C097FB3EF490958095C9
S1131550709561957F4F8F4F9F4F9923A9F0F92F75
S113156096E9BB279395F695879577956795B795F3
S1131570F111F8CFFAF4BB0F11F460FF1BC06F5FD9
S11315807F4F8F4F9F4F16C0882311F096E911C0EB
S1131590772321F09EE8872F762F05C0662371F00C
S11315A096E8862F70E060E02AF09A95660F771F20
S11315B0881FDAF7880F9695879597F9089597F914
S11315C09F6780E870E060E008959FEF80EC0895E5
S11315D000240A941616170618060906089500240E
S11315E00A9412161306140605060895092E039488
S11315F0000C11F4882352F0BB0F40F4BF2B11F4FC
S113160060FF04C06F5F7F4F8F4F9F4F089557FD5A
S11316109058440F551F59F05F3F71F04795880F5C
S113162097FB991F61F09F3F79F0879508951216F3
S113163013061406551FF2CF4695F1DF08C016169F
S113164017061806991FF1CF869571056105089450
S11316500895E894BB2766277727CB0197F9089567
S1131660052E97FB1EF400940E94470B57FD07D0EC
S11316700E945E0B07FC03D04EF40C94470B50956C
S11316804095309521953F4F4F4F5F4F089590956A
S11316908095709561957F4F8F4F9F4F0895A29FBE
S11316A0B001B39FC001A39F700D811D1124911D32
S11316B0B29F700D811D1124911D0895A1E21A2E6F
S11316C0AA1BBB1BFD010DC0AA1FBB1FEE1FFF1FE2
S11316D0A217B307E407F50720F0A21BB30BE40B32
S11316E0F50B661F771F881F991F1A9469F7609579
S11316F07095809590959B01AC01BD01CF01089533
S1071700F894FFCF87
S1131704536574204465662E20526F74004C45461C
S11317145420524F544154494F4E0052494748545F
S113172420524F544154494F4E0057414954494E55
S1131734472E2E004469733A004469723A003530E6
S1091744250033302500EE
S9030000FC
