S01E00004F62737461636C652061766F6964616E6365206361722E73726563B9
S11300000C942A000C944B030C9447000C94470066
S11300100C9447000C94A0030C9447000C944700E4
S11300200C9447000C9496030C9447000C944700DE
S11300300C9447000C9447000C9447000C94470020
S11300400C9447000C9447000C9447000C94470010
S11300500C94470011241FBECFE5D8E0DEBFCDBF0E
S113006010E0A0E6B0E0E8E6F7E102C005900D92EA
S1130070AE39B107D9F720E0AEE9B0E001C01D9276
S1130080AF3AB207E1F70E9498070C94B20B0C94B4
S113009000000E94EA030E9481070E9425090E9431
S11300A0F8090E940B040E94C5030E94350562E30F
S11300B070E080E090E00E944C0980E00E947306AA
S11300C081E00E94730682E00E94730683E00E942E
S11300D0730680E00E94C10681E00E94C10682E0AE
S11300E00E94C10683E00E94C1060895CF93DF9366
S11300F000D0CDB7DEB719821A8210929E001092FA
S11301009F001092A0001092A10088E893E10E9441
S1130110250A6093A2007093A3008093A400909397
S1130120A5000E940F0A39C061E080E00E94D0055A
S113013080E690E00E94BD05AE014F5F5F4F63E033
S113014083E00E94CB0364E670E080E090E00E94CC
S11301504C09AE014F5F5F4F63E083E00E94CB0325
S113016089818823D1F08091A6008F5F8093A600B7
S1130170813041F461E00E94D0058DE690E00E9458
S1130180BD050AC0823041F461E081E00E94D005DF
S11301908BE790E00E94BD05198240919E0050912A
S11301A09F006091A0007091A1008091A2009091A5
S11301B0A300A091A400B091A500481759076A07AD
S11301C07B0708F4B1CF0E941A0ACE0102960E945E
S11301D049048A818133C9F781E00E94EC0464E117
S11301E070E080E090E00E944C098AE890E00E9470
S11301F0BD0560ED77E080E090E00E944C0981E06D
S11302000E94EC0464E170E080E090E00E944C09FC
S11302100F900F90DF91CF91089510929E0010924D
S11302209F001092A0001092A1001092A2001092C0
S1130230A3001092A4001092A5000E94870788E8EA
S113024093E10E94250A6093A2007093A300809317
S1130250A4009093A50082C0AFE9B6E40E94810B8C
S1130260880F892F881F990B91958093AA000E946B
S11302700F0A2DC080E00E945B0781E00E945B07AB
S113028082E00E945B0783E00E945B0760E081E0FC
S11302900E94D00560EE74EC80E090E00E94880932
S11302A080E00E94350781E00E94350782E00E94C9
S11302B0350783E00E94350782E990E00E94BD057E
S11302C06091AA0070E080E090E00E94E80540910F
S11302D09E0050919F006091A0007091A1008091B8
S11302E0A2009091A300A091A400B091A50048178A
S11302F059076A077B0708F4BDCF0E941A0A80E0F9
S11303000E945B0781E00E945B0782E00E945B071A
S113031083E00E945B0760E081E00E94D00560E515
S113032070E580E090E00E94880980E00E94350733
S113033081E00E94350782E00E94350783E00E9435
S1130340350782E990E00E94BD056091AA0070E043
S113035080E090E00E94E8050E9487072091A800B1
S11303603091A900203B80E8380708F075CF2FC0F2
S113037080E00E945B0781E00E945B0782E00E94AC
S11303805B0783E00E945B0760E081E00E94D00588
S113039060E570E580E090E00E94880980E00E94BA
S11303A0350781E00E94350782E00E94350783E02B
S11303B00E94350782E990E00E94BD056091AA0081
S11303C070E080E090E00E94E8050E948707809139
S11303D0A8009091A9008036964350F610929E0092
S11303E010929F001092A0001092A10084EF91E05F
S11303F00E94250A6093A2007093A3008093A40036
S11304009093A50065C080E00E94350781E00E94BA
S1130410350782E00E94350783E00E9435070E9479
S11304200F0A06C082E00E945B0783E00E945B071C
S113043040919E0050919F006091A0007091A10096
S11304408091A2009091A300A091A400B091A50076
S1130450481759076A077B0728F30E941A0A2FC016
S113046080E00E945B0781E00E945B0782E00E94BB
S11304705B0783E00E945B0760E081E00E94D00597
S113048060E570E580E090E00E94880980E00E94C9
S1130490350781E00E94350782E00E94350783E03A
S11304A00E94350782E990E00E94BD056091AA0090
S11304B070E080E090E00E94E8050E948707809148
S11304C0A8009091A9008036964350F60E948707B1
S11304D08091A8009091A9008034944208F093CFB1
S11304E0D1C080E00E94FB0681E00E94FB0682E00E
S11304F00E94FB0683E00E94FB062FC080E00E945E
S11305005B0781E00E945B0782E00E945B0783E057
S11305100E945B0760E081E00E94D00560E570E521
S113052080E090E00E94880980E00E94350781E025
S11305300E94350782E00E94350783E00E94350758
S113054082E990E00E94BD056091AA0070E080E01D
S113055090E00E94E8050E9487078091A80090918E
S1130560A9008031964250F210929E0010929F0092
S11305701092A0001092A10084EF91E00E94250A3D
S11305806093A2007093A3008093A4009093A500AD
S11305900E940F0A80E00E94C10681E00E94C10609
S11305A082E00E94C10683E00E94C10663C080E02D
S11305B00E94350781E00E94350782E00E943507DA
S11305C083E00E94350706C082E00E945B0783E057
S11305D00E945B0740919E0050919F006091A00093
S11305E07091A1008091A2009091A300A091A40019
S11305F0B091A500481759076A077B0728F30E94A2
S113060087070E941A0A2FC080E00E945B0781E0DE
S11306100E945B0782E00E945B0783E00E945B0705
S113062060E081E00E94D00560E570E580E090E044
S11306300E94880980E00E94350781E00E94350706
S113064082E00E94350783E00E94350782E990E04A
S11306500E94BD056091AA0070E080E090E00E94D5
S1130660E8050E9487078091A8009091A900803630
S1130670964350F68091A8009091A900803196424B
S113068008F095CF8091A8009091A90080349442FD
S113069008F427CF08951F920F920FB60F921124DA
S11306A02F933F934F935F936F937F938F939F9376
S11306B0AF93BF93EF93FF938091A7008F5F8093D5
S11306C0A700813019F40E9402041FC08230E9F4AB
S11306D00E9408040E94F0039093A9008093A8004C
S11306E080E090E00E9405041092A7002091A800E9
S11306F03091A900AFE9B6E40E94810B880F892FDD
S1130700881F990B91958093AA00FF91EF91BF9157
S1130710AF919F918F917F916F915F914F913F9195
S11307202F910F900FBE0F901F9018951F920F924C
S11307300FB60F9211240F900FBE0F901F901895B3
S11307401F920F920FB60F9211248F939F93AF9322
S1130750BF9380919E0090919F00A091A000B091C2
S1130760A1000196A11DB11D80939E0090939F004E
S1130770A093A000B093A100BF91AF919F918F91DE
S11307800F900FBE0F901F90189540E063E083E038
S11307900E949F0708950F931F93CF93DF931F9297
S11307A0CDB7DEB78A011982AE014F5F5F4F0E9459
S11307B09D08811105C08981F801808381E004C00E
S11307C08981F801808380E00F90DF91CF911F91A0
S11307D00F9108950E94BC090E94190980E00895B0
S11307E0CF93DF9300D0CDB7DEB71A821982CE0142
S11307F001960E94EF0989819A810F900F90DF91F1
S1130800CF9108950E94D70908950E94F50908958B
S11308100E94E409089541E065E083E00E949F0797
S113082041E066E083E00E949F0741E067E083E0E7
S11308300E949F0740E060E083E00E949F0740E041
S113084061E083E00E949F0740E064E083E00E944F
S11308509F0741E065E083E00E941E0841E066E0F6
S113086083E00E941E0841E067E083E00E941E08C6
S113087041E060E083E00E941E0841E061E083E023
S11308800E941E0841E064E083E00E941E0880E0AC
S11308900895EF92FF920F931F93CF93DF9300D0AD
S11308A000D000D0CDB7DEB77C0185E0898386E037
S11308B08A8387E08B831C8281E08D8384E08E832E
S11308C000E079C0033039F440E060E083E00E9446
S11308D01E0810E062C0E1E0F0E0EC0FFD1FE00F45
S11308E0F11D40E0608183E00E941E08F2CFE4E045
S11308F0F0E0EC0FFD1FE10FF11DA701608183E023
S11309000E949D08F7018081811146C0011111C028
S1130910111103C081E3808333C0113021F482E3D9
S1130920F70180832DC0123059F583E3F7018083EA
S113093027C0013091F4111104C084E3F7018083CE
S11309401FC0113021F485E3F701808319C01230F0
S1130950B9F486E3F701808313C0023089F41111DE
S113096004C087E3F70180830BC0113021F488E3CE
S1130970F701808305C0123019F489E3F7018083FD
S1130980E1E0F0E0EC0FFD1FE00FF11D608183E07A
S11309900E94DB0880E013C01F5F133008F4A7CF68
S11309A0E1E0F0E0EC0FFD1FE00FF11D608183E05A
S11309B00E94DB080F5F033008F484CF81E02696A1
S11309C00FB6F894DEBF0FBECDBFDF91CF911F915C
S11309D00F91FF90EF900895CF93C82F0E9425099F
S11309E040E061E080E00E941E0840E062E080E0B8
S11309F00E941E0840E063E080E00E941E088BB362
S1130A009C2F907F8F70892B8BBB41E063E080E04B
S1130A100E941E0861E070E080E090E00E944C09B2
S1130A2040E063E080E00E941E0820E1C29FC00114
S1130A3011249BB39F70892B8BBB41E063E080E062
S1130A400E941E0861E070E080E090E00E944C0982
S1130A5040E063E080E00E941E0865E070E080E012
S1130A6090E00E944C09CF9108950E94250941E02D
S1130A7061E080E00E949F0741E062E080E00E9424
S1130A809F0741E063E080E00E949F0741E064E04B
S1130A9080E00E949F0741E065E080E00E949F079C
S1130AA041E066E080E00E949F0741E067E080E06B
S1130AB00E949F0764E170E080E090E00E944C098E
S1130AC083E30E94EC0482E30E94EC0488E20E9427
S1130AD0EC048CE00E94EC0486E00E94EC0482E0CA
S1130AE00E94EC0481E00E94EC040895CF93C82F87
S1130AF041E061E080E00E941E0840E062E080E0A6
S1130B000E941E0840E063E080E00E941E088BB350
S1130B109C2F907F8F70892B8BBB41E063E080E03A
S1130B200E941E0861E070E080E090E00E944C09A1
S1130B3040E063E080E00E941E0820E1C29FC00103
S1130B4011249BB39F70892B8BBB41E063E080E051
S1130B500E941E0861E070E080E090E00E944C0971
S1130B6040E063E080E00E941E0865E070E080E001
S1130B7090E00E944C09CF9108950F931F93CF9357
S1130B808C01C0E003C00E947605CF5FF801EC0F32
S1130B90F11D80818111F7CFCF911F910F9108959D
S1130BA0CF93DF9300D0CDB7DEB790E8998390EC74
S1130BB09A83E1E0F0E0EC0FFD1FE80FF11D808166
S1130BC0860F0E94EC040F900F90DF91CF9108954F
S1130BD01F93CF93DF93CDB7DEB72A970FB6F89460
S1130BE0DEBF0FBECDBF9923DCF59095809570953F
S1130BF061957F4F8F4F9F4F10E013C02AE030E084
S1130C0040E050E00E94620BE1E0F0E0EC0FFD1FD9
S1130C10E10FF11D605D6083622F732F842F952F88
S1130C201F5F161617061806190644F3E1E0F0E0F4
S1130C30EC0FFD1FE10FF11D8DE280831F5F0DC0DE
S1130C40E12FF0E0319781E090E08C0F9D1FE80FD9
S1130C50F91F80810E94760511501111F1CF39C01E
S1130C60611571058105910521F480E30E947605E3
S1130C7030C01616170618061906ACF02AC02AE06A
S1130C8030E040E050E00E94620BE1E0F0E0EC0F65
S1130C90FD1FE10FF11D605D6083622F732F842FB0
S1130CA0952F1F5F01C010E01616170618061906C7
S1130CB034F30DC0E12FF0E0319781E090E08C0F28
S1130CC09D1FE80FF91F80810E94760511501111B4
S1130CD0F1CF2A960FB6F894DEBF0FBECDBFDF91D9
S1130CE0CF911F9108958130B9F028F0823029F115
S1130CF08330A1F144C041E060E081E00E949F079D
S1130D0041E061E081E00E949F0741E062E081E010
S1130D100E949F0780E0089541E063E081E00E9423
S1130D209F0741E064E081E00E949F0741E065E0A5
S1130D3081E00E949F0780E0089541E060E082E046
S1130D400E949F0741E061E082E00E949F0741E02A
S1130D5062E082E00E949F0780E0089541E063E042
S1130D6082E00E949F0741E064E082E00E949F07C6
S1130D7041E065E082E00E949F0780E0089581E001
S1130D800895813091F028F08230D9F0833029F130
S1130D9030C041E060E081E00E941E0840E061E074
S1130DA081E00E941E0880E0089541E063E081E054
S1130DB00E941E0840E064E081E00E941E0880E07A
S1130DC0089541E060E082E00E941E0840E061E096
S1130DD082E00E941E0880E0089541E063E082E022
S1130DE00E941E0840E064E082E00E941E0880E049
S1130DF0089581E00895813091F028F08230D9F08F
S1130E00833029F130C040E060E081E00E941E0898
S1130E1041E061E081E00E941E0880E0089540E026
S1130E2063E081E00E941E0841E064E081E00E94EA
S1130E301E0880E0089540E060E082E00E941E0801
S1130E4041E061E082E00E941E0880E0089540E0F5
S1130E5063E082E00E941E0841E064E082E00E94B8
S1130E601E0880E0089581E00895813069F028F03B
S1130E70823089F08330B1F01CC040E062E081E050
S1130E800E941E0880E0089540E065E081E00E9431
S1130E901E0880E0089540E062E082E00E941E089F
S1130EA080E0089540E065E082E00E941E0880E052
S1130EB0089581E00895813069F028F0823089F046
S1130EC08330B1F01CC041E062E081E00E941E0862
S1130ED080E0089541E065E081E00E941E0880E022
S1130EE0089541E062E082E00E941E0880E00895D7
S1130EF041E065E082E00E941E0880E0089581E000
S1130F00089541E060E080E00E949F07089541E079
S1130F1060E080E00E941E086FE070E080E090E0F6
S1130F200E94880940E060E080E00E941E08089565
S1130F300E9449000E9476000E940D01FDCF4423C7
S1130F4019F04130E9F174C0813099F028F0823011
S1130F50E9F0833041F16EC02AB381E090E002C031
S1130F60880F991F6A95E2F7809582238ABB80E0F7
S1130F70089527B381E090E002C0880F991F6A9515
S1130F80E2F78095822387BB80E0089524B381E053
S1130F9090E002C0880F991F6A95E2F7809582233A
S1130FA084BB80E0089521B381E090E002C0880F03
S1130FB0991F6A95E2F78095822381BB80E00895AA
S1130FC0813091F028F08230D9F0833029F134C097
S1130FD02AB381E090E002C0880F991F6A95E2F776
S1130FE0822B8ABB80E0089527B381E090E002C0A1
S1130FF0880F991F6A95E2F7822B87BB80E00895DA
S113100024B381E090E002C0880F991F6A95E2F74B
S1131010822B84BB80E0089521B381E090E002C07C
S1131020880F991F6A95E2F7822B81BB80E00895AF
S113103081E0089581E0089581E00895442319F042
S11310404130E9F174C0813099F028F08230E9F040
S1131050833041F16EC02BB381E090E002C0880F71
S1131060991F6A95E2F7809582238BBB80E00895EF
S113107028B381E090E002C0880F991F6A95E2F7D7
S11310808095822388BB80E0089525B381E090E0B9
S113109002C0880F991F6A95E2F78095822385BB69
S11310A080E0089522B381E090E002C0880F991F88
S11310B06A95E2F78095822382BB80E008958130AF
S11310C091F028F08230D9F0833029F134C02BB369
S11310D081E090E002C0880F991F6A95E2F7822BA5
S11310E08BBB80E0089528B381E090E002C0880FB4
S11310F0991F6A95E2F7822B88BB80E0089525B397
S113110081E090E002C0880F991F6A95E2F7822B74
S113111085BB80E0089522B381E090E002C0880F8F
S1131120991F6A95E2F7822B82BB80E0089581E0E3
S1131130089581E0089581E00895813099F028F0C0
S11311408230E9F0833041F134C089B390E002C0C9
S1131150959587956A95E2F7817089BBFA0180833A
S113116080E0089586B390E002C0959587956A95CE
S1131170E2F7817086BBFA01808380E0089583B32F
S113118090E002C0959587956A95E2F7817083BBDC
S1131190FA01808380E0089580B390E002C09595C1
S11311A087956A95E2F7817080BBFA01808380E0BD
S11311B0089581E00895813091F028F08230D9F0CB
S11311C0833029F130C02BB381E090E002C0880F56
S11311D0991F6A95E2F782278BBB80E0089528B3B4
S11311E081E090E002C0880F991F6A95E2F7822798
S11311F088BB80E0089525B381E090E002C0880FA9
S1131200991F6A95E2F7822785BB80E0089522B38F
S113121081E090E002C0880F991F6A95E2F7822767
S113122082BB80E0089581E008958FB780688FBF06
S113123008950E94150985B7816085BF85B78D7FA4
S113124085BF8BB780648BBF089583B78F7783BFC7
S113125083B78F7B83BF83B7877F83BF83B78F7E3B
S113126083BF83B78F7D83BF80E0089583B7816098
S113127083BF83B78D7F83BF83B78B7F83BF80E0BA
S1131280089583B78E7F83BF83B78D7F83BF83B772
S11312908B7F83BF80E008950E94D40A2FE632E159
S11312A043E05DE30E94330A0E94A50A6093AB0009
S11312B07093AC008093AD009093AE0012BE0E9478
S11312C0360940E050E0BA010AC008B600FEFDCF7E
S11312D088B7816088BF4F5F5F4F6F4F7F4F8091AA
S11312E0AB009091AC00A091AD00B091AE00481756
S11312F059076A077B0748F31092AB001092AC00C1
S11313001092AD001092AE000E94410980E0089551
S1131310DC01CB01689414F8B695A7959795879549
S11313201694D1F78093AB009093AC00A093AD00DA
S1131330B093AE0012BE0E94360940E050E0BA01FC
S11313400AC008B600FEFDCF88B7816088BF4F5F32
S11313505F4F6F4F7F4F8091AB009091AC00A09195
S1131360AD00B091AE00481759076A077B0748F3F0
S11313700E94410980E008958FB58E7F8FBD8FB59F
S11313808D7F8FBD8EB5877F8EBD8EB58F7E8EBDD2
S11313908FB584608FBD8FB588608FBD8FB780682F
S11313A08FBF89B79AB784609ABF89BF08951DBC5F
S11313B01CBC8EB581608EBD8EB58D7F8EBD8EB505
S11313C08B7F8EBD80E008958EB58E7F8EBD8EB5E9
S11313D08D7F8EBD8EB58B7F8EBD81E008952CB53B
S11313E03DB5FC013183208308959DBD8CBD0895D6
S11313F085B58F7785BD85B58F7B85BD85B5877FA1
S113140085BD85B58F7E85BD85B58F7D85BD8FB73F
S113141080688FBF89B7806489BF80E0089585B5EF
S1131420816085BD85B58D7F85BD85B58B7F85BD87
S113143080E0089585B58E7F85BD85B58D7F85BD9A
S113144085B58B7F85BD80E00895BC0180E090E088
S11314500E94D40A2FE632E143E05DE30E94330A9E
S11314600E94A50A08950E94470A0C94280B0E9422
S1131470210B58F00E941A0B40F029F45F3F29F029
S11314800C94110B51110C945C0B0C94170B0E94CF
S1131490390B68F39923B1F3552391F3951B550B3D
S11314A0BB27AA2762177307840738F09F5F5F4F33
S11314B0220F331F441FAA1FA9F335D00E2E3AF072
S11314C0E0E832D091505040E695001CCAF72BD08A
S11314D0FE2F29D0660F771F881FBB1F26173707DB
S11314E04807AB07B0E809F0BB0B802DBF01FF270D
S11314F093585F4F3AF09E3F510578F00C94110BCE
S11315000C945C0B5F3FE4F3983ED4F38695779597
S11315106795B795F7959F5FC9F7880F911D9695C5
S1131520879597F90895E1E0660F771F881FBB1F21
S1131530621773078407BA0720F0621B730B840BCE
S1131540BA0BEE1F88F7E09508950E94410B88F0CE
S11315509F5798F0B92F9927B751B0F0E1F0660F73
S1131560771F881F991F1AF0BA95C9F714C0B130B4
S113157091F00E945B0BB1E008950C945B0B672F14
S1131580782F8827B85F39F0B93FCCF386957795E3
S11315906795B395D9F73EF49095809570956195CC
S11315A07F4F8F4F9F4F0895E89409C097FB3EF4F7
S11315B090958095709561957F4F8F4F9F4F99239C
S11315C0A9F0F92F96E9BB279395F695879577951A
S11315D06795B795F111F8CFFAF4BB0F11F460FFDA
S11315E01BC06F5F7F4F8F4F9F4F16C0882311F032
S11315F096E911C0772321F09EE8872F762F05C046
S1131600662371F096E8862F70E060E02AF09A95E0
S1131610660F771F881FDAF7880F9695879597F9D5
S1131620089597F99F6780E870E060E008959FEF60
S113163080EC089500240A94161617061806090665
S1131640089500240A941216130614060506089534
S1131650092E0394000C11F4882352F0BB0F40F4BC
S1131660BF2B11F460FF04C06F5F7F4F8F4F9F4FFC
S1131670089557FD9058440F551F59F05F3F71F07E
S11316804795880F97FB991F61F09F3F79F08795E5
S11316900895121613061406551FF2CF4695F1DF6E
S11316A008C0161617061806991FF1CF86957105FE
S11316B0610508940895E894BB2766277727CB0132
S11316C097F90895052E97FB1EF400940E94790B58
S11316D057FD07D00E94900B07FC03D04EF40C94E6
S11316E0790B50954095309521953F4F4F4F5F4F63
S11316F0089590958095709561957F4F8F4F9F4F7A
S11317000895A29FB001B39FC001A39F700D811DD6
S11317101124911DB29F700D811D1124911D0895F6
S1131720A1E21A2EAA1BBB1BFD010DC0AA1FBB1FE1
S1131730EE1FFF1FA217B307E407F50720F0A21B53
S1131740B30BE40BF50B661F771F881F991F1A94C0
S113175069F760957095809590959B01AC01BD01EA
S10B1760CF010895F894FFCFB6
S1131768536574204465662E20526F74004C4546B8
S11317785420524F544154494F4E005249474854FB
S113178820524F544154494F4E0057616974696E51
S1111798670044697374616E6365203A000053
S9030000FC
