:100000000C942A000C9469010C9447000C9447004E
:100010000C9447000C94AF010C9447000C944700DB
:100020000C9447000C94A5010C9447000C944700D5
:100030000C9447000C9447000C9447000C94470024
:100040000C9447000C9447000C9447000C94470014
:100050000C94470011241FBECFE5D8E0DEBFCDBF12
:1000600010E0A0E6B0E0E2E1F3E102C005900D92FD
:10007000AE39B107D9F720E0AEE9B0E001C01D927A
:10008000AF3AB207E1F70E946D050C9487090C9412
:1000900000000E94F9010E9456050E94FA060E9483
:1000A000CD070E941A020E94D4010E94440362E319
:1000B00070E080E090E00E94210780E00E948204CE
:1000C00081E00E94820482E00E94820483E00E9418
:1000D000820480E00E94D00481E00E94D00482E08B
:1000E0000E94D00483E00E94D0040895CF93DF9350
:1000F00000D0CDB7DEB719821A8210929E001092FE
:100100009F001092A0001092A10088E893E10E9445
:10011000FA076093A2007093A3008093A4009093C9
:10012000A5000E94E40739C061E080E00E94DF037F
:1001300080E690E00E94CC03AE014F5F5F4F63E02A
:1001400083E00E94DA0164E670E080E090E00E94C3
:100150002107AE014F5F5F4F63E083E00E94DA0149
:1001600089818823D1F08091A6008F5F8093A600BB
:10017000813041F461E00E94DF038DE690E00E944F
:10018000CC030AC0823041F461E081E00E94DF03C9
:100190008BE790E00E94CC03198240919E00509121
:1001A0009F006091A0007091A1008091A2009091A9
:1001B000A300A091A400B091A500481759076A07B1
:1001C0007B0708F4B1CF0E94EF07CE0102960E9490
:1001D00058028A818133C9F781E00E94FB0264E101
:1001E00070E080E090E00E9421078AE890E00E94A1
:1001F000CC0360ED77E080E090E00E94210781E091
:100200000E94FB0264E170E080E090E00E94210720
:100210000F900F90DF91CF9108950E945C0520917F
:10022000A8003091A900AFE9B6E40E945609880FF2
:10023000892F881F990B91958093AA0061E080E037
:100240000E94DF0382E990E00E94CC036091AA0043
:1002500070E080E090E00E94F70336C080E00E94EA
:10026000300581E00E94300582E00E94300583E085
:100270000E94300560E87CE080E090E00E945D072D
:1002800080E00E940A0581E00E940A0582E00E9447
:100290000A0583E00E940A0560E87CE080E090E0C7
:1002A0000E945D070CC080E00E94300581E00E9442
:1002B000300582E00E94300583E00E943005809185
:1002C000AA008F51843178F38091AA008F3130F2E7
:1002D00008951F920F920FB60F9211242F933F9300
:1002E0004F935F936F937F938F939F93AF93BF933E
:1002F000EF93FF938091A7008F5F8093A7008130D9
:1003000019F40E94110210C0823071F40E94170289
:100310000E94FF019093A9008093A80080E090E0E4
:100320000E9414021092A700FF91EF91BF91AF912C
:100330009F918F917F916F915F914F913F912F91FD
:100340000F900FBE0F901F9018951F920F920FB62F
:100350000F9211240F900FBE0F901F9018951F92AF
:100360000F920FB60F9211248F939F93AF93BF9369
:1003700080919E0090919F00A091A000B091A1005B
:100380000196A11DB11D80939E0090939F00A093A4
:10039000A000B093A100BF91AF919F918F910F905A
:1003A0000FBE0F901F90189540E063E083E00E941D
:1003B000740508950F931F93CF93DF931F92CDB7CA
:1003C000DEB78A011982AE014F5F5F4F0E9472064D
:1003D000811105C08981F801808381E004C0898191
:1003E000F801808380E00F90DF91CF911F910F91F2
:1003F00008950E9491070E94EE0680E00895CF9331
:10040000DF9300D0CDB7DEB71A821982CE010196F4
:100410000E94C40789819A810F900F90DF91CF913C
:1004200008950E94AC0708950E94CA0708950E948B
:10043000B907089541E065E083E00E94740541E05A
:1004400066E083E00E94740541E067E083E00E947B
:10045000740540E060E083E00E94740540E061E0E4
:1004600083E00E94740540E064E083E00E9474052C
:1004700041E065E083E00E94F30541E066E083E04F
:100480000E94F30541E067E083E00E94F30541E04C
:1004900060E083E00E94F30541E061E083E00E94B8
:1004A000F30541E064E083E00E94F30580E00895F5
:1004B000EF92FF920F931F93CF93DF9300D000D062
:1004C00000D0CDB7DEB77C0185E0898386E08A83E2
:1004D00087E08B831C8281E08D8384E08E8300E043
:1004E00079C0033039F440E060E083E00E94F30516
:1004F00010E062C0E1E0F0E0EC0FFD1FE00FF11D45
:1005000040E0608183E00E94F305F2CFE4E0F0E098
:10051000EC0FFD1FE10FF11DA701608183E00E9438
:100520007206F7018081811146C0011111C01111BD
:1005300003C081E3808333C0113021F482E3F701EB
:1005400080832DC0123059F583E3F701808327C0E3
:10055000013091F4111104C084E3F70180831FC0BE
:10056000113021F485E3F701808319C01230B9F40A
:1005700086E3F701808313C0023089F4111104C0AF
:1005800087E3F70180830BC0113021F488E3F70182
:10059000808305C0123019F489E3F7018083E1E01C
:1005A000F0E0EC0FFD1FE00FF11D608183E00E9481
:1005B000B00680E013C01F5F133008F4A7CFE1E05E
:1005C000F0E0EC0FFD1FE00FF11D608183E00E9461
:1005D000B0060F5F033008F484CF81E026960FB693
:1005E000F894DEBF0FBECDBFDF91CF911F910F9169
:1005F000FF90EF900895CF93C82F0E94FA0640E035
:1006000061E080E00E94F30540E062E080E00E944B
:10061000F30540E063E080E00E94F3058BB39C2F7C
:10062000907F8F70892B8BBB41E063E080E00E945C
:10063000F30561E070E080E090E00E94210740E077
:1006400063E080E00E94F30520E1C29FC001112415
:100650009BB39F70892B8BBB41E063E080E00E94DD
:10066000F30561E070E080E090E00E94210740E047
:1006700063E080E00E94F30565E070E080E090E0D8
:100680000E942107CF9108950E94FA0641E061E09F
:1006900080E00E94740541E062E080E00E94740501
:1006A00041E063E080E00E94740541E064E080E0A6
:1006B0000E94740541E065E080E00E94740541E01D
:1006C00066E080E00E94740541E067E080E00E94FF
:1006D000740564E170E080E090E00E94210783E30C
:1006E0000E94FB0282E30E94FB0288E20E94FB025E
:1006F0008CE00E94FB0286E00E94FB0282E00E94E6
:10070000FB0281E00E94FB020895CF93C82F41E0D5
:1007100061E080E00E94F30540E062E080E00E943A
:10072000F30540E063E080E00E94F3058BB39C2F6B
:10073000907F8F70892B8BBB41E063E080E00E944B
:10074000F30561E070E080E090E00E94210740E066
:1007500063E080E00E94F30520E1C29FC001112404
:100760009BB39F70892B8BBB41E063E080E00E94CC
:10077000F30561E070E080E090E00E94210740E036
:1007800063E080E00E94F30565E070E080E090E0C7
:100790000E942107CF9108950F931F93CF938C014F
:1007A000C0E003C00E948503CF5FF801EC0FF11D8C
:1007B00080818111F7CFCF911F910F910895CF9331
:1007C000DF9300D0CDB7DEB790E8998390EC9A83A1
:1007D000E1E0F0E0EC0FFD1FE80FF11D8081860FD6
:1007E0000E94FB020F900F90DF91CF9108951F930D
:1007F000CF93DF93CDB7DEB72A970FB6F894DEBF5D
:100800000FBECDBF9923DCF59095809570956195CD
:100810007F4F8F4F9F4F10E013C02AE030E040E041
:1008200050E00E943709E1E0F0E0EC0FFD1FE10F1E
:10083000F11D605D6083622F732F842F952F1F5FE2
:10084000161617061806190644F3E1E0F0E0EC0F5F
:10085000FD1FE10FF11D8DE280831F5F0DC0E12FB1
:10086000F0E0319781E090E08C0F9D1FE80FF91FB9
:1008700080810E94850311501111F1CF39C061159B
:1008800071058105910521F480E30E94850330C044
:100890001616170618061906ACF02AC02AE030E032
:1008A00040E050E00E943709E1E0F0E0EC0FFD1F6E
:1008B000E10FF11D605D6083622F732F842F952FF0
:1008C0001F5F01C010E0161617061806190634F34C
:1008D0000DC0E12FF0E0319781E090E08C0F9D1F7B
:1008E000E80FF91F80810E94850311501111F1CF8B
:1008F0002A960FB6F894DEBF0FBECDBFDF91CF9121
:100900001F9108958130B9F028F0823029F18330A9
:10091000A1F144C041E060E081E00E94740541E043
:1009200061E081E00E94740541E062E081E00E94A4
:10093000740580E0089541E063E081E00E94740561
:1009400041E064E081E00E94740541E065E081E0FF
:100950000E94740580E0089541E060E082E00E941A
:10096000740541E061E082E00E94740541E062E0CC
:1009700082E00E94740580E0089541E063E082E037
:100980000E94740541E064E082E00E94740541E049
:1009900065E082E00E94740580E0089581E008959A
:1009A000813091F028F08230D9F0833029F130C0C5
:1009B00041E060E081E00E94F30540E061E081E019
:1009C0000E94F30580E0089541E063E081E00E9429
:1009D000F30540E064E081E00E94F30580E00895C3
:1009E00041E060E082E00E94F30540E061E082E0E7
:1009F0000E94F30580E0089541E063E082E00E94F8
:100A0000F30540E064E082E00E94F30580E0089591
:100A100081E00895813069F028F0823089F08330D8
:100A2000B1F01CC040E062E081E00E94F30580E08C
:100A3000089540E065E081E00E94F30580E00895BC
:100A400040E062E082E00E94F30580E0089540E02B
:100A500065E082E00E94F30580E0089581E008955A
:100A6000813069F028F0823089F08330B1F01CC009
:100A700041E062E081E00E94F30580E0089541E0FA
:100A800065E081E00E94F30580E0089541E062E0C6
:100A900082E00E94F30580E0089541E065E082E095
:100AA0000E94F30580E0089581E0089541E060E050
:100AB00080E00E947405089541E060E080E00E94BB
:100AC000F3056FE070E080E090E00E945D0740E099
:100AD00060E080E00E94F30508950E9449000E94B2
:100AE00076000E940D01FDCF442319F04130E9F159
:100AF00074C0813099F028F08230E9F0833041F100
:100B00006EC02AB381E090E002C0880F991F6A95F9
:100B1000E2F7809582238ABB80E0089527B381E0C5
:100B200090E002C0880F991F6A95E2F780958223B2
:100B300087BB80E0089524B381E090E002C0880F75
:100B4000991F6A95E2F78095822384BB80E008951F
:100B500021B381E090E002C0880F991F6A95E2F707
:100B60008095822381BB80E00895813091F028F048
:100B70008230D9F0833029F134C02AB381E090E08B
:100B800002C0880F991F6A95E2F7822B8ABB80E02A
:100B9000089527B381E090E002C0880F991F6A95FD
:100BA000E2F7822B87BB80E0089524B381E090E0D8
:100BB00002C0880F991F6A95E2F7822B84BB80E000
:100BC000089521B381E090E002C0880F991F6A95D3
:100BD000E2F7822B81BB80E0089581E0089581E0F7
:100BE000089581E00895442319F04130E9F174C07B
:100BF000813099F028F08230E9F0833041F16EC005
:100C00002BB381E090E002C0880F991F6A95E2F74C
:100C1000809582238BBB80E0089528B381E090E02B
:100C200002C0880F991F6A95E2F78095822388BBDE
:100C300080E0089525B381E090E002C0880F991FFD
:100C40006A95E2F78095822385BB80E0089522B300
:100C500081E090E002C0880F991F6A95E2F78095C5
:100C6000822382BB80E00895813091F028F08230A9
:100C7000D9F0833029F134C02BB381E090E002C079
:100C8000880F991F6A95E2F7822B8BBB80E008954D
:100C900028B381E090E002C0880F991F6A95E2F7BF
:100CA000822B88BB80E0089525B381E090E002C0EC
:100CB000880F991F6A95E2F7822B85BB80E0089523
:100CC00022B381E090E002C0880F991F6A95E2F795
:100CD000822B82BB80E0089581E0089581E0089531
:100CE00081E00895813099F028F08230E9F0833076
:100CF00041F134C089B390E002C0959587956A951B
:100D0000E2F7817089BBFA01808380E0089586B3A1
:100D100090E002C0959587956A95E2F7817086BB51
:100D2000FA01808380E0089583B390E002C0959536
:100D300087956A95E2F7817083BBFA01808380E032
:100D4000089580B390E002C0959587956A95E2F783
:100D5000817080BBFA01808380E0089581E008956E
:100D6000813091F028F08230D9F0833029F130C001
:100D70002BB381E090E002C0880F991F6A95E2F7DB
:100D800082278BBB80E0089528B381E090E002C009
:100D9000880F991F6A95E2F7822788BB80E0089543
:100DA00025B381E090E002C0880F991F6A95E2F7B1
:100DB000822785BB80E0089522B381E090E002C0E5
:100DC000880F991F6A95E2F7822782BB80E0089519
:100DD00081E008958FB780688FBF08950E94EA066A
:100DE00085B7816085BF85B78D7F85BF8BB78064F0
:100DF0008BBF089583B78F7783BF83B78F7B83BF04
:100E000083B7877F83BF83B78F7E83BF83B78F7D91
:100E100083BF80E0089583B7816083BF83B78D7FF0
:100E200083BF83B78B7F83BF80E0089583B78E7FB6
:100E300083BF83B78D7F83BF83B78B7F83BF80E002
:100E400008950E94A9082FE632E143E05DE30E9485
:100E500008080E947A086093AB007093AC008093FE
:100E6000AD009093AE0012BE0E940B0740E050E030
:100E7000BA010AC008B600FEFDCF88B7816088BFFE
:100E80004F5F5F4F6F4F7F4F8091AB009091AC00F1
:100E9000A091AD00B091AE00481759076A077B07D3
:100EA00048F31092AB001092AC001092AD0010927B
:100EB000AE000E94160780E00895DC01CB01689423
:100EC00014F8B695A795979587951694D1F78093C2
:100ED000AB009093AC00A093AD00B093AE0012BEF7
:100EE0000E940B0740E050E0BA010AC008B600FEBD
:100EF000FDCF88B7816088BF4F5F5F4F6F4F7F4FD7
:100F00008091AB009091AC00A091AD00B091AE008B
:100F1000481759076A077B0748F30E94160780E0C5
:100F200008958FB58E7F8FBD8FB58D7F8FBD8EB5A8
:100F3000877F8EBD8EB58F7E8EBD8FB584608FBD51
:100F40008FB588608FBD8FB780688FBF89B79AB71C
:100F500084609ABF89BF08951DBC1CBC8EB581609A
:100F60008EBD8EB58D7F8EBD8EB58B7F8EBD80E0A4
:100F700008958EB58E7F8EBD8EB58D7F8EBD8EB55C
:100F80008B7F8EBD81E008952CB53DB5FC0131838A
:100F9000208308959DBD8CBD089585B58F7785BD4F
:100FA00085B58F7B85BD85B5877F85BD85B58F7EF2
:100FB00085BD85B58F7D85BD8FB780688FBF89B7AB
:100FC000806489BF80E0089585B5816085BD85B561
:100FD0008D7F85BD85B58B7F85BD80E0089585B506
:100FE0008E7F85BD85B58D7F85BD85B58B7F85BDA4
:100FF00080E00895BC0180E090E00E94A9082FE6FF
:1010000032E143E05DE30E9408080E947A080895F7
:101010000E941C080C94FD080E94F60858F00E94DB
:10102000EF0840F029F45F3F29F00C94E6085111D5
:101030000C9431090C94EC080E940E0968F3992372
:10104000B1F3552391F3951B550BBB27AA276217C4
:101050007307840738F09F5F5F4F220F331F441FD1
:10106000AA1FA9F335D00E2E3AF0E0E832D0915005
:101070005040E695001CCAF72BD0FE2F29D0660FF2
:10108000771F881FBB1F261737074807AB07B0E835
:1010900009F0BB0B802DBF01FF2793585F4F3AF03B
:1010A0009E3F510578F00C94E6080C9431095F3F9F
:1010B000E4F3983ED4F3869577956795B795F795C1
:1010C0009F5FC9F7880F911D9695879597F90895A9
:1010D000E1E0660F771F881FBB1F62177307840745
:1010E000BA0720F0621B730B840BBA0BEE1F88F754
:1010F000E09508950E94160988F09F5798F0B92F3F
:101100009927B751B0F0E1F0660F771F881F991F3C
:101110001AF0BA95C9F714C0B13091F00E943009A5
:10112000B1E008950C943009672F782F8827B85FB5
:1011300039F0B93FCCF3869577956795B395D9F794
:101140003EF490958095709561957F4F8F4F9F4F9E
:101150000895E89409C097FB3EF4909580957095AA
:1011600061957F4F8F4F9F4F9923A9F0F92F96E9F3
:10117000BB279395F695879577956795B795F11168
:10118000F8CFFAF4BB0F11F460FF1BC06F5F7F4F05
:101190008F4F9F4F16C0882311F096E911C0772317
:1011A00021F09EE8872F762F05C0662371F096E820
:1011B000862F70E060E02AF09A95660F771F881FEF
:1011C000DAF7880F9695879597F9089597F99F67AD
:1011D00080E870E060E008959FEF80EC08950024BF
:1011E0000A941616170618060906089500240A948C
:1011F00012161306140605060895092E0394000C12
:1012000011F4882352F0BB0F40F4BF2B11F460FFA0
:1012100004C06F5F7F4F8F4F9F4F089557FD9058C9
:10122000440F551F59F05F3F71F04795880F97FBAA
:10123000991F61F09F3F79F0879508951216130664
:101240001406551FF2CF4695F1DF08C01616170693
:101250001806991FF1CF86957105610508940895C8
:10126000E894BB2766277727CB0197F90895052EC9
:1012700097FB1EF400940E944E0957FD07D00E9470
:10128000650907FC03D04EF40C944E095095409527
:10129000309521953F4F4F4F5F4F08959095809522
:1012A000709561957F4F8F4F9F4F0895A29FB0011A
:1012B000B39FC001A39F700D811D1124911DB29F8A
:1012C000700D811D1124911D0895A1E21A2EAA1BF3
:1012D000BB1BFD010DC0AA1FBB1FEE1FFF1FA217E6
:1012E000B307E407F50720F0A21BB30BE40BF50BE3
:1012F000661F771F881F991F1A9469F7609570956C
:10130000809590959B01AC01BD01CF010895F894A3
:02131000FFCF0D
:10131200536574204465662E20526F74004C454616
:101322005420524F544154494F4E00524947485459
:1013320020524F544154494F4E0057616974696EAF
:0E134200670044697374616E6365203A200091
:00000001FF
