S01E00004F62737461636C652061766F6964616E6365206361722E73726563B9
S11300000C942A000C9401030C9447000C944700B0
S11300100C9447000C9456030C9447000C9447002E
S11300200C9447000C944C030C9447000C94470028
S11300300C9447000C9447000C9447000C94470020
S11300400C9447000C9447000C9447000C94470010
S11300500C94470011241FBECFE5D8E0DEBFCDBF0E
S113006010E0A0E6B0E0E4EDF6E102C005900D92E8
S1130070A63AB107D9F720E0A6EAB0E001C01D9284
S1130080A73BB207E1F70E944E070C94680B0C944F
S113009000000E94A0030E9437070E94DB080E9410
S11300A0AE090E94C1030E947B030E94EB0462E339
S11300B070E080E090E00E94020980E00E9429063E
S11300C081E00E94290682E00E94290683E00E94C2
S11300D0290680E00E94770681E00E94770682E08C
S11300E00E94770683E00E9477060895CF93DF93FA
S11300F000D0CDB7DEB719821A821092A6001092F2
S1130100A7001092A8001092A90088E893E10E9429
S1130110DB096093AA007093AB008093AC009093CA
S1130120AD000E94C50939C061E080E00E948605E7
S113013080E690E00E947305AE014F5F5F4F63E07D
S113014083E00E94810364E670E080E090E00E9416
S11301500209AE014F5F5F4F63E083E00E948103B9
S113016089818823D1F08091AE008F5F8093AE00A7
S1130170813041F461E00E9486058DE690E00E94A2
S113018073050AC0823041F461E081E00E94860573
S11301908BE790E00E94730519824091A60050916C
S11301A0A7006091A8007091A9008091AA00909185
S11301B0AB00A091AC00B091AD00481759076A0795
S11301C07B0708F4B1CF0E94D009CE0102960E94A9
S11301D0FF038A818133C9F781E00E94A20464E1AC
S11301E070E080E090E00E94020962E080E00E94FA
S11301F086058AE890E00E94730560ED77E080E070
S113020090E00E94020981E00E94A20464E170E08F
S113021080E090E00E94020961E080E00E9486058F
S113022084E990E00E94730568E080E00E948605FE
S113023083E50E942C058AE30E942C0561E081E09D
S11302400E94860589E990E00E9473050F900F9043
S1130250DF91CF9108951092A6001092A7001092FA
S1130260A8001092A9001092AA001092AB0010925C
S1130270AC001092AD000E943D0788E893E10E9413
S1130280DB096093AA007093AB008093AC00909359
S1130290AD009FC0AFE9B6E40E94370B880F892FE9
S11302A0881F990B91958093B2000E94C50938C0AC
S11302B080E00E94110781E00E94110782E00E9401
S11302C0110783E00E9411076AE080E00E9486051E
S11302D08EE990E00E94730560EF73E280E090E0A5
S11302E00E943E0980E00E94EB0681E00E94EB063A
S11302F082E00E94EB0683E00E94EB0665E080E06A
S11303000E9486056091B20070E080E090E00E9457
S11303109E0565E081E00E94860586E40E942C0526
S11303204091A6005091A7006091A8007091A90087
S11303308091AA009091AB00A091AC00B091AD0067
S1130340481759076A077B0740F48091B0009091E1
S1130350B100803B904808F0ABCF0E94D00980E008
S11303600E94110781E00E94110782E00E94110798
S113037083E00E9411076AE080E00E94860582EA19
S113038090E00E94730564E670E080E090E00E94D3
S11303903E0980E00E94EB0681E00E94EB0682E0C9
S11303A00E94EB0683E00E94EB0665E080E00E9479
S11303B086056091B20070E080E090E00E949E05A6
S11303C065E081E00E94860586E40E942C050E9477
S11303D03D072091B0003091B100203B80E8380700
S11303E008F058CF3AC080E00E94110781E00E94D3
S11303F0110782E00E94110783E00E9411076AE05E
S113040080E00E94860582EA90E00E94730564E61B
S113041070E080E090E00E943E0980E00E94EB06DC
S113042081E00E94EB0682E00E94EB0683E00E94DA
S1130430EB0665E080E00E9486056091B20070E002
S113044080E090E00E949E0565E081E00E948605C0
S113045086E40E942C050E943D078091B000909193
S1130460B1008036964308F0BECF1092A6001092D9
S1130470A7001092A8001092A90084EF91E00E94B6
S1130480DB096093AA007093AB008093AC00909357
S1130490AD0048C080E00E94EB0681E00E94EB06BC
S11304A082E00E94EB0683E00E94EB066AE080E0B3
S11304B00E94860582EA90E00E94730565E080E070
S11304C00E9486056091B20070E080E090E00E9496
S11304D09E0565E081E00E94860582E50E942C0568
S11304E00E94C50906C082E00E94110783E00E94B1
S11304F011074091A6005091A7006091A800709147
S1130500A9008091AA009091AB00A091AC00B09199
S1130510AD00481759076A077B0728F30E94D009E2
S11305200E943D078091B0009091B10080549442A4
S11305308032924108F4AECF5BC080E00E94B106E5
S113054081E00E94B10682E00E94B10683E00E942D
S1130550B1063AC080E00E94110781E00E941107B1
S113056082E00E94110783E00E9411076AE080E0A4
S11305700E94860582EA90E00E94730564E670E0BA
S113058080E090E00E943E0980E00E94EB0681E05A
S11305900E94EB0682E00E94EB0683E00E94EB06D9
S11305A065E080E00E9486056091B20070E080E022
S11305B090E00E949E0565E081E00E94860582E449
S11305C00E942C050E943D078091B0009091B100DB
S11305D08031964208F4BECF80E00E94770681E025
S11305E00E94770682E00E94770683E00E947706E5
S11305F08091B0009091B1008034944208F49DCF72
S113060008951F920F920FB60F9211242F933F93C8
S11306104F935F936F937F938F939F93AF93BF9306
S1130620EF93FF938091AF008F5F8093AF00813091
S113063019F40E94B8031FC08230E9F40E94BE037B
S11306400E94A6039093B1008093B00080E090E0F4
S11306500E94BB031092AF002091B0003091B10012
S1130660AFE9B6E40E94370B880F892F881F990BD6
S113067091958093B200FF91EF91BF91AF919F91BB
S11306808F917F916F915F914F913F912F910F9037
S11306900FBE0F901F9018951F920F920FB60F92D6
S11306A011240F900FBE0F901F9018951F920F9258
S11306B00FB60F9211248F939F93AF93BF938091A2
S11306C0A6009091A700A091A800B091A90001965E
S11306D0A11DB11D8093A6009093A700A093A8002C
S11306E0B093A900BF91AF919F918F910F900FBECE
S11306F00F901F90189540E063E083E00E94550737
S113070008950F931F93CF93DF931F92CDB7DEB756
S11307108A011982AE014F5F5F4F0E945308811115
S113072005C08981F801808381E004C08981F801D2
S1130730808380E00F90DF91CF911F910F910895F6
S11307400E9472090E94CF0880E00895CF93DF933E
S113075000D0CDB7DEB71A821982CE0101960E946D
S1130760A50989819A810F900F90DF91CF91089507
S11307700E948D0908950E94AB0908950E949A0968
S1130780089541E065E083E00E94550741E066E09A
S113079083E00E94550741E067E083E00E9455072B
S11307A040E060E083E00E94550740E061E083E0C0
S11307B00E94550740E064E083E00E94550741E051
S11307C065E083E00E94D40741E066E083E00E9494
S11307D0D40741E067E083E00E94D40741E060E091
S11307E083E00E94D40741E061E083E00E94D407E3
S11307F041E064E083E00E94D40780E00895EF9232
S1130800FF920F931F93CF93DF9300D000D000D0BB
S1130810CDB7DEB77C0185E0898386E08A8387E0F3
S11308208B831C8281E08D8384E08E8300E079C019
S1130830033039F440E060E083E00E94D40710E024
S113084062C0E1E0F0E0EC0FFD1FE00FF11D40E0BD
S1130850608183E00E94D407F2CFE4E0F0E0EC0F83
S1130860FD1FE10FF11DA701608183E00E94530881
S1130870F7018081811146C0011111C0111103C01B
S113088081E3808333C0113021F482E3F701808354
S11308902DC0123059F583E3F701808327C001305E
S11308A091F4111104C084E3F70180831FC0113057
S11308B021F485E3F701808319C01230B9F486E38B
S11308C0F701808313C0023089F4111104C087E357
S11308D0F70180830BC0113021F488E3F701808392
S11308E005C0123019F489E3F7018083E1E0F0E0F8
S11308F0EC0FFD1FE00FF11D608183E00E94910861
S113090080E013C01F5F133008F4A7CFE1E0F0E0EC
S1130910EC0FFD1FE00FF11D608183E00E94910840
S11309200F5F033008F484CF81E026960FB6F89465
S1130930DEBF0FBECDBFDF91CF911F910F91FF900E
S1130940EF900895CF93C82F0E94DB0840E061E048
S113095080E00E94D40740E062E080E00E94D40777
S113096040E063E080E00E94D4078BB39C2F907F2B
S11309708F70892B8BBB41E063E080E00E94D40739
S113098061E070E080E090E00E94020940E063E0F2
S113099080E00E94D40720E1C29FC00111249BB3D0
S11309A09F70892B8BBB41E063E080E00E94D407F9
S11309B061E070E080E090E00E94020940E063E0C2
S11309C080E00E94D40765E070E080E090E00E943F
S11309D00209CF9108950E94DB0841E061E080E0C4
S11309E00E94550741E062E080E00E94550741E023
S11309F063E080E00E94550741E064E080E00E94EB
S1130A00550741E065E080E00E94550741E066E05B
S1130A1080E00E94550741E067E080E00E945507AE
S1130A2064E170E080E090E00E94020983E30E94A8
S1130A30A20482E30E94A20488E20E94A2048CE041
S1130A400E94A20486E00E94A20482E00E94A20402
S1130A5081E00E94A2040895CF93C82F41E061E091
S1130A6080E00E94D40740E062E080E00E94D40766
S1130A7040E063E080E00E94D4078BB39C2F907F1A
S1130A808F70892B8BBB41E063E080E00E94D40728
S1130A9061E070E080E090E00E94020940E063E0E1
S1130AA080E00E94D40720E1C29FC00111249BB3BF
S1130AB09F70892B8BBB41E063E080E00E94D407E8
S1130AC061E070E080E090E00E94020940E063E0B1
S1130AD080E00E94D40765E070E080E090E00E942E
S1130AE00209CF9108950F931F93CF938C01C0E017
S1130AF003C00E942C05CF5FF801EC0FF11D80812B
S1130B008111F7CFCF911F910F910895CF93DF9368
S1130B1000D0CDB7DEB790E8998390EC9A83E1E0FA
S1130B20F0E0EC0FFD1FE80FF11D8081860F0E949D
S1130B30A2040F900F90DF91CF9108951F93CF934C
S1130B40DF93CDB7DEB72A970FB6F894DEBF0FBE9A
S1130B50CDBF9923DCF590958095709561957F4F75
S1130B608F4F9F4F10E013C02AE030E040E050E088
S1130B700E94180BE1E0F0E0EC0FFD1FE10FF11D06
S1130B80605D6083622F732F842F952F1F5F16166D
S1130B9017061806190644F3E1E0F0E0EC0FFD1F18
S1130BA0E10FF11D8DE280831F5F0DC0E12FF0E0A6
S1130BB0319781E090E08C0F9D1FE80FF91F808131
S1130BC00E942C0511501111F1CF39C06115710526
S1130BD08105910521F480E30E942C0530C016168E
S1130BE0170618061906ACF02AC02AE030E040E0E7
S1130BF050E00E94180BE1E0F0E0EC0FFD1FE10F64
S1130C00F11D605D6083622F732F842F952F1F5F0A
S1130C1001C010E0161617061806190634F30DC0A5
S1130C20E12FF0E0319781E090E08C0F9D1FE80FF9
S1130C30F91F80810E942C0511501111F1CF2A96C1
S1130C400FB6F894DEBF0FBECDBFDF91CF911F91D9
S1130C5008958130B9F028F0823029F18330A1F170
S1130C6044C041E060E081E00E94550741E061E05A
S1130C7081E00E94550741E062E081E00E9455074F
S1130C8080E0089541E063E081E00E94550741E07F
S1130C9064E081E00E94550741E065E081E00E9444
S1130CA0550780E0089541E060E082E00E94550726
S1130CB041E061E082E00E94550741E062E082E0A9
S1130CC00E94550780E0089541E063E082E00E94BD
S1130CD0550741E064E082E00E94550741E065E089
S1130CE082E00E94550780E0089581E008958130F4
S1130CF091F028F08230D9F0833029F130C041E0FE
S1130D0060E081E00E94D40740E061E081E00E945D
S1130D10D40780E0089541E063E081E00E94D407B5
S1130D2040E064E081E00E94D40780E0089541E05F
S1130D3060E082E00E94D40740E061E082E00E942B
S1130D40D40780E0089541E063E082E00E94D40784
S1130D5040E064E082E00E94D40780E0089581E0EE
S1130D600895813091F028F08230D9F0833029F150
S1130D7030C040E060E081E00E94D40741E061E0DF
S1130D8081E00E94D40780E0089540E063E081E0C0
S1130D900E94D40741E064E081E00E94D40780E02F
S1130DA0089540E060E082E00E94D40741E061E001
S1130DB082E00E94D40780E0089540E063E082E08E
S1130DC00E94D40741E064E082E00E94D40780E0FE
S1130DD0089581E00895813069F028F0823089F027
S1130DE08330B1F01CC040E062E081E00E94D4078F
S1130DF080E0089540E065E081E00E94D40780E04F
S1130E00089540E062E082E00E94D40780E0089503
S1130E1040E065E082E00E94D40780E0089581E02C
S1130E200895813069F028F0823089F08330B1F080
S1130E301CC041E062E081E00E94D40780E0089594
S1130E4041E065E081E00E94D40780E0089541E03C
S1130E5062E082E00E94D40780E0089541E065E00A
S1130E6082E00E94D40780E0089581E0089541E083
S1130E7060E080E00E945507089541E060E080E072
S1130E800E94D4076FE070E080E090E00E943E0989
S1130E9040E060E080E00E94D40708950E94490089
S1130EA00E9476000E942B01FDCF442319F04130AB
S1130EB0E9F174C0813099F028F08230E9F0833090
S1130EC041F16EC02AB381E090E002C0880F991FFF
S1130ED06A95E2F7809582238ABB80E0089527B360
S1130EE081E090E002C0880F991F6A95E2F780952F
S1130EF0822387BB80E0089524B381E090E002C0A0
S1130F00880F991F6A95E2F78095822384BB80E05D
S1130F10089521B381E090E002C0880F991F6A957B
S1130F20E2F78095822381BB80E00895813091F0BF
S1130F3028F08230D9F0833029F134C02AB381E01B
S1130F4090E002C0880F991F6A95E2F7822B8ABB52
S1130F5080E0089527B381E090E002C0880F991FD4
S1130F606A95E2F7822B87BB80E0089524B381E081
S1130F7090E002C0880F991F6A95E2F7822B84BB28
S1130F8080E0089521B381E090E002C0880F991FAA
S1130F906A95E2F7822B81BB80E0089581E0089591
S1130FA081E0089581E00895442319F04130E9F186
S1130FB074C0813099F028F08230E9F0833041F137
S1130FC06EC02BB381E090E002C0880F991F6A9530
S1130FD0E2F7809582238BBB80E0089528B381E0FB
S1130FE090E002C0880F991F6A95E2F780958223EA
S1130FF088BB80E0089525B381E090E002C0880FAB
S1131000991F6A95E2F78095822385BB80E0089555
S113101022B381E090E002C0880F991F6A95E2F73D
S11310208095822382BB80E00895813091F028F07E
S11310308230D9F0833029F134C02BB381E090E0C1
S113104002C0880F991F6A95E2F7822B8BBB80E060
S1131050089528B381E090E002C0880F991F6A9533
S1131060E2F7822B88BB80E0089525B381E090E00D
S113107002C0880F991F6A95E2F7822B85BB80E036
S1131080089522B381E090E002C0880F991F6A9509
S1131090E2F7822B82BB80E0089581E0089581E02D
S11310A0089581E00895813099F028F08230E9F0C4
S11310B0833041F134C089B390E002C0959587959F
S11310C06A95E2F7817089BBFA01808380E0089514
S11310D086B390E002C0959587956A95E2F7817092
S11310E086BBFA01808380E0089583B390E002C058
S11310F0959587956A95E2F7817083BBFA018083A1
S113110080E0089580B390E002C0959587956A9534
S1131110E2F7817080BBFA01808380E0089581E06A
S11311200895813091F028F08230D9F0833029F18C
S113113030C02BB381E090E002C0880F991F6A95FC
S1131140E2F782278BBB80E0089528B381E090E02A
S113115002C0880F991F6A95E2F7822788BB80E056
S1131160089525B381E090E002C0880F991F6A9525
S1131170E2F7822785BB80E0089522B381E090E006
S113118002C0880F991F6A95E2F7822782BB80E02C
S1131190089581E008958FB780688FBF08950E94F5
S11311A0CB0885B7816085BF85B78D7F85BF8BB739
S11311B080648BBF089583B78F7783BF83B78F7B9A
S11311C083BF83B7877F83BF83B78F7E83BF83B794
S11311D08F7D83BF80E0089583B7816083BF83B729
S11311E08D7F83BF83B78B7F83BF80E0089583B7F0
S11311F08E7F83BF83B78D7F83BF83B78B7F83BF8E
S113120080E008950E948A0A2FE632E143E05DE31C
S11312100E94E9090E945B0A6093B3007093B400D2
S11312208093B5009093B60012BE0E94EC0840E093
S113123050E0BA010AC008B600FEFDCF88B781604D
S113124088BF4F5F5F4F6F4F7F4F8091B300909186
S1131250B400A091B500B091B600481759076A07C9
S11312607B0748F31092B3001092B4001092B500BB
S11312701092B6000E94F70880E00895DC01CB01CB
S1131280689414F8B695A795979587951694D1F711
S11312908093B3009093B400A093B500B093B600CC
S11312A012BE0E94EC0840E050E0BA010AC008B641
S11312B000FEFDCF88B7816088BF4F5F5F4F6F4FDF
S11312C07F4F8091B3009091B400A091B500B0918C
S11312D0B600481759076A077B0748F30E94F708C6
S11312E080E008958FB58E7F8FBD8FB58D7F8FBDC4
S11312F08EB5877F8EBD8EB58F7E8EBD8FB5846093
S11313008FBD8FB588608FBD8FB780688FBF89B759
S11313109AB784609ABF89BF08951DBC1CBC8EB562
S113132081608EBD8EB58D7F8EBD8EB58B7F8EBD5B
S113133080E008958EB58E7F8EBD8EB58D7F8EBD77
S11313408EB58B7F8EBD81E008952CB53DB5FC0133
S11313503183208308959DBD8CBD089585B58F7715
S113136085BD85B58F7B85BD85B5877F85BD85B5F5
S11313708F7E85BD85B58F7D85BD8FB780688FBF16
S113138089B7806489BF80E0089585B5816085BD93
S113139085B58D7F85BD85B58B7F85BD80E008953E
S11313A085B58E7F85BD85B58D7F85BD85B58B7FE4
S11313B085BD80E00895BC0180E090E00E948A0A27
S11313C02FE632E143E05DE30E94E9090E945B0AF3
S11313D008950E94FD090C94DE0A0E94D70A58F071
S11313E00E94D00A40F029F45F3F29F00C94C70A08
S11313F051110C94120B0C94CD0A0E94EF0A68F35D
S11314009923B1F3552391F3951B550BBB27AA27B9
S113141062177307840738F09F5F5F4F220F331FF3
S1131420441FAA1FA9F335D00E2E3AF0E0E832D0BB
S113143091505040E695001CCAF72BD0FE2F29D0BE
S1131440660F771F881FBB1F261737074807AB0790
S1131450B0E809F0BB0B802DBF01FF2793585F4F05
S11314603AF09E3F510578F00C94C70A0C94120B85
S11314705F3FE4F3983ED4F3869577956795B795E7
S1131480F7959F5FC9F7880F911D9695879597F9F2
S11314900895E1E0660F771F881FBB1F621773076B
S11314A08407BA0720F0621B730B840BBA0BEE1F80
S11314B088F7E09508950E94F70A88F09F5798F0FE
S11314C0B92F9927B751B0F0E1F0660F771F881F45
S11314D0991F1AF0BA95C9F714C0B13091F00E945F
S11314E0110BB1E008950C94110B672F782F882706
S11314F0B85F39F0B93FCCF3869577956795B39586
S1131500D9F73EF490958095709561957F4F8F4FF4
S11315109F4F0895E89409C097FB3EF490958095F9
S1131520709561957F4F8F4F9F4F9923A9F0F92FA5
S113153096E9BB279395F695879577956795B79523
S1131540F111F8CFFAF4BB0F11F460FF1BC06F5F09
S11315507F4F8F4F9F4F16C0882311F096E911C01B
S1131560772321F09EE8872F762F05C0662371F03C
S113157096E8862F70E060E02AF09A95660F771F50
S1131580881FDAF7880F9695879597F9089597F944
S11315909F6780E870E060E008959FEF80EC089515
S11315A000240A941616170618060906089500243E
S11315B00A9412161306140605060895092E0394B8
S11315C0000C11F4882352F0BB0F40F4BF2B11F42C
S11315D060FF04C06F5F7F4F8F4F9F4F089557FD8B
S11315E09058440F551F59F05F3F71F04795880F8D
S11315F097FB991F61F09F3F79F087950895121624
S113160013061406551FF2CF4695F1DF08C01616CF
S113161017061806991FF1CF869571056105089480
S11316200895E894BB2766277727CB0197F9089597
S1131630052E97FB1EF400940E942F0B57FD07D034
S11316400E94460B07FC03D04EF40C942F0B5095CC
S11316504095309521953F4F4F4F5F4F089590959A
S11316608095709561957F4F8F4F9F4F0895A29FEE
S1131670B001B39FC001A39F700D811D1124911D62
S1131680B29F700D811D1124911D0895A1E21A2E9F
S1131690AA1BBB1BFD010DC0AA1FBB1FEE1FFF1F12
S11316A0A217B307E407F50720F0A21BB30BE40B62
S11316B0F50B661F771F881F991F1A9469F76095A9
S11316C07095809590959B01AC01BD01CF01089563
S10716D0F894FFCFB8
S11316D4536574204465662E20526F74004C45464D
S11316E45420524F544154494F4E00524947485490
S11316F420524F544154494F4E0057414954494E86
S1131704472E2E004469733A004469723A00353016
S10917142500333025001E
S9030000FC
