S01E00004F62737461636C652061766F6964616E6365206361722E73726563B9
S11300000C942A000C94A0020C9447000C94470012
S11300100C9447000C94E6020C9447000C9447009F
S11300200C9447000C94DC020C9447000C94470099
S11300300C9447000C9447000C9447000C94470020
S11300400C9447000C9447000C9447000C94470010
S11300500C94470011241FBECFE5D8E0DEBFCDBF0E
S113006010E0A0E6B0E0ECE5F4E102C005900D92EA
S1130070A239B107D9F720E0A2E9B0E001C01D928E
S1130080A33AB207E1F70E9453060C942C0A0C948D
S113009000000E9430030E943C060E94E0070E9478
S11300A0B3080E9451030E940B030E947B0462E385
S11300B070E080E090E00E94070880E00E942E0536
S11300C081E00E942E0582E00E942E0583E00E94BA
S11300D02E0580E00E947C0581E00E947C0582E080
S11300E00E947C0583E00E947C050895CF93DF93F2
S11300F000D0CDB7DEB719821A8210929200109206
S11301009300109294001092950088E893E10E9465
S1130110E008609396007093970080939800909302
S113012099000E94CA0839C061E080E00E94160567
S113013080E690E00E940305AE014F5F5F4F63E0ED
S113014083E00E94110364E670E080E090E00E9486
S11301500708AE014F5F5F4F63E083E00E94110325
S113016089818823D1F080919A008F5F80939A00CF
S1130170813041F461E00E9416058DE690E00E9412
S113018003050AC0823041F461E081E00E94160553
S11301908BE790E00E9403051982409192005091F0
S11301A093006091940070919500809196009091D5
S11301B09700A0919800B0919900481759076A07D1
S11301C07B0708F4B1CF0E94D508CE0102960E94A5
S11301D08F038A818133C9F781E00E94320464E18C
S11301E070E080E090E00E9407088AE890E00E94B6
S11301F0030560ED77E080E090E00E94070881E06D
S11302000E94320464E170E080E090E00E940708FC
S11302100F900F90DF91CF91089510929200109259
S113022093001092940010929500109296001092F0
S1130230970010929800109299000E944206209113
S11302409C0030919D00AFE9B6E40E941D0A880F1E
S1130250892F881F990B919580939E006EC088E822
S113026093E10E94E0086093960070939700809356
S11302709800909399000E94CA0824C080E00E94CC
S1130280160681E00E94160682E00E94160683E0AC
S11302900E94160660E87CE080E090E00E9443083B
S11302A080E00E94F00581E00E94F00582E00E9457
S11302B0F00583E00E94F0056CEF78E080E090E0C8
S11302C00E944308409192005091930060919400E1
S11302D0709195008091960090919700A09198005C
S11302E0B0919900481759076A077B0738F280E0F4
S11302F00E94160681E00E94160682E00E941606FD
S113030083E00E94160660E877E080E090E00E94B7
S1130310430880E00E94F00581E00E94F00582E03D
S11303200E94F00583E00E94F00560E871E180E03E
S113033090E00E9443080E94420680919C009091A4
S11303409D00803B904808F08ACF0E94D50826C0C3
S113035080E00E94160681E00E94160682E00E9458
S1130360160683E00E94160660E877E080E090E0DD
S11303700E94430880E00E94F00581E00E94F0059D
S113038082E00E94F00583E00E94F00560E871E1DC
S113039080E090E00E9443080E94420680919C0005
S11303A090919D008036964398F610929200109298
S11303B09300109294001092950084EF91E00E94B3
S11303C0E008609396007093970080939800909350
S11303D099000E94CA082AC080E00E94F00581E0CA
S11303E00E94F00582E00E94F00583E00E94F0057F
S11303F006C082E00E94160683E00E941606409121
S113040092005091930060919400709195008091B6
S1130410960090919700A0919800B0919900481788
S113042059076A077B0728F30E94420680919C00C3
S113043090919D008034944278F60E94D50877C04C
S113044080E00E94B60581E00E94B60582E00E9429
S1130450B60583E00E94B60580E00E94160681E09E
S11304600E94160682E00E94160683E00E94160689
S113047060E877E080E090E00E94430880E00E941A
S1130480F00581E00E94F00582E00E94F00583E01F
S11304900E94F00560E871E180E090E00E9443086A
S11304A080919C0090919D0080319642A8F680E056
S11304B00E94F00581E00E94F00582E00E94F005B0
S11304C083E00E94F0051092920010929300109223
S11304D094001092950084EF91E00E94E0086093EC
S11304E096007093970080939800909399000E94CF
S11304F0CA0806C082E00E94160683E00E9416061F
S113050040919200509193006091940070919500F5
S11305108091960090919700A0919800B0919900D5
S1130520481759076A077B0728F30E9442068091FF
S11305309C0090919D008034944208F481CF0895EA
S11305401F920F920FB60F9211242F933F934F9344
S11305505F936F937F938F939F93AF93BF93EF9327
S1130560FF9380919B008F5F80939B00813019F4EF
S11305700E94480310C0823071F40E944E030E940E
S1130580360390939D0080939C0080E090E00E944D
S11305904B0310929B00FF91EF91BF91AF919F91FC
S11305A08F917F916F915F914F913F912F910F9018
S11305B00FBE0F901F9018951F920F920FB60F92B7
S11305C011240F900FBE0F901F9018951F920F9239
S11305D00FB60F9211248F939F93AF93BF93809183
S11305E0920090919300A0919400B091950001968F
S11305F0A11DB11D8093920090939300A093940049
S1130600B0939500BF91AF919F918F910F900FBEC2
S11306100F901F90189540E063E083E00E945A0613
S113062008950F931F93CF93DF931F92CDB7DEB737
S11306308A011982AE014F5F5F4F0E9458078111F2
S113064005C08981F801808381E004C08981F801B3
S1130650808380E00F90DF91CF911F910F910895D7
S11306600E9477080E94D40780E00895CF93DF9317
S113067000D0CDB7DEB71A821982CE0101960E944E
S1130680AA0889819A810F900F90DF91CF910895E4
S11306900E94920808950E94B00808950E949F083D
S11306A0089541E065E083E00E945A0641E066E077
S11306B083E00E945A0641E067E083E00E945A0604
S11306C040E060E083E00E945A0640E061E083E09D
S11306D00E945A0640E064E083E00E945A0641E02A
S11306E065E083E00E94D90641E066E083E00E9471
S11306F0D90641E067E083E00E94D90641E060E06A
S113070083E00E94D90641E061E083E00E94D906BB
S113071041E064E083E00E94D90680E00895EF920E
S1130720FF920F931F93CF93DF9300D000D000D09C
S1130730CDB7DEB77C0185E0898386E08A8387E0D4
S11307408B831C8281E08D8384E08E8300E079C0FA
S1130750033039F440E060E083E00E94D90610E001
S113076062C0E1E0F0E0EC0FFD1FE00FF11D40E09E
S1130770608183E00E94D906F2CFE4E0F0E0EC0F60
S1130780FD1FE10FF11DA701608183E00E9458075E
S1130790F7018081811146C0011111C0111103C0FC
S11307A081E3808333C0113021F482E3F701808335
S11307B02DC0123059F583E3F701808327C001303F
S11307C091F4111104C084E3F70180831FC0113038
S11307D021F485E3F701808319C01230B9F486E36C
S11307E0F701808313C0023089F4111104C087E338
S11307F0F70180830BC0113021F488E3F701808373
S113080005C0123019F489E3F7018083E1E0F0E0D8
S1130810EC0FFD1FE00FF11D608183E00E9496073D
S113082080E013C01F5F133008F4A7CFE1E0F0E0CD
S1130830EC0FFD1FE00FF11D608183E00E9496071D
S11308400F5F033008F484CF81E026960FB6F89446
S1130850DEBF0FBECDBFDF91CF911F910F91FF90EF
S1130860EF900895CF93C82F0E94E00740E061E025
S113087080E00E94D90640E062E080E00E94D90650
S113088040E063E080E00E94D9068BB39C2F907F08
S11308908F70892B8BBB41E063E080E00E94D90616
S11308A061E070E080E090E00E94070840E063E0CF
S11308B080E00E94D90620E1C29FC00111249BB3AD
S11308C09F70892B8BBB41E063E080E00E94D906D6
S11308D061E070E080E090E00E94070840E063E09F
S11308E080E00E94D90665E070E080E090E00E941C
S11308F00708CF9108950E94E00741E061E080E09D
S11309000E945A0641E062E080E00E945A0641E0FB
S113091063E080E00E945A0641E064E080E00E94C7
S11309205A0641E065E080E00E945A0641E066E034
S113093080E00E945A0641E067E080E00E945A0687
S113094064E170E080E090E00E94070883E30E9485
S1130950320482E30E94320488E20E9432048CE072
S11309600E94320486E00E94320482E00E94320433
S113097081E00E9432040895CF93C82F41E061E0E2
S113098080E00E94D90640E062E080E00E94D9063F
S113099040E063E080E00E94D9068BB39C2F907FF7
S11309A08F70892B8BBB41E063E080E00E94D90605
S11309B061E070E080E090E00E94070840E063E0BE
S11309C080E00E94D90620E1C29FC00111249BB39C
S11309D09F70892B8BBB41E063E080E00E94D906C5
S11309E061E070E080E090E00E94070840E063E08E
S11309F080E00E94D90665E070E080E090E00E940B
S1130A000708CF9108950F931F93CF938C01C0E0F3
S1130A1003C00E94BC04CF5FF801EC0FF11D80817C
S1130A208111F7CFCF911F910F910895CF93DF9349
S1130A3000D0CDB7DEB790E8998390EC9A83E1E0DB
S1130A40F0E0EC0FFD1FE80FF11D8081860F0E947E
S1130A5032040F900F90DF91CF9108958130B9F057
S1130A6028F0823029F18330A1F144C041E060E0F4
S1130A7081E00E945A0641E061E081E00E945A064A
S1130A8041E062E081E00E945A0680E0089541E07E
S1130A9063E081E00E945A0641E064E081E00E9444
S1130AA05A0641E065E081E00E945A0680E008951C
S1130AB041E060E082E00E945A0641E061E082E0A9
S1130AC00E945A0641E062E082E00E945A0680E0F9
S1130AD0089541E063E082E00E945A0641E064E048
S1130AE082E00E945A0641E065E082E00E945A06D4
S1130AF080E0089581E00895813091F028F08230FB
S1130B00D9F0833029F130C041E060E081E00E94F7
S1130B10D90640E061E081E00E94D90680E00895B2
S1130B2041E063E081E00E94D90640E064E081E0B6
S1130B300E94D90680E0089541E060E082E00E94CE
S1130B40D90640E061E082E00E94D90680E0089581
S1130B5041E063E082E00E94D90640E064E082E084
S1130B600E94D90680E0089581E00895813091F0D3
S1130B7028F08230D9F0833029F130C040E060E0C1
S1130B8081E00E94D90641E061E081E00E94D9063B
S1130B9080E0089540E063E081E00E94D90641E0EE
S1130BA064E081E00E94D90680E0089540E060E0BE
S1130BB082E00E94D90641E061E082E00E94D90609
S1130BC080E0089540E063E082E00E94D90641E0BD
S1130BD064E082E00E94D90680E0089581E00895EF
S1130BE0813069F028F0823089F08330B1F01CC084
S1130BF040E062E081E00E94D90680E0089540E090
S1130C0065E081E00E94D90680E0089540E062E05A
S1130C1082E00E94D90680E0089540E065E082E029
S1130C200E94D90680E0089581E00895813069F03A
S1130C3028F0823089F08330B1F01CC041E062E0DA
S1130C4081E00E94D90680E0089541E065E081E0FA
S1130C500E94D90680E0089541E062E082E00E94AB
S1130C60D90680E0089541E065E082E00E94D9065B
S1130C7080E0089581E0089541E060E080E00E9412
S1130C805A06089541E060E080E00E94D9066FE0D2
S1130C9070E080E090E00E94430840E060E080E083
S1130CA00E94D90608950E9449000E9476000E947D
S1130CB00D01FDCF442319F04130E9F174C08130B6
S1130CC099F028F08230E9F0833041F16EC02AB304
S1130CD081E090E002C0880F991F6A95E2F7809541
S1130CE082238ABB80E0089527B381E090E002C0AC
S1130CF0880F991F6A95E2F78095822387BB80E06D
S1130D00089524B381E090E002C0880F991F6A958A
S1130D10E2F78095822384BB80E0089521B381E0CB
S1130D2090E002C0880F991F6A95E2F780958223AC
S1130D3081BB80E00895813091F028F08230D9F0B1
S1130D40833029F134C02AB381E090E002C0880FD7
S1130D50991F6A95E2F7822B8ABB80E0089527B336
S1130D6081E090E002C0880F991F6A95E2F7822B18
S1130D7087BB80E0089524B381E090E002C0880F2F
S1130D80991F6A95E2F7822B84BB80E0089521B312
S1130D9081E090E002C0880F991F6A95E2F7822BE8
S1130DA081BB80E0089581E0089581E0089581E0A9
S1130DB00895442319F04130E9F174C0813099F069
S1130DC028F08230E9F0833041F16EC02BB381E02A
S1130DD090E002C0880F991F6A95E2F780958223FC
S1130DE08BBB80E0089528B381E090E002C0880FB7
S1130DF0991F6A95E2F78095822388BB80E0089565
S1130E0025B381E090E002C0880F991F6A95E2F74C
S1130E108095822385BB80E0089522B381E090E031
S1130E2002C0880F991F6A95E2F78095822382BBDE
S1130E3080E00895813091F028F08230D9F0833039
S1130E4029F134C02BB381E090E002C0880F991FD0
S1130E506A95E2F7822B8BBB80E0089528B381E08A
S1130E6090E002C0880F991F6A95E2F7822B88BB35
S1130E7080E0089525B381E090E002C0880F991FB7
S1130E806A95E2F7822B85BB80E0089522B381E066
S1130E9090E002C0880F991F6A95E2F7822B82BB0B
S1130EA080E0089581E0089581E0089581E0089547
S1130EB0813099F028F08230E9F0833041F134C078
S1130EC089B390E002C0959587956A95E2F78170A1
S1130ED089BBFA01808380E0089586B390E002C064
S1130EE0959587956A95E2F7817086BBFA018083B0
S1130EF080E0089583B390E002C0959587956A9544
S1130F00E2F7817083BBFA01808380E0089580B3A7
S1130F1090E002C0959587956A95E2F7817080BB51
S1130F20FA01808380E0089581E00895813091F092
S1130F3028F08230D9F0833029F130C02BB381E01E
S1130F4090E002C0880F991F6A95E2F782278BBB55
S1130F5080E0089528B381E090E002C0880F991FD3
S1130F606A95E2F7822788BB80E0089525B381E083
S1130F7090E002C0880F991F6A95E2F7822785BB2B
S1130F8080E0089522B381E090E002C0880F991FA9
S1130F906A95E2F7822782BB80E0089581E0089594
S1130FA08FB780688FBF08950E94D00785B781608E
S1130FB085BF85B78D7F85BF8BB780648BBF089550
S1130FC083B78F7783BF83B78F7B83BF83B7877FD5
S1130FD083BF83B78F7E83BF83B78F7D83BF80E05A
S1130FE0089583B7816083BF83B78D7F83BF83B741
S1130FF08B7F83BF80E0089583B78E7F83BF83B7E1
S11310008D7F83BF83B78B7F83BF80E008950E9469
S11310108F092FE632E143E05DE30E94EE080E946F
S1131020600960939F007093A0008093A100909347
S1131030A20012BE0E94F10740E050E0BA010AC0CB
S113104008B600FEFDCF88B7816088BF4F5F5F4F51
S11310506F4F7F4F80919F009091A000A091A100BD
S1131060B091A200481759076A077B0748F310920A
S11310709F001092A0001092A1001092A2000E9462
S1131080FC0780E00895DC01CB01689414F8B69560
S1131090A795979587951694D1F780939F00909381
S11310A0A000A093A100B093A20012BE0E94F10779
S11310B040E050E0BA010AC008B600FEFDCF88B790
S11310C0816088BF4F5F5F4F6F4F7F4F80919F005C
S11310D09091A000A091A100B091A20048175907D7
S11310E06A077B0748F30E94FC0780E008958FB5E8
S11310F08E7F8FBD8FB58D7F8FBD8EB5877F8EBD63
S11311008EB58F7E8EBD8FB584608FBD8FB58860A0
S11311108FBD8FB780688FBF89B79AB784609ABF35
S113112089BF08951DBC1CBC8EB581608EBD8EB573
S11311308D7F8EBD8EB58B7F8EBD80E008958EB57C
S11311408E7F8EBD8EB58D7F8EBD8EB58B7F8EBD11
S113115081E008952CB53DB5FC01318320830895C9
S11311609DBD8CBD089585B58F7785BD85B58F7B75
S113117085BD85B5877F85BD85B58F7E85BD85B5E4
S11311808F7D85BD8FB780688FBF89B7806489BF25
S113119080E0089585B5816085BD85B58D7F85BD69
S11311A085B58B7F85BD80E0089585B58E7F85BD2F
S11311B085B58D7F85BD85B58B7F85BD80E0089520
S11311C0BC0180E090E00E948F092FE632E143E009
S11311D05DE30E94EE080E94600908950E940209DE
S11311E00C94E3090E94DC0958F00E94D50940F0F0
S11311F029F45F3F29F00C94CC0951110C94170A7F
S11312000C94D2090E94F40968F39923B1F355238D
S113121091F3951B550BBB27AA2762177307840705
S113122038F09F5F5F4F220F331F441FAA1FA9F39B
S113123035D00E2E3AF0E0E832D091505040E69589
S1131240001CCAF72BD0FE2F29D0660F771F881FEA
S1131250BB1F261737074807AB07B0E809F0BB0BDD
S1131260802DBF01FF2793585F4F3AF09E3F5105F1
S113127078F00C94CC090C94170A5F3FE4F3983E81
S1131280D4F3869577956795B795F7959F5FC9F7DA
S1131290880F911D9695879597F90895E1E0660F5B
S11312A0771F881FBB1F621773078407BA0720F0D4
S11312B0621B730B840BBA0BEE1F88F7E09508953D
S11312C00E94FC0988F09F5798F0B92F9927B751CD
S11312D0B0F0E1F0660F771F881F991F1AF0BA95D6
S11312E0C9F714C0B13091F00E94160AB1E0089514
S11312F00C94160A672F782F8827B85F39F0B93F06
S1131300CCF3869577956795B395D9F73EF4909588
S11313108095709561957F4F8F4F9F4F0895E89406
S113132009C097FB3EF490958095709561957F4F29
S11313308F4F9F4F9923A9F0F92F96E9BB279395D7
S1131340F695879577956795B795F111F8CFFAF4E7
S1131350BB0F11F460FF1BC06F5F7F4F8F4F9F4F18
S113136016C0882311F096E911C0772321F09EE876
S1131370872F762F05C0662371F096E8862F70E0DC
S113138060E02AF09A95660F771F881FDAF7880FB6
S11313909695879597F9089597F99F6780E870E087
S11313A060E008959FEF80EC089500240A941616D7
S11313B0170618060906089500240A94121613063F
S11313C0140605060895092E0394000C11F48823CD
S11313D052F0BB0F40F4BF2B11F460FF04C06F5FE9
S11313E07F4F8F4F9F4F089557FD9058440F551FBF
S11313F059F05F3F71F04795880F97FB991F61F093
S11314009F3F79F087950895121613061406551F09
S1131410F2CF4695F1DF08C0161617061806991F75
S1131420F1CF86957105610508940895E894BB276A
S113143066277727CB0197F90895A29FB001B39F40
S1131440C001A39F700D811D1124911DB29F700DC9
S10F1450811D1124911D0895F894FFCF14
S113145C536574204465662E20526F74004C4546C7
S113146C5420524F544154494F4E0052494748540A
S113147C20524F544154494F4E0057616974696E60
S105148C6700F3
S9030000FC
