:100000000C942A000C94F0020C9447000C944700C6
:100010000C9447000C9445030C9447000C94470043
:100020000C9447000C943B030C9447000C9447003D
:100030000C9447000C9447000C9447000C94470024
:100040000C9447000C9447000C9447000C94470014
:100050000C94470011241FBECFE5D8E0DEBFCDBF12
:1000600010E0A0E6B0E0E2EBF6E102C005900D92F0
:10007000A63AB107D9F720E0A6EAB0E001C01D9288
:10008000A73BB207E1F70E943D070C94570B0C9475
:1000900000000E948F030E9426070E94CA080E9447
:1000A0009D090E94B0030E946A030E94DA0462E381
:1000B00070E080E090E00E94F10880E00E94180665
:1000C00081E00E94180682E00E94180683E00E94E8
:1000D000180680E00E94660681E00E94660682E0C3
:1000E0000E94660683E00E9466060895CF93DF9320
:1000F00000D0CDB7DEB719821A821092A6001092F6
:10010000A7001092A8001092A90088E893E10E942D
:10011000CA096093AA007093AB008093AC009093DF
:10012000AD000E94B40939C061E080E00E9475050D
:1001300080E690E00E946205AE014F5F5F4F63E092
:1001400083E00E94700364E670E080E090E00E942B
:10015000F108AE014F5F5F4F63E083E00E947003E0
:1001600089818823D1F08091AE008F5F8093AE00AB
:10017000813041F461E00E9475058DE690E00E94B7
:1001800062050AC0823041F461E081E00E94750599
:100190008BE790E00E94620519824091A600509181
:1001A000A7006091A8007091A9008091AA00909189
:1001B000AB00A091AC00B091AD00481759076A0799
:1001C0007B0708F4B1CF0E94BF09CE0102960E94BE
:1001D000EE038A818133C9F781E00E94910464E1D2
:1001E00070E080E090E00E94F10862E080E00E9410
:1001F00075058AE890E00E94620560ED77E080E096
:1002000090E00E94F10881E00E94910464E170E0B6
:1002100080E090E00E94F10861E080E00E947505B6
:1002200084E990E00E94620568E080E00E94750524
:1002300083E50E941B058AE30E941B0561E081E0C3
:100240000E94750589E990E00E9462050F900F9069
:10025000DF91CF9108951092A6001092A7001092FE
:10026000A8001092A9001092AA001092AB00109260
:10027000AC001092AD000E942C0788E893E10E9428
:10028000CA096093AA007093AB008093AC0090936E
:10029000AD009FC0AFE9B6E40E94260B880F892FFE
:1002A000881F990B91958093B2000E94B40938C0C1
:1002B00080E00E94000781E00E94000782E00E9427
:1002C000000783E00E9400076AE080E00E94750555
:1002D0008EE990E00E94620560EE74EC80E090E0B0
:1002E0000E942D0980E00E94DA0681E00E94DA0671
:1002F00082E00E94DA0683E00E94DA0665E080E090
:100300000E9475056091B20070E080E090E00E946C
:100310008D0565E081E00E94750586E40E941B055D
:100320004091A6005091A7006091A8007091A9008B
:100330008091AA009091AB00A091AC00B091AD006B
:10034000481759076A077B0740F48091B0009091E5
:10035000B100803B904808F0ABCF0E94BF0980E01D
:100360000E94000781E00E94000782E00E940007CF
:1003700083E00E9400076AE080E00E94750582EA3F
:1003800090E00E94620560E570E580E090E00E94E8
:100390002D0980E00E94DA0681E00E94DA0682E000
:1003A0000E94DA0683E00E94DA0665E080E00E949F
:1003B00075056091B20070E080E090E00E948D05CC
:1003C00065E081E00E94750586E40E941B050E949D
:1003D0002C072091B0003091B100203B80E8380715
:1003E00008F058CF3AC080E00E94000781E00E94E8
:1003F000000782E00E94000783E00E9400076AE095
:1004000080E00E94750582EA90E00E94620560E546
:1004100070E580E090E00E942D0980E00E94DA06FD
:1004200081E00E94DA0682E00E94DA0683E00E9400
:10043000DA0665E080E00E9475056091B20070E028
:1004400080E090E00E948D0565E081E00E947505E6
:1004500086E40E941B050E942C078091B0009091B9
:10046000B1008036964308F0BECF1092A6001092DD
:10047000A7001092A8001092A90084EF91E00E94BA
:10048000CA096093AA007093AB008093AC0090936C
:10049000AD0040C080E00E94DA0681E00E94DA06EA
:1004A00082E00E94DA0683E00E94DA0665E080E0DE
:1004B0000E9475056091B20070E080E090E00E94BB
:1004C0008D0565E081E00E94750582E50E941B05AF
:1004D0000E94B40906C082E00E94000783E00E94E7
:1004E00000074091A6005091A7006091A80070916C
:1004F000A9008091AA009091AB00A091AC00B091AE
:10050000AD00481759076A077B0728F30E94BF0907
:100510000E942C078091B0009091B10080549442C9
:100520008032924108F4B6CF52C080E00E94A0060B
:1005300081E00E94A00682E00E94A00683E00E9463
:10054000A00632C080E00E94000781E00E94000700
:1005500082E00E94000783E00E94000765E080E0DF
:100560000E94750560E570E580E090E00E942D092D
:1005700080E00E94DA0681E00E94DA0682E00E94B2
:10058000DA0683E00E94DA066091B20070E080E053
:1005900090E00E948D0565E081E00E94750582E48F
:1005A0000E941B050E942C078091B0009091B10021
:1005B0008031964238F280E00E94660681E00E9417
:1005C000660682E00E94660683E00E9466068091CD
:1005D000B0009091B1008034944208F4A6CF089501
:1005E0001F920F920FB60F9211242F933F934F93A8
:1005F0005F936F937F938F939F93AF93BF93EF938B
:10060000FF938091AF008F5F8093AF00813019F42A
:100610000E94A7031FC08230E9F40E94AD030E942C
:1006200095039093B1008093B00080E090E00E9429
:10063000AA031092AF002091B0003091B100AFE951
:10064000B6E40E94260B880F892F881F990B91957D
:100650008093B200FF91EF91BF91AF919F918F91E5
:100660007F916F915F914F913F912F910F900FBEAE
:100670000F901F9018951F920F920FB60F92112492
:100680000F900FBE0F901F9018951F920F920FB6EC
:100690000F9211248F939F93AF93BF938091A600E5
:1006A0009091A700A091A800B091A9000196A11D6A
:1006B000B11D8093A6009093A700A093A800B093CB
:1006C000A900BF91AF919F918F910F900FBE0F9096
:1006D0001F90189540E063E083E00E94440708956E
:1006E0000F931F93CF93DF931F92CDB7DEB78A018D
:1006F0001982AE014F5F5F4F0E944208811105C011
:100700008981F801808381E004C08981F8018083B8
:1007100080E00F90DF91CF911F910F9108950E947B
:1007200061090E94BE0880E00895CF93DF9300D056
:10073000CDB7DEB71A821982CE0101960E949409C4
:1007400089819A810F900F90DF91CF9108950E9437
:100750007C0908950E949A0908950E9489090895C4
:1007600041E065E083E00E94440741E066E083E009
:100770000E94440741E067E083E00E94440740E0B4
:1007800060E083E00E94440740E061E083E00E9473
:10079000440740E064E083E00E94440741E065E0F4
:1007A00083E00E94C30741E066E083E00E94C30744
:1007B00041E067E083E00E94C30741E060E083E03E
:1007C0000E94C30741E061E083E00E94C30741E06B
:1007D00064E083E00E94C30780E00895EF92FF92F7
:1007E0000F931F93CF93DF9300D000D000D0CDB7ED
:1007F000DEB77C0185E0898386E08A8387E08B838E
:100800001C8281E08D8384E08E8300E079C0033018
:1008100039F440E060E083E00E94C30710E062C06A
:10082000E1E0F0E0EC0FFD1FE00FF11D40E0608122
:1008300083E00E94C307F2CFE4E0F0E0EC0FFD1F7D
:10084000E10FF11DA701608183E00E944208F701DA
:100850008081811146C0011111C0111103C081E3D3
:10086000808333C0113021F482E3F70180832DC0EF
:10087000123059F583E3F701808327C0013091F4EA
:10088000111104C084E3F70180831FC0113021F4EB
:1008900085E3F701808319C01230B9F486E3F701CC
:1008A000808313C0023089F4111104C087E3F7017B
:1008B00080830BC0113021F488E3F701808305C0E9
:1008C000123019F489E3F7018083E1E0F0E0EC0FE6
:1008D000FD1FE00FF11D608183E00E94800880E031
:1008E00013C01F5F133008F4A7CFE1E0F0E0EC0F76
:1008F000FD1FE00FF11D608183E00E9480080F5F03
:10090000033008F484CF81E026960FB6F894DEBF5A
:100910000FBECDBFDF91CF911F910F91FF90EF9050
:100920000895CF93C82F0E94CA0840E061E080E09C
:100930000E94C30740E062E080E00E94C30740E0FD
:1009400063E080E00E94C3078BB39C2F907F8F7081
:10095000892B8BBB41E063E080E00E94C30761E02C
:1009600070E080E090E00E94F10840E063E080E009
:100970000E94C30720E1C29FC00111249BB39F7056
:10098000892B8BBB41E063E080E00E94C30761E0FC
:1009900070E080E090E00E94F10840E063E080E0D9
:1009A0000E94C30765E070E080E090E00E94F108DB
:1009B000CF9108950E94CA0841E061E080E00E9462
:1009C000440741E062E080E00E94440741E063E0C8
:1009D00080E00E94440741E064E080E00E94440718
:1009E00041E065E080E00E94440741E066E080E08D
:1009F0000E94440741E067E080E00E94440764E110
:100A000070E080E090E00E94F10883E30E9491048E
:100A100082E30E94910488E20E9491048CE00E948B
:100A2000910486E00E94910482E00E94910481E09A
:100A30000E9491040895CF93C82F41E061E080E0C7
:100A40000E94C30740E062E080E00E94C30740E0EC
:100A500063E080E00E94C3078BB39C2F907F8F7070
:100A6000892B8BBB41E063E080E00E94C30761E01B
:100A700070E080E090E00E94F10840E063E080E0F8
:100A80000E94C30720E1C29FC00111249BB39F7045
:100A9000892B8BBB41E063E080E00E94C30761E0EB
:100AA00070E080E090E00E94F10840E063E080E0C8
:100AB0000E94C30765E070E080E090E00E94F108CA
:100AC000CF9108950F931F93CF938C01C0E003C083
:100AD0000E941B05CF5FF801EC0FF11D8081811191
:100AE000F7CFCF911F910F910895CF93DF9300D04F
:100AF000CDB7DEB790E8998390EC9A83E1E0F0E01F
:100B0000EC0FFD1FE80FF11D8081860F0E949104FC
:100B10000F900F90DF91CF9108951F93CF93DF93A4
:100B2000CDB7DEB72A970FB6F894DEBF0FBECDBFA4
:100B30009923DCF590958095709561957F4F8F4F47
:100B40009F4F10E013C02AE030E040E050E00E94E8
:100B5000070BE1E0F0E0EC0FFD1FE10FF11D605D20
:100B60006083622F732F842F952F1F5F1616170631
:100B70001806190644F3E1E0F0E0EC0FFD1FE10F69
:100B8000F11D8DE280831F5F0DC0E12FF0E03197F2
:100B900081E090E08C0F9D1FE80FF91F80810E947B
:100BA0001B0511501111F1CF39C061157105810577
:100BB000910521F480E30E941B0530C0161617062C
:100BC00018061906ACF02AC02AE030E040E050E0F8
:100BD0000E94070BE1E0F0E0EC0FFD1FE10FF11DBB
:100BE000605D6083622F732F842F952F1F5F01C07C
:100BF00010E0161617061806190634F30DC0E12F7B
:100C0000F0E0319781E090E08C0F9D1FE80FF91F15
:100C100080810E941B0511501111F1CF2A960FB649
:100C2000F894DEBF0FBECDBFDF91CF911F91089525
:100C30008130B9F028F0823029F18330A1F144C02D
:100C400041E060E081E00E94440741E061E081E032
:100C50000E94440741E062E081E00E94440780E096
:100C6000089541E063E081E00E94440741E064E0D0
:100C700081E00E94440741E065E081E00E94440772
:100C800080E0089541E060E082E00E94440741E096
:100C900061E082E00E94440741E062E082E00E945D
:100CA000440780E0089541E063E082E00E94440749
:100CB00041E064E082E00E94440741E065E082E0B8
:100CC0000E94440780E0089581E00895813091F00A
:100CD00028F08230D9F0833029F130C041E060E063
:100CE00081E00E94C30740E061E081E00E94C30709
:100CF00080E0089541E063E081E00E94C30740E0A6
:100D000064E081E00E94C30780E0089541E060E074
:100D100082E00E94C30740E061E082E00E94C307D6
:100D200080E0089541E063E082E00E94C30740E074
:100D300064E082E00E94C30780E0089581E00895A6
:100D4000813091F028F08230D9F0833029F130C021
:100D500040E060E081E00E94C30741E061E081E0A3
:100D60000E94C30780E0089540E063E081E00E94B4
:100D7000C30741E064E081E00E94C30780E008957A
:100D800040E060E082E00E94C30741E061E082E071
:100D90000E94C30780E0089540E063E082E00E9483
:100DA000C30741E064E082E00E94C30780E0089549
:100DB00081E00895813069F028F0823089F0833035
:100DC000B1F01CC040E062E081E00E94C30780E017
:100DD000089540E065E081E00E94C30780E0089547
:100DE00040E062E082E00E94C30780E0089540E0B6
:100DF00065E082E00E94C30780E0089581E00895E5
:100E0000813069F028F0823089F08330B1F01CC065
:100E100041E062E081E00E94C30780E0089541E084
:100E200065E081E00E94C30780E0089541E062E050
:100E300082E00E94C30780E0089541E065E082E01F
:100E40000E94C30780E0089581E0089541E060E0DA
:100E500080E00E944407089541E060E080E00E9445
:100E6000C3076FE070E080E090E00E942D0940E051
:100E700060E080E00E94C30708950E9449000E943C
:100E800076000E942B01FDCF442319F04130E9F197
:100E900074C0813099F028F08230E9F0833041F15C
:100EA0006EC02AB381E090E002C0880F991F6A9556
:100EB000E2F7809582238ABB80E0089527B381E022
:100EC00090E002C0880F991F6A95E2F7809582230F
:100ED00087BB80E0089524B381E090E002C0880FD2
:100EE000991F6A95E2F78095822384BB80E008957C
:100EF00021B381E090E002C0880F991F6A95E2F764
:100F00008095822381BB80E00895813091F028F0A4
:100F10008230D9F0833029F134C02AB381E090E0E7
:100F200002C0880F991F6A95E2F7822B8ABB80E086
:100F3000089527B381E090E002C0880F991F6A9559
:100F4000E2F7822B87BB80E0089524B381E090E034
:100F500002C0880F991F6A95E2F7822B84BB80E05C
:100F6000089521B381E090E002C0880F991F6A952F
:100F7000E2F7822B81BB80E0089581E0089581E053
:100F8000089581E00895442319F04130E9F174C0D7
:100F9000813099F028F08230E9F0833041F16EC061
:100FA0002BB381E090E002C0880F991F6A95E2F7A9
:100FB000809582238BBB80E0089528B381E090E088
:100FC00002C0880F991F6A95E2F78095822388BB3B
:100FD00080E0089525B381E090E002C0880F991F5A
:100FE0006A95E2F78095822385BB80E0089522B35D
:100FF00081E090E002C0880F991F6A95E2F7809522
:10100000822382BB80E00895813091F028F0823005
:10101000D9F0833029F134C02BB381E090E002C0D5
:10102000880F991F6A95E2F7822B8BBB80E00895A9
:1010300028B381E090E002C0880F991F6A95E2F71B
:10104000822B88BB80E0089525B381E090E002C048
:10105000880F991F6A95E2F7822B85BB80E008957F
:1010600022B381E090E002C0880F991F6A95E2F7F1
:10107000822B82BB80E0089581E0089581E008958D
:1010800081E00895813099F028F08230E9F08330D2
:1010900041F134C089B390E002C0959587956A9577
:1010A000E2F7817089BBFA01808380E0089586B3FE
:1010B00090E002C0959587956A95E2F7817086BBAE
:1010C000FA01808380E0089583B390E002C0959593
:1010D00087956A95E2F7817083BBFA01808380E08F
:1010E000089580B390E002C0959587956A95E2F7E0
:1010F000817080BBFA01808380E0089581E00895CB
:10110000813091F028F08230D9F0833029F130C05D
:101110002BB381E090E002C0880F991F6A95E2F737
:1011200082278BBB80E0089528B381E090E002C065
:10113000880F991F6A95E2F7822788BB80E008959F
:1011400025B381E090E002C0880F991F6A95E2F70D
:10115000822785BB80E0089522B381E090E002C041
:10116000880F991F6A95E2F7822782BB80E0089575
:1011700081E008958FB780688FBF08950E94BA08F4
:1011800085B7816085BF85B78D7F85BF8BB780644C
:101190008BBF089583B78F7783BF83B78F7B83BF60
:1011A00083B7877F83BF83B78F7E83BF83B78F7DEE
:1011B00083BF80E0089583B7816083BF83B78D7F4D
:1011C00083BF83B78B7F83BF80E0089583B78E7F13
:1011D00083BF83B78D7F83BF83B78B7F83BF80E05F
:1011E00008950E94790A2FE632E143E05DE30E9410
:1011F000D8090E944A0A6093B3007093B4008093A8
:10120000B5009093B60012BE0E94DB0840E050E0AB
:10121000BA010AC008B600FEFDCF88B7816088BF5A
:101220004F5F5F4F6F4F7F4F8091B3009091B4003D
:10123000A091B500B091B600481759076A077B071F
:1012400048F31092B3001092B4001092B5001092BF
:10125000B6000E94E60880E00895DC01CB016894A6
:1012600014F8B695A795979587951694D1F780931E
:10127000B3009093B400A093B500B093B60012BE33
:101280000E94DB0840E050E0BA010AC008B600FE48
:10129000FDCF88B7816088BF4F5F5F4F6F4F7F4F33
:1012A0008091B3009091B400A091B500B091B600C8
:1012B000481759076A077B0748F30E94E60880E051
:1012C00008958FB58E7F8FBD8FB58D7F8FBD8EB505
:1012D000877F8EBD8EB58F7E8EBD8FB584608FBDAE
:1012E0008FB588608FBD8FB780688FBF89B79AB779
:1012F00084609ABF89BF08951DBC1CBC8EB58160F7
:101300008EBD8EB58D7F8EBD8EB58B7F8EBD80E000
:1013100008958EB58E7F8EBD8EB58D7F8EBD8EB5B8
:101320008B7F8EBD81E008952CB53DB5FC013183E6
:10133000208308959DBD8CBD089585B58F7785BDAB
:1013400085B58F7B85BD85B5877F85BD85B58F7E4E
:1013500085BD85B58F7D85BD8FB780688FBF89B707
:10136000806489BF80E0089585B5816085BD85B5BD
:101370008D7F85BD85B58B7F85BD80E0089585B562
:101380008E7F85BD85B58D7F85BD85B58B7F85BD00
:1013900080E00895BC0180E090E00E94790A2FE689
:1013A00032E143E05DE30E94D8090E944A0A0895B1
:1013B0000E94EC090C94CD0A0E94C60A58F00E94C3
:1013C000BF0A40F029F45F3F29F00C94B60A51118E
:1013D0000C94010B0C94BC0A0E94DE0A68F399235A
:1013E000B1F3552391F3951B550BBB27AA27621721
:1013F0007307840738F09F5F5F4F220F331F441F2E
:10140000AA1FA9F335D00E2E3AF0E0E832D0915061
:101410005040E695001CCAF72BD0FE2F29D0660F4E
:10142000771F881FBB1F261737074807AB07B0E891
:1014300009F0BB0B802DBF01FF2793585F4F3AF097
:101440009E3F510578F00C94B60A0C94010B5F3F57
:10145000E4F3983ED4F3869577956795B795F7951D
:101460009F5FC9F7880F911D9695879597F9089505
:10147000E1E0660F771F881FBB1F621773078407A1
:10148000BA0720F0621B730B840BBA0BEE1F88F7B0
:10149000E09508950E94E60A88F09F5798F0B92FCA
:1014A0009927B751B0F0E1F0660F771F881F991F99
:1014B0001AF0BA95C9F714C0B13091F00E94000B30
:1014C000B1E008950C94000B672F782F8827B85F40
:1014D00039F0B93FCCF3869577956795B395D9F7F1
:1014E0003EF490958095709561957F4F8F4F9F4FFB
:1014F0000895E89409C097FB3EF490958095709507
:1015000061957F4F8F4F9F4F9923A9F0F92F96E94F
:10151000BB279395F695879577956795B795F111C4
:10152000F8CFFAF4BB0F11F460FF1BC06F5F7F4F61
:101530008F4F9F4F16C0882311F096E911C0772373
:1015400021F09EE8872F762F05C0662371F096E87C
:10155000862F70E060E02AF09A95660F771F881F4B
:10156000DAF7880F9695879597F9089597F99F6709
:1015700080E870E060E008959FEF80EC089500241B
:101580000A941616170618060906089500240A94E8
:1015900012161306140605060895092E0394000C6E
:1015A00011F4882352F0BB0F40F4BF2B11F460FFFD
:1015B00004C06F5F7F4F8F4F9F4F089557FD905826
:1015C000440F551F59F05F3F71F04795880F97FB07
:1015D000991F61F09F3F79F08795089512161306C1
:1015E0001406551FF2CF4695F1DF08C016161706F0
:1015F0001806991FF1CF8695710561050894089525
:10160000E894BB2766277727CB0197F90895052E25
:1016100097FB1EF400940E941E0B57FD07D00E94FA
:10162000350B07FC03D04EF40C941E0B50954095DF
:10163000309521953F4F4F4F5F4F0895909580957E
:10164000709561957F4F8F4F9F4F0895A29FB00176
:10165000B39FC001A39F700D811D1124911DB29FE6
:10166000700D811D1124911D0895A1E21A2EAA1B4F
:10167000BB1BFD010DC0AA1FBB1FEE1FFF1FA21742
:10168000B307E407F50720F0A21BB30BE40BF50B3F
:10169000661F771F881F991F1A9469F760957095C8
:1016A000809590959B01AC01BD01CF010895F89400
:0216B000FFCF6A
:1016B200536574204465662E20526F74004C454673
:1016C2005420524F544154494F4E005249474854B6
:1016D20020524F544154494F4E0057414954494EAC
:1016E200472E2E004469733A004469723A0035303D
:0616F20025003330250045
:00000001FF
