S01E00004F62737461636C652061766F6964616E6365206361722E73726563B9
S11300000C942A000C94FF080C9447000C944700AD
S11300100C9447000C94350A0C9447000C94470048
S11300200C9447000C94EB090C9447000C94A00921
S11300300C9447000C9447000C9447000C94470020
S11300400C9447000C9447000C9447000C94470010
S11300500C94470011241FBECFE5D8E0DEBFCDBF0E
S113006010E0A0E6B0E0E0E8F7E102C005900D92F0
S1130070AE39B107D9F720E0AEE9B0E001C01D9276
S1130080A93BB207E1F70E946D070C94BE0B0C94D8
S11300900000089580919E0090919F00A091A0007F
S11300A0B091A1000196A11DB11D80939E00909373
S11300B09F00A093A000B093A10008958091A70091
S11300C08F5F8093A700813019F40E94D7030895AD
S11300D08230E9F40E94DD030E94C5039093A900D5
S11300E08093A80080E090E00E94DA031092A700B9
S11300F02091A8003091A900AFE9B6E40E948D0BCD
S1130100880F892F881F990B91958093AA000895D1
S11301100E94BF030E9456070E9409090E94F50924
S11301200E94E0030E949A030E940A058EE590E073
S11301300E94FA0889E490E00E94E6098AE490E0CB
S11301400E94300A62E370E080E090E00E9430098F
S113015080E00E94480681E00E94480682E00E94F6
S1130160480683E00E94480680E00E94960681E0EB
S11301700E94960682E00E94960683E00E949606FC
S11301800895CF93DF9300D0CDB7DEB719821A82DA
S113019010929E0010929F001092A0001092A10055
S11301A088E893E10E94220A6093A2007093A3005E
S11301B08093A4009093A5000E940C0A39C061E0CA
S11301C080E00E94A50580E690E00E949205AE01C1
S11301D04F5F5F4F63E083E00E94A00364E670E03A
S11301E080E090E00E943009AE014F5F5F4F63E012
S11301F083E00E94A00389818823D1F08091A60026
S11302008F5F8093A600813041F461E00E94A505D0
S11302108DE690E00E9492050AC0823041F461E0CC
S113022081E00E94A5058BE790E00E949205198267
S113023040919E0050919F006091A0007091A10098
S11302408091A2009091A300A091A400B091A50078
S1130250481759076A077B0708F4B1CF0E94170AA9
S1130260CE0102960E941E048A818133C9F781E07F
S11302700E94C10464E170E080E090E00E943009D3
S113028062E080E00E94A5058AE890E00E94920561
S113029060ED77E080E090E00E94300981E00E9408
S11302A0C10464E170E080E090E00E9430090F90A6
S11302B00F90DF91CF91089510929E0010929F00AD
S11302C01092A0001092A1001092A2001092A3001C
S11302D01092A4001092A5000E945C0788E893E1A4
S11302E00E94220A6093A2007093A3008093A4004A
S11302F09093A50082C0AFE9B6E40E948D0B880FED
S1130300892F881F990B91958093AA000E940C0A4B
S11303102DC080E00E94300781E00E94300782E017
S11303200E94300783E00E94300761E080E00E9471
S1130330A50560EE74EC80E090E00E946C0980E01A
S11303400E940A0781E00E940A0782E00E940A07CD
S113035083E00E940A0782E990E00E94920560917E
S1130360AA0070E080E090E00E94BD0540919E00EC
S113037050919F006091A0007091A1008091A20013
S11303809091A300A091A400B091A500481759072B
S11303906A077B0708F4BDCF0E94170A80E00E9419
S11303A0300781E00E94300782E00E94300783E03A
S11303B00E94300761E080E00E94A50560E570E5D9
S11303C080E090E00E946C0980E00E940A0781E0CE
S11303D00E940A0782E00E940A0783E00E940A073B
S11303E082E990E00E9492056091AA0070E080E0AA
S11303F090E00E94BD050E945C072091A800309106
S1130400A900203B80E8380708F075CF2FC080E0B2
S11304100E94300781E00E94300782E00E9430078A
S113042083E00E94300761E080E00E94A50560E55A
S113043070E580E090E00E946C0980E00E940A0769
S113044081E00E940A0782E00E940A0783E00E947A
S11304500A0782E990E00E9492056091AA0070E088
S113046080E090E00E94BD050E945C078091A80096
S11304709091A9008036964350F610929E001092F7
S11304809F001092A0001092A10084EF91E00E94BE
S1130490220A6093A2007093A3008093A400909317
S11304A0A50065C080E00E940A0781E00E940A0757
S11304B082E00E940A0783E00E940A070E940C0A55
S11304C006C082E00E94300783E00E94300740911A
S11304D09E0050919F006091A0007091A1008091B6
S11304E0A2009091A300A091A400B091A500481788
S11304F059076A077B0728F30E94170A2FC080E078
S11305000E94300781E00E94300782E00E94300799
S113051083E00E94300761E080E00E94A50560E569
S113052070E580E090E00E946C0980E00E940A0778
S113053081E00E940A0782E00E940A0783E00E9489
S11305400A0782E990E00E9492056091AA0070E097
S113055080E090E00E94BD050E945C078091A800A5
S11305609091A9008036964350F60E945C078091D2
S1130570A8009091A9008034944208F093CFD1C090
S113058080E00E94D00681E00E94D00682E00E94B2
S1130590D00683E00E94D0062FC080E00E9430077E
S11305A081E00E94300782E00E94300783E00E94CD
S11305B0300761E080E00E94A50560E570E580E019
S11305C090E00E946C0980E00E940A0781E00E948A
S11305D00A0782E00E940A0783E00E940A0782E970
S11305E090E00E9492056091AA0070E080E090E0A3
S11305F00E94BD050E945C078091A8009091A9000B
S11306008031964250F210929E0010929F001092F8
S1130610A0001092A10084EF91E00E94220A60934E
S1130620A2007093A3008093A4009093A5000E945D
S11306300C0A80E00E94960681E00E94960682E001
S11306400E94960683E00E94960663C080E00E94A2
S11306500A0781E00E940A0782E00E940A0783E0F9
S11306600E940A0706C082E00E94300783E00E94CD
S1130670300740919E0050919F006091A0007091BE
S1130680A1008091A2009091A300A091A400B09138
S1130690A500481759076A077B0728F30E945C07DF
S11306A00E94170A2FC080E00E94300781E00E9458
S11306B0300782E00E94300783E00E94300761E047
S11306C080E00E94A50560E570E580E090E00E946E
S11306D06C0980E00E940A0781E00E940A0782E018
S11306E00E940A0783E00E940A0782E990E00E94C0
S11306F092056091AA0070E080E090E00E94BD0540
S11307000E945C078091A8009091A90080369643CE
S113071050F68091A8009091A9008031964208F08B
S113072095CF8091A8009091A9008034944208F458
S113073027CF089540E063E083E00E9474070895A2
S11307400F931F93CF93DF931F92CDB7DEB78A0128
S11307501982AE014F5F5F4F0E947208811105C07C
S11307608981F801808381E004C08981F801808354
S113077080E00F90DF91CF911F910F9108950E9417
S1130780AA090E94EE0880E00895CF93DF9300D079
S1130790CDB7DEB71A821982CE0101960E94DD0917
S11307A089819A810F900F90DF91CF9108950E94D3
S11307B0C50908950E94E30908950E94D209089585
S11307C041E065E083E00E94740741E066E083E075
S11307D00E94740741E067E083E00E94740740E0F0
S11307E060E083E00E94740740E061E083E00E94DF
S11307F0740740E064E083E00E94740741E065E030
S113080083E00E94F30741E066E083E00E94F3077F
S113081041E067E083E00E94F30741E060E083E0A9
S11308200E94F30741E061E083E00E94F30741E0A6
S113083064E083E00E94F30780E00895EF92FF9262
S11308400F931F93CF93DF9300D000D000D0CDB788
S1130850DEB77C0185E0898386E08A8387E08B8329
S11308601C8281E08D8384E08E8300E079C00330B4
S113087039F440E060E083E00E94F30710E062C0D6
S1130880E1E0F0E0EC0FFD1FE00FF11D40E06081BE
S113089083E00E94F307F2CFE4E0F0E0EC0FFD1FE9
S11308A0E10FF11DA701608183E00E947208F70146
S11308B08081811146C0011111C0111103C081E36F
S11308C0808333C0113021F482E3F70180832DC08B
S11308D0123059F583E3F701808327C0013091F486
S11308E0111104C084E3F70180831FC0113021F487
S11308F085E3F701808319C01230B9F486E3F70168
S1130900808313C0023089F4111104C087E3F70116
S113091080830BC0113021F488E3F701808305C084
S1130920123019F489E3F7018083E1E0F0E0EC0F81
S1130930FD1FE00FF11D608183E00E94B00880E09C
S113094013C01F5F133008F4A7CFE1E0F0E0EC0F11
S1130950FD1FE00FF11D608183E00E94B0080F5F6E
S1130960033008F484CF81E026960FB6F894DEBFF6
S11309700FBECDBFDF91CF911F910F91FF90EF90EC
S11309800895CF93C82F0E94090940E061E080E0F8
S11309900E94F30740E062E080E00E94F30740E039
S11309A063E080E00E94F3078BB39C2F907F8F70ED
S11309B0892B8BBB41E063E080E00E94F30761E098
S11309C070E080E090E00E94300940E063E080E065
S11309D00E94F30720E1C29FC00111249BB39F70C2
S11309E0892B8BBB41E063E080E00E94F30761E068
S11309F070E080E090E00E94300940E063E080E035
S1130A000E94F30765E070E080E090E00E94300906
S1130A10CF9108950E94090941E061E080E00E94BD
S1130A20740741E062E080E00E94740741E063E003
S1130A3080E00E94740741E064E080E00E94740753
S1130A4041E065E080E00E94740741E066E080E0F8
S1130A500E94740741E067E080E00E94740764E14B
S1130A6070E080E090E00E94300983E30E94C104BA
S1130A7082E30E94C10488E20E94C1048CE00E94C7
S1130A80C10486E00E94C10482E00E94C10481E0A6
S1130A900E94C1040895CF93C82F41E061E080E033
S1130AA00E94F30740E062E080E00E94F30740E028
S1130AB063E080E00E94F3078BB39C2F907F8F70DC
S1130AC0892B8BBB41E063E080E00E94F30761E087
S1130AD070E080E090E00E94300940E063E080E054
S1130AE00E94F30720E1C29FC00111249BB39F70B1
S1130AF0892B8BBB41E063E080E00E94F30761E057
S1130B0070E080E090E00E94300940E063E080E023
S1130B100E94F30765E070E080E090E00E943009F5
S1130B20CF9108950F931F93CF938C01C0E003C01E
S1130B300E944B05CF5FF801EC0FF11D80818111FC
S1130B40F7CFCF911F910F910895CF93DF9300D0EA
S1130B50CDB7DEB790E8998390EC9A83E1E0F0E0BA
S1130B60EC0FFD1FE80FF11D8081860F0E94C10468
S1130B700F900F90DF91CF9108951F93CF93DF9340
S1130B80CDB7DEB72A970FB6F894DEBF0FBECDBF40
S1130B909923DCF590958095709561957F4F8F4FE3
S1130BA09F4F10E013C02AE030E040E050E00E9484
S1130BB06E0BE1E0F0E0EC0FFD1FE10FF11D605D55
S1130BC06083622F732F842F952F1F5F16161706CD
S1130BD01806190644F3E1E0F0E0EC0FFD1FE10F05
S1130BE0F11D8DE280831F5F0DC0E12FF0E031978E
S1130BF081E090E08C0F9D1FE80FF91F80810E9417
S1130C004B0511501111F1CF39C0611571058105E2
S1130C10910521F480E30E944B0530C01616170697
S1130C2018061906ACF02AC02AE030E040E050E093
S1130C300E946E0BE1E0F0E0EC0FFD1FE10FF11DEF
S1130C40605D6083622F732F842F952F1F5F01C017
S1130C5010E0161617061806190634F30DC0E12F16
S1130C60F0E0319781E090E08C0F9D1FE80FF91FB1
S1130C7080810E944B0511501111F1CF2A960FB6B5
S1130C80F894DEBF0FBECDBFDF91CF911F910895C1
S1130C908130B9F028F0823029F18330A1F144C0C9
S1130CA041E060E081E00E94740741E061E081E09E
S1130CB00E94740741E062E081E00E94740780E0D2
S1130CC0089541E063E081E00E94740741E064E03C
S1130CD081E00E94740741E065E081E00E947407AE
S1130CE080E0089541E060E082E00E94740741E002
S1130CF061E082E00E94740741E062E082E00E94C9
S1130D00740780E0089541E063E082E00E94740784
S1130D1041E064E082E00E94740741E065E082E023
S1130D200E94740780E0089581E00895813091F075
S1130D3028F08230D9F0833029F130C041E060E0FE
S1130D4081E00E94F30740E061E081E00E94F30744
S1130D5080E0089541E063E081E00E94F30740E011
S1130D6064E081E00E94F30780E0089541E060E0E0
S1130D7082E00E94F30740E061E082E00E94F30712
S1130D8080E0089541E063E082E00E94F30740E0E0
S1130D9064E082E00E94F30780E0089581E0089512
S1130DA0813091F028F08230D9F0833029F130C0BD
S1130DB040E060E081E00E94F30741E061E081E00F
S1130DC00E94F30780E0089540E063E081E00E9420
S1130DD0F30741E064E081E00E94F30780E00895B6
S1130DE040E060E082E00E94F30741E061E082E0DD
S1130DF00E94F30780E0089540E063E082E00E94EF
S1130E00F30741E064E082E00E94F30780E0089584
S1130E1081E00895813069F028F0823089F08330D0
S1130E20B1F01CC040E062E081E00E94F30780E082
S1130E30089540E065E081E00E94F30780E00895B2
S1130E4040E062E082E00E94F30780E0089540E021
S1130E5065E082E00E94F30780E0089581E0089550
S1130E60813069F028F0823089F08330B1F01CC001
S1130E7041E062E081E00E94F30780E0089541E0F0
S1130E8065E081E00E94F30780E0089541E062E0BC
S1130E9082E00E94F30780E0089541E065E082E08B
S1130EA00E94F30780E0089581E0089541E060E046
S1130EB080E00E947407089541E060E080E00E94B1
S1130EC0F3076FE070E080E090E00E946C0940E07E
S1130ED060E080E00E94F30708950E9488000E9469
S1130EE0C1000E945C01FDCF442319F04130E9F1B7
S1130EF074C0813099F028F08230E9F0833041F1F8
S1130F006EC02AB381E090E002C0880F991F6A95F1
S1130F10E2F7809582238ABB80E0089527B381E0BD
S1130F2090E002C0880F991F6A95E2F780958223AA
S1130F3087BB80E0089524B381E090E002C0880F6D
S1130F40991F6A95E2F78095822384BB80E0089517
S1130F5021B381E090E002C0880F991F6A95E2F7FF
S1130F608095822381BB80E00895813091F028F040
S1130F708230D9F0833029F134C02AB381E090E083
S1130F8002C0880F991F6A95E2F7822B8ABB80E022
S1130F90089527B381E090E002C0880F991F6A95F5
S1130FA0E2F7822B87BB80E0089524B381E090E0D0
S1130FB002C0880F991F6A95E2F7822B84BB80E0F8
S1130FC0089521B381E090E002C0880F991F6A95CB
S1130FD0E2F7822B81BB80E0089581E0089581E0EF
S1130FE0089581E00895442319F04130E9F174C073
S1130FF0813099F028F08230E9F0833041F16EC0FD
S11310002BB381E090E002C0880F991F6A95E2F744
S1131010809582238BBB80E0089528B381E090E023
S113102002C0880F991F6A95E2F78095822388BBD6
S113103080E0089525B381E090E002C0880F991FF5
S11310406A95E2F78095822385BB80E0089522B3F8
S113105081E090E002C0880F991F6A95E2F78095BD
S1131060822382BB80E00895813091F028F08230A1
S1131070D9F0833029F134C02BB381E090E002C071
S1131080880F991F6A95E2F7822B8BBB80E0089545
S113109028B381E090E002C0880F991F6A95E2F7B7
S11310A0822B88BB80E0089525B381E090E002C0E4
S11310B0880F991F6A95E2F7822B85BB80E008951B
S11310C022B381E090E002C0880F991F6A95E2F78D
S11310D0822B82BB80E0089581E0089581E0089529
S11310E081E00895813099F028F08230E9F083306E
S11310F041F134C089B390E002C0959587956A9513
S1131100E2F7817089BBFA01808380E0089586B399
S113111090E002C0959587956A95E2F7817086BB49
S1131120FA01808380E0089583B390E002C095952E
S113113087956A95E2F7817083BBFA01808380E02A
S1131140089580B390E002C0959587956A95E2F77B
S1131150817080BBFA01808380E0089581E0089566
S1131160813091F028F08230D9F0833029F130C0F9
S11311702BB381E090E002C0880F991F6A95E2F7D3
S113118082278BBB80E0089528B381E090E002C001
S1131190880F991F6A95E2F7822788BB80E008953B
S11311A025B381E090E002C0880F991F6A95E2F7A9
S11311B0822785BB80E0089522B381E090E002C0DD
S11311C0880F991F6A95E2F7822782BB80E0089511
S11311D081E008958FB780688FBF08950E94EA0860
S11311E085B7816085BF85B78D7F85BF8BB78064E8
S11311F08BBF08959093B4008093B30008951F9219
S11312000F920FB60F9211240F900FBE0F901F90E4
S1131210189583B78F7783BF83B78F7B83BF83B7DB
S1131220877F83BF83B78F7E83BF83B78F7D83BF61
S113123080E0089583B7816083BF83B78D7F83BFC8
S113124083B78B7F83BF80E0089583B78E7F83BF8E
S113125083B78D7F83BF83B78B7F83BF80E008957F
S11312600E94E00A2FE632E143E05DE30E943F0A78
S11312700E94B10A6093AB007093AC008093AD0000
S11312809093AE0012BE0E941A0940E050E0BA01E9
S11312900AC008B600FEFDCF88B7816088BF4F5FE3
S11312A05F4F6F4F7F4F8091AB009091AC00A09146
S11312B0AD00B091AE00481759076A077B0748F3A1
S11312C01092AB001092AC001092AD001092AE00E0
S11312D00E94250980E00895DC01CB01689414F88C
S11312E0B695A795979587951694D1F78093AB00FB
S11312F09093AC00A093AD00B093AE0012BE0E94D8
S11313001A0940E050E0BA010AC008B600FEFDCF59
S113131088B7816088BF4F5F5F4F6F4F7F4F809169
S1131320AB009091AC00A091AD00B091AE00481715
S113133059076A077B0748F30E94250980E008954E
S11313401F920F920FB60F9211240F900FBE0F90A1
S11313501F9018958FB58E7F8FBD8FB58D7F8FBDF4
S11313608EB5877F8EBD8EB58F7E8EBD8FB5846022
S11313708FBD8FB588608FBD8FB780688FBF89B7E9
S11313809AB784609ABF89BF08951DBC1CBC8EB5F2
S113139081608EBD8EB58D7F8EBD8EB58B7F8EBDEB
S11313A080E008958EB58E7F8EBD8EB58D7F8EBD07
S11313B08EB58B7F8EBD81E008952CB53DB5FC01C3
S11313C03183208308959DBD8CBD08959093B6000C
S11313D08093B50008951F920F920FB60F921124B7
S11313E00F900FBE0F901F90189585B58F7785BD10
S11313F085B58F7B85BD85B5877F85BD85B58F7E9A
S113140085BD85B58F7D85BD8FB780688FBF89B752
S1131410806489BF80E0089585B5816085BD85B508
S11314208D7F85BD85B58B7F85BD80E0089585B5AD
S11314308E7F85BD85B58D7F85BD85B58B7F85BD4B
S113144080E00895BC0180E090E00E94E00A2FE66D
S113145032E143E05DE30E943F0A0E94B10A08952D
S11314609093B8008093B70008951F920F920FB61F
S11314700F9211240F900FBE0F901F9018950E9489
S1131480530A0C94340B0E942D0B58F00E94260B27
S113149040F029F45F3F29F00C941D0B51110C947A
S11314A0680B0C94230B0E94450B68F39923B1F34A
S11314B0552391F3951B550BBB27AA276217730776
S11314C0840738F09F5F5F4F220F331F441FAA1F0A
S11314D0A9F335D00E2E3AF0E0E832D091505040C6
S11314E0E695001CCAF72BD0FE2F29D0660F771F74
S11314F0881FBB1F261737074807AB07B0E809F05A
S1131500BB0B802DBF01FF2793585F4F3AF09E3FDE
S1131510510578F00C941D0B0C94680B5F3FE4F3B9
S1131520983ED4F3869577956795B795F7959F5F21
S1131530C9F7880F911D9695879597F90895E1E06D
S1131540660F771F881FBB1F621773078407BA07CC
S113155020F0621B730B840BBA0BEE1F88F7E09527
S113156008950E944D0B88F09F5798F0B92F992742
S1131570B751B0F0E1F0660F771F881F991F1AF07A
S1131580BA95C9F714C0B13091F00E94670BB1E06D
S113159008950C94670B672F782F8827B85F39F06C
S11315A0B93FCCF3869577956795B395D9F73EF413
S11315B090958095709561957F4F8F4F9F4F0895BB
S11315C0E89409C097FB3EF49095809570956195D9
S11315D07F4F8F4F9F4F9923A9F0F92F96E9BB278F
S11315E09395F695879577956795B795F111F8CF0B
S11315F0FAF4BB0F11F460FF1BC06F5F7F4F8F4F76
S11316009F4F16C0882311F096E911C0772321F06B
S11316109EE8872F762F05C0662371F096E8862F03
S113162070E060E02AF09A95660F771F881FDAF75A
S1131630880F9695879597F9089597F99F6780E89D
S113164070E060E008959FEF80EC089500240A9410
S11316501616170618060906089500240A94121689
S11316601306140605060895092E0394000C11F4BC
S1131670882352F0BB0F40F4BF2B11F460FF04C069
S11316806F5F7F4F8F4F9F4F089557FD9058440FC2
S1131690551F59F05F3F71F04795880F97FB991FCD
S11316A061F09F3F79F0879508951216130614068A
S11316B0551FF2CF4695F1DF08C016161706180617
S11316C0991FF1CF86957105610508940895E894F2
S11316D0BB2766277727CB0197F90895052E97FB3B
S11316E01EF400940E94850B57FD07D00E949C0BAA
S11316F007FC03D04EF40C94850B5095409530951F
S113170021953F4F4F4F5F4F089590958095709569
S113171061957F4F8F4F9F4F0895A29FB001B39F54
S1131720C001A39F700D811D1124911DB29F700DE6
S1131730811D1124911D0895A1E21A2EAA1BBB1B21
S1131740FD010DC0AA1FBB1FEE1FFF1FA217B30789
S1131750E407F50720F0A21BB30BE40BF50B661F9F
S1131760771F881F991F1A9469F760957095809563
S113177090959B01AC01BD01CF010895F894FFCF72
S1131780536574204465662E20526F74004C4546A0
S11317905420524F544154494F4E005249474854E3
S11317A020524F544154494F4E0057616974696E39
S11117B0670044697374616E6365203A00003B
S9030000FC
