:100000000C942A000C94F8020C9447000C944700BE
:100010000C9447000C944D030C9447000C9447003B
:100020000C9447000C9443030C9447000C94470035
:100030000C9447000C9447000C9447000C94470024
:100040000C9447000C9447000C9447000C94470014
:100050000C94470011241FBECFE5D8E0DEBFCDBF12
:1000600010E0A0E6B0E0E2ECF6E102C005900D92EF
:10007000A63AB107D9F720E0A6EAB0E001C01D9288
:10008000A73BB207E1F70E9445070C945F0B0C9465
:1000900000000E9497030E942E070E94D2080E942F
:1000A000A5090E94B8030E9472030E94E20462E361
:1000B00070E080E090E00E94F90880E00E94200655
:1000C00081E00E94200682E00E94200683E00E94D8
:1000D000200680E00E946E0681E00E946E0682E0AB
:1000E0000E946E0683E00E946E060895CF93DF9310
:1000F00000D0CDB7DEB719821A821092A6001092F6
:10010000A7001092A8001092A90088E893E10E942D
:10011000D2096093AA007093AB008093AC009093D7
:10012000AD000E94BC0939C061E080E00E947D05FD
:1001300080E690E00E946A05AE014F5F5F4F63E08A
:1001400083E00E94780364E670E080E090E00E9423
:10015000F908AE014F5F5F4F63E083E00E947803D0
:1001600089818823D1F08091AE008F5F8093AE00AB
:10017000813041F461E00E947D058DE690E00E94AF
:100180006A050AC0823041F461E081E00E947D0589
:100190008BE790E00E946A0519824091A600509179
:1001A000A7006091A8007091A9008091AA00909189
:1001B000AB00A091AC00B091AD00481759076A0799
:1001C0007B0708F4B1CF0E94C709CE0102960E94B6
:1001D000F6038A818133C9F781E00E94990464E1C2
:1001E00070E080E090E00E94F90862E080E00E9408
:1001F0007D058AE890E00E946A0560ED77E080E086
:1002000090E00E94F90881E00E94990464E170E0A6
:1002100080E090E00E94F90861E080E00E947D05A6
:1002200084E990E00E946A0568E080E00E947D0514
:1002300083E50E9423058AE30E94230561E081E0B3
:100240000E947D0589E990E00E946A050F900F9059
:10025000DF91CF9108951092A6001092A7001092FE
:10026000A8001092A9001092AA001092AB00109260
:10027000AC001092AD000E94340788E893E10E9420
:10028000D2096093AA007093AB008093AC00909366
:10029000AD009FC0AFE9B6E40E942E0B880F892FF6
:1002A000881F990B91958093B2000E94BC0938C0B9
:1002B00080E00E94080781E00E94080782E00E9417
:1002C000080783E00E9408076AE080E00E947D053D
:1002D0008EE990E00E946A0560EE74EC80E090E0A8
:1002E0000E94350980E00E94E20681E00E94E20659
:1002F00082E00E94E20683E00E94E20665E080E080
:100300000E947D056091B20070E080E090E00E9464
:10031000950565E081E00E947D0586E40E94230545
:100320004091A6005091A7006091A8007091A9008B
:100330008091AA009091AB00A091AC00B091AD006B
:10034000481759076A077B0740F48091B0009091E5
:10035000B100803B904808F0ABCF0E94C70980E015
:100360000E94080781E00E94080782E00E940807B7
:1003700083E00E9408076AE080E00E947D0582EA2F
:1003800090E00E946A0560E570E580E090E00E94E0
:10039000350980E00E94E20681E00E94E20682E0E8
:1003A0000E94E20683E00E94E20665E080E00E948F
:1003B0007D056091B20070E080E090E00E949505BC
:1003C00065E081E00E947D0586E40E9423050E948D
:1003D00034072091B0003091B100203B80E838070D
:1003E00008F058CF3AC080E00E94080781E00E94E0
:1003F000080782E00E94080783E00E9408076AE07D
:1004000080E00E947D0582EA90E00E946A0560E536
:1004100070E580E090E00E94350980E00E94E206ED
:1004200081E00E94E20682E00E94E20683E00E94F0
:10043000E20665E080E00E947D056091B20070E018
:1004400080E090E00E94950565E081E00E947D05D6
:1004500086E40E9423050E9434078091B0009091A9
:10046000B1008036964308F0BECF1092A6001092DD
:10047000A7001092A8001092A90084EF91E00E94BA
:10048000D2096093AA007093AB008093AC00909364
:10049000AD0048C080E00E94E20681E00E94E206D2
:1004A00082E00E94E20683E00E94E2066AE080E0C9
:1004B0000E947D0582EA90E00E946A0565E080E086
:1004C0000E947D056091B20070E080E090E00E94A3
:1004D000950565E081E00E947D0582E50E94230587
:1004E0000E94BC0906C082E00E94080783E00E94C7
:1004F00008074091A6005091A7006091A800709154
:10050000A9008091AA009091AB00A091AC00B0919D
:10051000AD00481759076A077B0728F30E94C709EF
:100520000E9434078091B0009091B10080549442B1
:100530008032924108F4AECF52C080E00E94A806FB
:1005400081E00E94A80682E00E94A80683E00E9443
:10055000A80632C080E00E94080781E00E940807D8
:1005600082E00E94080783E00E94080765E080E0BF
:100570000E947D0560E570E580E090E00E9435090D
:1005800080E00E94E20681E00E94E20682E00E9492
:10059000E20683E00E94E2066091B20070E080E033
:1005A00090E00E94950565E081E00E947D0582E46F
:1005B0000E9423050E9434078091B0009091B10001
:1005C0008031964238F280E00E946E0681E00E94FF
:1005D0006E0682E00E946E0683E00E946E068091A5
:1005E000B0009091B1008034944208F4A6CF0895F1
:1005F0001F920F920FB60F9211242F933F934F9398
:100600005F936F937F938F939F93AF93BF93EF937A
:10061000FF938091AF008F5F8093AF00813019F41A
:100620000E94AF031FC08230E9F40E94B5030E940C
:100630009D039093B1008093B00080E090E00E9411
:10064000B2031092AF002091B0003091B100AFE939
:10065000B6E40E942E0B880F892F881F990B919565
:100660008093B200FF91EF91BF91AF919F918F91D5
:100670007F916F915F914F913F912F910F900FBE9E
:100680000F901F9018951F920F920FB60F92112482
:100690000F900FBE0F901F9018951F920F920FB6DC
:1006A0000F9211248F939F93AF93BF938091A600D5
:1006B0009091A700A091A800B091A9000196A11D5A
:1006C000B11D8093A6009093A700A093A800B093BB
:1006D000A900BF91AF919F918F910F900FBE0F9086
:1006E0001F90189540E063E083E00E944C07089556
:1006F0000F931F93CF93DF931F92CDB7DEB78A017D
:100700001982AE014F5F5F4F0E944A08811105C0F8
:100710008981F801808381E004C08981F8018083A8
:1007200080E00F90DF91CF911F910F9108950E946B
:1007300069090E94C60880E00895CF93DF9300D036
:10074000CDB7DEB71A821982CE0101960E949C09AC
:1007500089819A810F900F90DF91CF9108950E9427
:10076000840908950E94A20908950E94910908959C
:1007700041E065E083E00E944C0741E066E083E0F1
:100780000E944C0741E067E083E00E944C0740E094
:1007900060E083E00E944C0740E061E083E00E945B
:1007A0004C0740E064E083E00E944C0741E065E0D4
:1007B00083E00E94CB0741E066E083E00E94CB0724
:1007C00041E067E083E00E94CB0741E060E083E026
:1007D0000E94CB0741E061E083E00E94CB0741E04B
:1007E00064E083E00E94CB0780E00895EF92FF92DF
:1007F0000F931F93CF93DF9300D000D000D0CDB7DD
:10080000DEB77C0185E0898386E08A8387E08B837D
:100810001C8281E08D8384E08E8300E079C0033008
:1008200039F440E060E083E00E94CB0710E062C052
:10083000E1E0F0E0EC0FFD1FE00FF11D40E0608112
:1008400083E00E94CB07F2CFE4E0F0E0EC0FFD1F65
:10085000E10FF11DA701608183E00E944A08F701C2
:100860008081811146C0011111C0111103C081E3C3
:10087000808333C0113021F482E3F70180832DC0DF
:10088000123059F583E3F701808327C0013091F4DA
:10089000111104C084E3F70180831FC0113021F4DB
:1008A00085E3F701808319C01230B9F486E3F701BC
:1008B000808313C0023089F4111104C087E3F7016B
:1008C00080830BC0113021F488E3F701808305C0D9
:1008D000123019F489E3F7018083E1E0F0E0EC0FD6
:1008E000FD1FE00FF11D608183E00E94880880E019
:1008F00013C01F5F133008F4A7CFE1E0F0E0EC0F66
:10090000FD1FE00FF11D608183E00E9488080F5FEA
:10091000033008F484CF81E026960FB6F894DEBF4A
:100920000FBECDBFDF91CF911F910F91FF90EF9040
:100930000895CF93C82F0E94D20840E061E080E084
:100940000E94CB0740E062E080E00E94CB0740E0DD
:1009500063E080E00E94CB078BB39C2F907F8F7069
:10096000892B8BBB41E063E080E00E94CB0761E014
:1009700070E080E090E00E94F90840E063E080E0F1
:100980000E94CB0720E1C29FC00111249BB39F703E
:10099000892B8BBB41E063E080E00E94CB0761E0E4
:1009A00070E080E090E00E94F90840E063E080E0C1
:1009B0000E94CB0765E070E080E090E00E94F908BB
:1009C000CF9108950E94D20841E061E080E00E944A
:1009D0004C0741E062E080E00E944C0741E063E0A8
:1009E00080E00E944C0741E064E080E00E944C07F8
:1009F00041E065E080E00E944C0741E066E080E075
:100A00000E944C0741E067E080E00E944C0764E1EF
:100A100070E080E090E00E94F90883E30E9499046E
:100A200082E30E94990488E20E9499048CE00E946B
:100A3000990486E00E94990482E00E94990481E072
:100A40000E9499040895CF93C82F41E061E080E0AF
:100A50000E94CB0740E062E080E00E94CB0740E0CC
:100A600063E080E00E94CB078BB39C2F907F8F7058
:100A7000892B8BBB41E063E080E00E94CB0761E003
:100A800070E080E090E00E94F90840E063E080E0E0
:100A90000E94CB0720E1C29FC00111249BB39F702D
:100AA000892B8BBB41E063E080E00E94CB0761E0D3
:100AB00070E080E090E00E94F90840E063E080E0B0
:100AC0000E94CB0765E070E080E090E00E94F908AA
:100AD000CF9108950F931F93CF938C01C0E003C073
:100AE0000E942305CF5FF801EC0FF11D8081811179
:100AF000F7CFCF911F910F910895CF93DF9300D03F
:100B0000CDB7DEB790E8998390EC9A83E1E0F0E00E
:100B1000EC0FFD1FE80FF11D8081860F0E949904E4
:100B20000F900F90DF91CF9108951F93CF93DF9394
:100B3000CDB7DEB72A970FB6F894DEBF0FBECDBF94
:100B40009923DCF590958095709561957F4F8F4F37
:100B50009F4F10E013C02AE030E040E050E00E94D8
:100B60000F0BE1E0F0E0EC0FFD1FE10FF11D605D08
:100B70006083622F732F842F952F1F5F1616170621
:100B80001806190644F3E1E0F0E0EC0FFD1FE10F59
:100B9000F11D8DE280831F5F0DC0E12FF0E03197E2
:100BA00081E090E08C0F9D1FE80FF91F80810E946B
:100BB000230511501111F1CF39C06115710581055F
:100BC000910521F480E30E94230530C01616170614
:100BD00018061906ACF02AC02AE030E040E050E0E8
:100BE0000E940F0BE1E0F0E0EC0FFD1FE10FF11DA3
:100BF000605D6083622F732F842F952F1F5F01C06C
:100C000010E0161617061806190634F30DC0E12F6A
:100C1000F0E0319781E090E08C0F9D1FE80FF91F05
:100C200080810E94230511501111F1CF2A960FB631
:100C3000F894DEBF0FBECDBFDF91CF911F91089515
:100C40008130B9F028F0823029F18330A1F144C01D
:100C500041E060E081E00E944C0741E061E081E01A
:100C60000E944C0741E062E081E00E944C0780E076
:100C7000089541E063E081E00E944C0741E064E0B8
:100C800081E00E944C0741E065E081E00E944C0752
:100C900080E0089541E060E082E00E944C0741E07E
:100CA00061E082E00E944C0741E062E082E00E9445
:100CB0004C0780E0089541E063E082E00E944C0729
:100CC00041E064E082E00E944C0741E065E082E0A0
:100CD0000E944C0780E0089581E00895813091F0F2
:100CE00028F08230D9F0833029F130C041E060E053
:100CF00081E00E94CB0740E061E081E00E94CB07E9
:100D000080E0089541E063E081E00E94CB0740E08D
:100D100064E081E00E94CB0780E0089541E060E05C
:100D200082E00E94CB0740E061E082E00E94CB07B6
:100D300080E0089541E063E082E00E94CB0740E05C
:100D400064E082E00E94CB0780E0089581E008958E
:100D5000813091F028F08230D9F0833029F130C011
:100D600040E060E081E00E94CB0741E061E081E08B
:100D70000E94CB0780E0089540E063E081E00E949C
:100D8000CB0741E064E081E00E94CB0780E008955A
:100D900040E060E082E00E94CB0741E061E082E059
:100DA0000E94CB0780E0089540E063E082E00E946B
:100DB000CB0741E064E082E00E94CB0780E0089529
:100DC00081E00895813069F028F0823089F0833025
:100DD000B1F01CC040E062E081E00E94CB0780E0FF
:100DE000089540E065E081E00E94CB0780E008952F
:100DF00040E062E082E00E94CB0780E0089540E09E
:100E000065E082E00E94CB0780E0089581E00895CC
:100E1000813069F028F0823089F08330B1F01CC055
:100E200041E062E081E00E94CB0780E0089541E06C
:100E300065E081E00E94CB0780E0089541E062E038
:100E400082E00E94CB0780E0089541E065E082E007
:100E50000E94CB0780E0089581E0089541E060E0C2
:100E600080E00E944C07089541E060E080E00E942D
:100E7000CB076FE070E080E090E00E94350940E031
:100E800060E080E00E94CB0708950E9449000E9424
:100E900076000E942B01FDCF442319F04130E9F187
:100EA00074C0813099F028F08230E9F0833041F14C
:100EB0006EC02AB381E090E002C0880F991F6A9546
:100EC000E2F7809582238ABB80E0089527B381E012
:100ED00090E002C0880F991F6A95E2F780958223FF
:100EE00087BB80E0089524B381E090E002C0880FC2
:100EF000991F6A95E2F78095822384BB80E008956C
:100F000021B381E090E002C0880F991F6A95E2F753
:100F10008095822381BB80E00895813091F028F094
:100F20008230D9F0833029F134C02AB381E090E0D7
:100F300002C0880F991F6A95E2F7822B8ABB80E076
:100F4000089527B381E090E002C0880F991F6A9549
:100F5000E2F7822B87BB80E0089524B381E090E024
:100F600002C0880F991F6A95E2F7822B84BB80E04C
:100F7000089521B381E090E002C0880F991F6A951F
:100F8000E2F7822B81BB80E0089581E0089581E043
:100F9000089581E00895442319F04130E9F174C0C7
:100FA000813099F028F08230E9F0833041F16EC051
:100FB0002BB381E090E002C0880F991F6A95E2F799
:100FC000809582238BBB80E0089528B381E090E078
:100FD00002C0880F991F6A95E2F78095822388BB2B
:100FE00080E0089525B381E090E002C0880F991F4A
:100FF0006A95E2F78095822385BB80E0089522B34D
:1010000081E090E002C0880F991F6A95E2F7809511
:10101000822382BB80E00895813091F028F08230F5
:10102000D9F0833029F134C02BB381E090E002C0C5
:10103000880F991F6A95E2F7822B8BBB80E0089599
:1010400028B381E090E002C0880F991F6A95E2F70B
:10105000822B88BB80E0089525B381E090E002C038
:10106000880F991F6A95E2F7822B85BB80E008956F
:1010700022B381E090E002C0880F991F6A95E2F7E1
:10108000822B82BB80E0089581E0089581E008957D
:1010900081E00895813099F028F08230E9F08330C2
:1010A00041F134C089B390E002C0959587956A9567
:1010B000E2F7817089BBFA01808380E0089586B3EE
:1010C00090E002C0959587956A95E2F7817086BB9E
:1010D000FA01808380E0089583B390E002C0959583
:1010E00087956A95E2F7817083BBFA01808380E07F
:1010F000089580B390E002C0959587956A95E2F7D0
:10110000817080BBFA01808380E0089581E00895BA
:10111000813091F028F08230D9F0833029F130C04D
:101120002BB381E090E002C0880F991F6A95E2F727
:1011300082278BBB80E0089528B381E090E002C055
:10114000880F991F6A95E2F7822788BB80E008958F
:1011500025B381E090E002C0880F991F6A95E2F7FD
:10116000822785BB80E0089522B381E090E002C031
:10117000880F991F6A95E2F7822782BB80E0089565
:1011800081E008958FB780688FBF08950E94C208DC
:1011900085B7816085BF85B78D7F85BF8BB780643C
:1011A0008BBF089583B78F7783BF83B78F7B83BF50
:1011B00083B7877F83BF83B78F7E83BF83B78F7DDE
:1011C00083BF80E0089583B7816083BF83B78D7F3D
:1011D00083BF83B78B7F83BF80E0089583B78E7F03
:1011E00083BF83B78D7F83BF83B78B7F83BF80E04F
:1011F00008950E94810A2FE632E143E05DE30E94F8
:10120000E0090E94520A6093B3007093B400809387
:10121000B5009093B60012BE0E94E30840E050E093
:10122000BA010AC008B600FEFDCF88B7816088BF4A
:101230004F5F5F4F6F4F7F4F8091B3009091B4002D
:10124000A091B500B091B600481759076A077B070F
:1012500048F31092B3001092B4001092B5001092AF
:10126000B6000E94EE0880E00895DC01CB0168948E
:1012700014F8B695A795979587951694D1F780930E
:10128000B3009093B400A093B500B093B60012BE23
:101290000E94E30840E050E0BA010AC008B600FE30
:1012A000FDCF88B7816088BF4F5F5F4F6F4F7F4F23
:1012B0008091B3009091B400A091B500B091B600B8
:1012C000481759076A077B0748F30E94EE0880E039
:1012D00008958FB58E7F8FBD8FB58D7F8FBD8EB5F5
:1012E000877F8EBD8EB58F7E8EBD8FB584608FBD9E
:1012F0008FB588608FBD8FB780688FBF89B79AB769
:1013000084609ABF89BF08951DBC1CBC8EB58160E6
:101310008EBD8EB58D7F8EBD8EB58B7F8EBD80E0F0
:1013200008958EB58E7F8EBD8EB58D7F8EBD8EB5A8
:101330008B7F8EBD81E008952CB53DB5FC013183D6
:10134000208308959DBD8CBD089585B58F7785BD9B
:1013500085B58F7B85BD85B5877F85BD85B58F7E3E
:1013600085BD85B58F7D85BD8FB780688FBF89B7F7
:10137000806489BF80E0089585B5816085BD85B5AD
:101380008D7F85BD85B58B7F85BD80E0089585B552
:101390008E7F85BD85B58D7F85BD85B58B7F85BDF0
:1013A00080E00895BC0180E090E00E94810A2FE671
:1013B00032E143E05DE30E94E0090E94520A089591
:1013C0000E94F4090C94D50A0E94CE0A58F00E949B
:1013D000C70A40F029F45F3F29F00C94BE0A51116E
:1013E0000C94090B0C94C40A0E94E60A68F3992332
:1013F000B1F3552391F3951B550BBB27AA27621711
:101400007307840738F09F5F5F4F220F331F441F1D
:10141000AA1FA9F335D00E2E3AF0E0E832D0915051
:101420005040E695001CCAF72BD0FE2F29D0660F3E
:10143000771F881FBB1F261737074807AB07B0E881
:1014400009F0BB0B802DBF01FF2793585F4F3AF087
:101450009E3F510578F00C94BE0A0C94090B5F3F37
:10146000E4F3983ED4F3869577956795B795F7950D
:101470009F5FC9F7880F911D9695879597F90895F5
:10148000E1E0660F771F881FBB1F62177307840791
:10149000BA0720F0621B730B840BBA0BEE1F88F7A0
:1014A000E09508950E94EE0A88F09F5798F0B92FB2
:1014B0009927B751B0F0E1F0660F771F881F991F89
:1014C0001AF0BA95C9F714C0B13091F00E94080B18
:1014D000B1E008950C94080B672F782F8827B85F28
:1014E00039F0B93FCCF3869577956795B395D9F7E1
:1014F0003EF490958095709561957F4F8F4F9F4FEB
:101500000895E89409C097FB3EF4909580957095F6
:1015100061957F4F8F4F9F4F9923A9F0F92F96E93F
:10152000BB279395F695879577956795B795F111B4
:10153000F8CFFAF4BB0F11F460FF1BC06F5F7F4F51
:101540008F4F9F4F16C0882311F096E911C0772363
:1015500021F09EE8872F762F05C0662371F096E86C
:10156000862F70E060E02AF09A95660F771F881F3B
:10157000DAF7880F9695879597F9089597F99F67F9
:1015800080E870E060E008959FEF80EC089500240B
:101590000A941616170618060906089500240A94D8
:1015A00012161306140605060895092E0394000C5E
:1015B00011F4882352F0BB0F40F4BF2B11F460FFED
:1015C00004C06F5F7F4F8F4F9F4F089557FD905816
:1015D000440F551F59F05F3F71F04795880F97FBF7
:1015E000991F61F09F3F79F08795089512161306B1
:1015F0001406551FF2CF4695F1DF08C016161706E0
:101600001806991FF1CF8695710561050894089514
:10161000E894BB2766277727CB0197F90895052E15
:1016200097FB1EF400940E94260B57FD07D00E94E2
:101630003D0B07FC03D04EF40C94260B50954095BF
:10164000309521953F4F4F4F5F4F0895909580956E
:10165000709561957F4F8F4F9F4F0895A29FB00166
:10166000B39FC001A39F700D811D1124911DB29FD6
:10167000700D811D1124911D0895A1E21A2EAA1B3F
:10168000BB1BFD010DC0AA1FBB1FEE1FFF1FA21732
:10169000B307E407F50720F0A21BB30BE40BF50B2F
:1016A000661F771F881F991F1A9469F760957095B8
:1016B000809590959B01AC01BD01CF010895F894F0
:0216C000FFCF5A
:1016C200536574204465662E20526F74004C454663
:1016D2005420524F544154494F4E005249474854A6
:1016E20020524F544154494F4E0057414954494E9C
:1016F200472E2E004469733A004469723A0035302D
:0617020025003330250034
:00000001FF
