:100000000C942A000C94B1020C9447000C94470005
:100010000C9447000C9406030C9447000C94470082
:100020000C9447000C94FC020C9447000C9447007D
:100030000C9447000C9447000C9447000C94470024
:100040000C9447000C9447000C9447000C94470014
:100050000C94470011241FBECFE5D8E0DEBFCDBF12
:1000600010E0A0E6B0E0E4E3F6E102C005900D92F6
:10007000A439B107D9F720E0A4E9B0E001C01D928E
:10008000A53AB207E1F70E94FE060C94180B0C94F7
:1000900000000E9450030E94E7060E948B080E9405
:1000A0005E090E9471030E942B030E949B0462E37D
:1000B00070E080E090E00E94B20880E00E94D905E4
:1000C00081E00E94D90582E00E94D90583E00E9468
:1000D000D90580E00E94270681E00E94270682E081
:1000E0000E94270683E00E9427060895CF93DF939E
:1000F00000D0CDB7DEB719821A8210929400109208
:100100009500109296001092970088E893E10E9463
:100110008B09609398007093990080939A00909354
:100120009B000E94750939C061E080E00E9436059D
:1001300080E690E00E942305AE014F5F5F4F63E0D1
:1001400083E00E94310364E670E080E090E00E946A
:10015000B208AE014F5F5F4F63E083E00E9431035E
:1001600089818823D1F080919C008F5F80939C00CF
:10017000813041F461E00E9436058DE690E00E94F6
:1001800023050AC0823041F461E081E00E94360517
:100190008BE790E00E9423051982409194005091D2
:1001A00095006091960070919700809198009091D1
:1001B0009900A0919A00B0919B00481759076A07CF
:1001C0007B0708F4B1CF0E948009CE0102960E94FD
:1001D000AF038A818133C9F781E00E94520464E150
:1001E00070E080E090E00E94B20862E080E00E944F
:1001F00036058AE890E00E94230560ED77E080E014
:1002000090E00E94B20881E00E94520464E170E034
:1002100080E090E00E94B2080F900F90DF91CF91A4
:1002200008951092940010929500109296001092EA
:100230009700109298001092990010929A001092D4
:100240009B000E94ED0688E893E10E948B09609371
:1002500098007093990080939A0090939B0086C0B9
:10026000AFE9B6E40E94E70A880F892F881F990B2F
:1002700091958093A0000E9475092FC080E00E9494
:10028000C10681E00E94C10682E00E94C10683E0AF
:100290000E94C10661E080E00E94360560EE74ECC9
:1002A00080E090E00E94EE0880E00E949B0681E0E2
:1002B0000E949B0682E00E949B0683E00E949B06B0
:1002C00084E40E94DC048AE30E94DC046091A000C4
:1002D00070E080E090E00E944E05409194005091C3
:1002E0009500609196007091970080919800909190
:1002F0009900A0919A00B0919B00481759076A078E
:100300007B0708F4BBCF0E94800980E00E94C106F1
:1003100081E00E94C10682E00E94C10683E00E9443
:10032000C10661E080E00E94360560E570E580E08E
:1003300090E00E94EE0880E00E949B0681E00E940F
:100340009B0682E00E949B0683E00E949B0684E459
:100350000E94DC048AE30E94DC046091A00070E04B
:1003600080E090E00E944E050E94ED0620919E00E4
:1003700030919F00203B80E8380708F071CF31C0F2
:1003800080E00E94C10681E00E94C10682E00E94D6
:10039000C10683E00E94C10661E080E00E9436054C
:1003A00060E570E580E090E00E94EE0880E00E9449
:1003B0009B0681E00E949B0682E00E949B0683E0F0
:1003C0000E949B0684E40E94DC048AE30E94DC0411
:1003D0006091A00070E080E090E00E944E050E94D5
:1003E000ED0680919E0090919F008036964340F6E6
:1003F000109294001092950010929600109297001F
:1004000084EF91E00E948B096093980070939900AB
:1004100080939A0090939B003FC080E00E949B06CF
:1004200081E00E949B0682E00E949B0683E00E947E
:100430009B0661E080E00E94360584E40E94DC04B3
:100440008AE30E94DC046091A00070E080E090E00C
:100450000E944E050E94750906C082E00E94C106F6
:1004600083E00E94C10640919400509195006091F4
:100470009600709197008091980090919900A091BA
:100480009A00B0919B00481759076A077B0728F329
:100490000E9480090E94ED0680919E0090919F002D
:1004A000805494428032924108F4B7CF51C080E02A
:1004B0000E94610681E00E94610682E00E9461065E
:1004C00083E00E94610631C080E00E94C10681E0A5
:1004D0000E94C10682E00E94C10683E00E94C1061C
:1004E00061E080E00E94360560E570E580E090E024
:1004F0000E94EE0880E00E949B0681E00E949B061D
:1005000082E00E949B0683E00E949B0684E40E9496
:10051000DC048AE30E94DC046091A00070E080E0CB
:1005200090E00E944E050E94ED0680919E00909101
:100530009F008031964240F280E00E94270681E0D1
:100540000E94270682E00E94270683E00E94270679
:1005500080919E0090919F008034944208F4A7CF30
:1005600008951F920F920FB60F9211242F933F936D
:100570004F935F936F937F938F939F93AF93BF93AB
:10058000EF93FF9380919D008F5F80939D0081305A
:1005900019F40E9468031FC08230E9F40E946E03C0
:1005A0000E94560390939F0080939E0080E090E00D
:1005B0000E946B0310929D0020919E0030919F003D
:1005C000AFE9B6E40E94E70A880F892F881F990BCC
:1005D00091958093A000FF91EF91BF91AF919F9172
:1005E0008F917F916F915F914F913F912F910F90DC
:1005F0000FBE0F901F9018951F920F920FB60F927B
:1006000011240F900FBE0F901F9018951F920F92FC
:100610000FB60F9211248F939F93AF93BF93809146
:10062000940090919500A0919600B091970001964A
:10063000A11DB11D8093940090939500A093960006
:10064000B0939700BF91AF919F918F910F900FBE84
:100650000F901F90189540E063E083E00E9405072B
:1006600008950F931F93CF93DF931F92CDB7DEB7FB
:100670008A011982AE014F5F5F4F0E94030881110A
:1006800005C08981F801808381E004C08981F80177
:10069000808380E00F90DF91CF911F910F9108959B
:1006A0000E9422090E947F0880E00895CF93DF9383
:1006B00000D0CDB7DEB71A821982CE0101960E9412
:1006C000550989819A810F900F90DF91CF910895FC
:1006D0000E943D0908950E945B0908950E944A09FD
:1006E000089541E065E083E00E94050741E066E08F
:1006F00083E00E94050741E067E083E00E94050770
:1007000040E060E083E00E94050740E061E083E0B4
:100710000E94050740E064E083E00E94050741E095
:1007200065E083E00E94840741E066E083E00E9488
:10073000840741E067E083E00E94840741E060E0D5
:1007400083E00E94840741E061E083E00E94840727
:1007500041E064E083E00E94840780E00895EF9226
:10076000FF920F931F93CF93DF9300D000D000D060
:10077000CDB7DEB77C0185E0898386E08A8387E098
:100780008B831C8281E08D8384E08E8300E079C0BE
:10079000033039F440E060E083E00E94840710E019
:1007A00062C0E1E0F0E0EC0FFD1FE00FF11D40E062
:1007B000608183E00E948407F2CFE4E0F0E0EC0F78
:1007C000FD1FE10FF11DA701608183E00E94030876
:1007D000F7018081811146C0011111C0111103C0C0
:1007E00081E3808333C0113021F482E3F7018083F9
:1007F0002DC0123059F583E3F701808327C0013003
:1008000091F4111104C084E3F70180831FC01130FB
:1008100021F485E3F701808319C01230B9F486E32F
:10082000F701808313C0023089F4111104C087E3FB
:10083000F70180830BC0113021F488E3F701808336
:1008400005C0123019F489E3F7018083E1E0F0E09C
:10085000EC0FFD1FE00FF11D608183E00E94410855
:1008600080E013C01F5F133008F4A7CFE1E0F0E091
:10087000EC0FFD1FE00FF11D608183E00E94410835
:100880000F5F033008F484CF81E026960FB6F8940A
:10089000DEBF0FBECDBFDF91CF911F910F91FF90B3
:1008A000EF900895CF93C82F0E948B0840E061E03D
:1008B00080E00E94840740E062E080E00E948407BC
:1008C00040E063E080E00E9484078BB39C2F907F20
:1008D0008F70892B8BBB41E063E080E00E9484072E
:1008E00061E070E080E090E00E94B20840E063E0E8
:1008F00080E00E94840720E1C29FC00111249BB3C5
:100900009F70892B8BBB41E063E080E00E948407ED
:1009100061E070E080E090E00E94B20840E063E0B7
:1009200080E00E94840765E070E080E090E00E9433
:10093000B208CF9108950E948B0841E061E080E009
:100940000E94050741E062E080E00E94050741E067
:1009500063E080E00E94050741E064E080E00E94DF
:10096000050741E065E080E00E94050741E066E0A0
:1009700080E00E94050741E067E080E00E940507F3
:1009800064E170E080E090E00E94B20883E30E949E
:10099000520482E30E94520488E20E9452048CE0D6
:1009A0000E94520486E00E94520482E00E94520497
:1009B00081E00E9452040895CF93C82F41E061E086
:1009C00080E00E94840740E062E080E00E948407AB
:1009D00040E063E080E00E9484078BB39C2F907F0F
:1009E0008F70892B8BBB41E063E080E00E9484071D
:1009F00061E070E080E090E00E94B20840E063E0D7
:100A000080E00E94840720E1C29FC00111249BB3B3
:100A10009F70892B8BBB41E063E080E00E948407DC
:100A200061E070E080E090E00E94B20840E063E0A6
:100A300080E00E94840765E070E080E090E00E9422
:100A4000B208CF9108950F931F93CF938C01C0E00C
:100A500003C00E94DC04CF5FF801EC0FF11D808120
:100A60008111F7CFCF911F910F910895CF93DF930D
:100A700000D0CDB7DEB790E8998390EC9A83E1E09F
:100A8000F0E0EC0FFD1FE80FF11D8081860F0E9442
:100A900052040F900F90DF91CF9108951F93CF9341
:100AA000DF93CDB7DEB72A970FB6F894DEBF0FBE3F
:100AB000CDBF9923DCF590958095709561957F4F1A
:100AC0008F4F9F4F10E013C02AE030E040E050E02D
:100AD0000E94C80AE1E0F0E0EC0FFD1FE10FF11DFC
:100AE000605D6083622F732F842F952F1F5F161612
:100AF00017061806190644F3E1E0F0E0EC0FFD1FBD
:100B0000E10FF11D8DE280831F5F0DC0E12FF0E04A
:100B1000319781E090E08C0F9D1FE80FF91F8081D5
:100B20000E94DC0411501111F1CF39C0611571051B
:100B30008105910521F480E30E94DC0430C0161683
:100B4000170618061906ACF02AC02AE030E040E08B
:100B500050E00E94C80AE1E0F0E0EC0FFD1FE10F59
:100B6000F11D605D6083622F732F842F952F1F5FAF
:100B700001C010E0161617061806190634F30DC04A
:100B8000E12FF0E0319781E090E08C0F9D1FE80F9E
:100B9000F91F80810E94DC0411501111F1CF2A96B7
:100BA0000FB6F894DEBF0FBECDBFDF91CF911F917E
:100BB00008958130B9F028F0823029F18330A1F115
:100BC00044C041E060E081E00E94050741E061E04F
:100BD00081E00E94050741E062E081E00E94050794
:100BE00080E0089541E063E081E00E94050741E074
:100BF00064E081E00E94050741E065E081E00E9439
:100C0000050780E0089541E060E082E00E9405076A
:100C100041E061E082E00E94050741E062E082E09D
:100C20000E94050780E0089541E063E082E00E94B1
:100C3000050741E064E082E00E94050741E065E0CD
:100C400082E00E94050780E0089581E008958130E8
:100C500091F028F08230D9F0833029F130C041E0A2
:100C600060E081E00E94840740E061E081E00E9452
:100C7000840780E0089541E063E081E00E948407FA
:100C800040E064E081E00E94840780E0089541E054
:100C900060E082E00E94840740E061E082E00E9420
:100CA000840780E0089541E063E082E00E948407C9
:100CB00040E064E082E00E94840780E0089581E0E3
:100CC0000895813091F028F08230D9F0833029F1F5
:100CD00030C040E060E081E00E94840741E061E0D4
:100CE00081E00E94840780E0089540E063E081E0B5
:100CF0000E94840741E064E081E00E94840780E074
:100D0000089540E060E082E00E94840741E061E0F5
:100D100082E00E94840780E0089540E063E082E082
:100D20000E94840741E064E082E00E94840780E042
:100D3000089581E00895813069F028F0823089F0CB
:100D40008330B1F01CC040E062E081E00E94840783
:100D500080E0089540E065E081E00E94840780E043
:100D6000089540E062E082E00E94840780E00895F8
:100D700040E065E082E00E94840780E0089581E021
:100D80000895813069F028F0823089F08330B1F025
:100D90001CC041E062E081E00E94840780E0089589
:100DA00041E065E081E00E94840780E0089541E031
:100DB00062E082E00E94840780E0089541E065E0FF
:100DC00082E00E94840780E0089581E0089541E078
:100DD00060E080E00E940507089541E060E080E067
:100DE0000E9484076FE070E080E090E00E94EE08CF
:100DF00040E060E080E00E94840708950E9449007E
:100E00000E9476000E941101FDCF442319F0413069
:100E1000E9F174C0813099F028F08230E9F0833034
:100E200041F16EC02AB381E090E002C0880F991FA3
:100E30006A95E2F7809582238ABB80E0089527B304
:100E400081E090E002C0880F991F6A95E2F78095D3
:100E5000822387BB80E0089524B381E090E002C044
:100E6000880F991F6A95E2F78095822384BB80E002
:100E7000089521B381E090E002C0880F991F6A9520
:100E8000E2F78095822381BB80E00895813091F064
:100E900028F08230D9F0833029F134C02AB381E0C0
:100EA00090E002C0880F991F6A95E2F7822B8ABBF7
:100EB00080E0089527B381E090E002C0880F991F79
:100EC0006A95E2F7822B87BB80E0089524B381E026
:100ED00090E002C0880F991F6A95E2F7822B84BBCD
:100EE00080E0089521B381E090E002C0880F991F4F
:100EF0006A95E2F7822B81BB80E0089581E0089536
:100F000081E0089581E00895442319F04130E9F12A
:100F100074C0813099F028F08230E9F0833041F1DB
:100F20006EC02BB381E090E002C0880F991F6A95D4
:100F3000E2F7809582238BBB80E0089528B381E09F
:100F400090E002C0880F991F6A95E2F7809582238E
:100F500088BB80E0089525B381E090E002C0880F4F
:100F6000991F6A95E2F78095822385BB80E00895FA
:100F700022B381E090E002C0880F991F6A95E2F7E2
:100F80008095822382BB80E00895813091F028F023
:100F90008230D9F0833029F134C02BB381E090E066
:100FA00002C0880F991F6A95E2F7822B8BBB80E005
:100FB000089528B381E090E002C0880F991F6A95D8
:100FC000E2F7822B88BB80E0089525B381E090E0B2
:100FD00002C0880F991F6A95E2F7822B85BB80E0DB
:100FE000089522B381E090E002C0880F991F6A95AE
:100FF000E2F7822B82BB80E0089581E0089581E0D2
:10100000089581E00895813099F028F08230E9F068
:10101000833041F134C089B390E002C09595879543
:101020006A95E2F7817089BBFA01808380E00895B8
:1010300086B390E002C0959587956A95E2F7817036
:1010400086BBFA01808380E0089583B390E002C0FC
:10105000959587956A95E2F7817083BBFA01808345
:1010600080E0089580B390E002C0959587956A95D9
:10107000E2F7817080BBFA01808380E0089581E00F
:101080000895813091F028F08230D9F0833029F131
:1010900030C02BB381E090E002C0880F991F6A95A1
:1010A000E2F782278BBB80E0089528B381E090E0CF
:1010B00002C0880F991F6A95E2F7822788BB80E0FB
:1010C000089525B381E090E002C0880F991F6A95CA
:1010D000E2F7822785BB80E0089522B381E090E0AB
:1010E00002C0880F991F6A95E2F7822782BB80E0D1
:1010F000089581E008958FB780688FBF08950E949A
:101100007B0885B7816085BF85B78D7F85BF8BB72D
:1011100080648BBF089583B78F7783BF83B78F7B3E
:1011200083BF83B7877F83BF83B78F7E83BF83B738
:101130008F7D83BF80E0089583B7816083BF83B7CD
:101140008D7F83BF83B78B7F83BF80E0089583B794
:101150008E7F83BF83B78D7F83BF83B78B7F83BF32
:1011600080E008950E943A0A2FE632E143E05DE311
:101170000E9499090E940B0A6093A1007093A2003B
:101180008093A3009093A40012BE0E949C0840E0AC
:1011900050E0BA010AC008B600FEFDCF88B78160F2
:1011A00088BF4F5F5F4F6F4F7F4F8091A10090913D
:1011B000A200A091A300B091A400481759076A07A4
:1011C0007B0748F31092A1001092A2001092A30096
:1011D0001092A4000E94A70880E00895DC01CB01D2
:1011E000689414F8B695A795979587951694D1F7B6
:1011F0008093A1009093A200A093A300B093A400B9
:1012000012BE0E949C0840E050E0BA010AC008B635
:1012100000FEFDCF88B7816088BF4F5F5F4F6F4F83
:101220007F4F8091A1009091A200A091A300B09166
:10123000A400481759076A077B0748F30E94A708CC
:1012400080E008958FB58E7F8FBD8FB58D7F8FBD68
:101250008EB5877F8EBD8EB58F7E8EBD8FB5846037
:101260008FBD8FB588608FBD8FB780688FBF89B7FE
:101270009AB784609ABF89BF08951DBC1CBC8EB507
:1012800081608EBD8EB58D7F8EBD8EB58B7F8EBD00
:1012900080E008958EB58E7F8EBD8EB58D7F8EBD1C
:1012A0008EB58B7F8EBD81E008952CB53DB5FC01D8
:1012B0003183208308959DBD8CBD089585B58F77BA
:1012C00085BD85B58F7B85BD85B5877F85BD85B59A
:1012D0008F7E85BD85B58F7D85BD8FB780688FBFBB
:1012E00089B7806489BF80E0089585B5816085BD38
:1012F00085B58D7F85BD85B58B7F85BD80E00895E3
:1013000085B58E7F85BD85B58D7F85BD85B58B7F88
:1013100085BD80E00895BC0180E090E00E943A0A1B
:101320002FE632E143E05DE30E9499090E940B0A37
:1013300008950E94AD090C948E0A0E94870A58F005
:101340000E94800A40F029F45F3F29F00C94770A4C
:1013500051110C94C20A0C947D0A0E949F0A68F3F2
:101360009923B1F3552391F3951B550BBB27AA275E
:1013700062177307840738F09F5F5F4F220F331F98
:10138000441FAA1FA9F335D00E2E3AF0E0E832D060
:1013900091505040E695001CCAF72BD0FE2F29D063
:1013A000660F771F881FBB1F261737074807AB0735
:1013B000B0E809F0BB0B802DBF01FF2793585F4FAA
:1013C0003AF09E3F510578F00C94770A0C94C20ACB
:1013D0005F3FE4F3983ED4F3869577956795B7958C
:1013E000F7959F5FC9F7880F911D9695879597F997
:1013F0000895E1E0660F771F881FBB1F6217730710
:101400008407BA0720F0621B730B840BBA0BEE1F24
:1014100088F7E09508950E94A70A88F09F5798F0F2
:10142000B92F9927B751B0F0E1F0660F771F881FE9
:10143000991F1AF0BA95C9F714C0B13091F00E9403
:10144000C10AB1E008950C94C10A672F782F88274C
:10145000B85F39F0B93FCCF3869577956795B3952A
:10146000D9F73EF490958095709561957F4F8F4F99
:101470009F4F0895E89409C097FB3EF4909580959E
:10148000709561957F4F8F4F9F4F9923A9F0F92F4A
:1014900096E9BB279395F695879577956795B795C8
:1014A000F111F8CFFAF4BB0F11F460FF1BC06F5FAE
:1014B0007F4F8F4F9F4F16C0882311F096E911C0C0
:1014C000772321F09EE8872F762F05C0662371F0E1
:1014D00096E8862F70E060E02AF09A95660F771FF5
:1014E000881FDAF7880F9695879597F9089597F9E9
:1014F0009F6780E870E060E008959FEF80EC0895BA
:1015000000240A94161617061806090608950024E2
:101510000A9412161306140605060895092E03945C
:10152000000C11F4882352F0BB0F40F4BF2B11F4D0
:1015300060FF04C06F5F7F4F8F4F9F4F089557FD2F
:101540009058440F551F59F05F3F71F04795880F31
:1015500097FB991F61F09F3F79F0879508951216C8
:1015600013061406551FF2CF4695F1DF08C0161674
:1015700017061806991FF1CF869571056105089425
:101580000895E894BB2766277727CB0197F908953C
:10159000052E97FB1EF400940E94DF0A57FD07D02A
:1015A0000E94F60A07FC03D04EF40C94DF0A509513
:1015B0004095309521953F4F4F4F5F4F089590953F
:1015C0008095709561957F4F8F4F9F4F0895A29F93
:1015D000B001B39FC001A39F700D811D1124911D07
:1015E000B29F700D811D1124911D0895A1E21A2E44
:1015F000AA1BBB1BFD010DC0AA1FBB1FEE1FFF1FB7
:10160000A217B307E407F50720F0A21BB30BE40B06
:10161000F50B661F771F881F991F1A9469F760954D
:101620007095809590959B01AC01BD01CF01089507
:04163000F894FFCF5C
:10163400536574204465662E20526F74004C4546F1
:101644005420524F544154494F4E00524947485434
:1016540020524F544154494F4E0057414954494E2A
:04166400472E2E00DF
:00000001FF
