:100000000C942A000C94A7020C9447000C9447000F
:100010000C9447000C94FC020C9447000C9447008D
:100020000C9447000C94F2020C9447000C94470087
:100030000C9447000C9447000C9447000C94470024
:100040000C9447000C9447000C9447000C94470014
:100050000C94470011241FBECFE5D8E0DEBFCDBF12
:1000600010E0A0E6B0E0E0E2F6E102C005900D92FB
:10007000AE39B107D9F720E0AEE9B0E001C01D927A
:10008000AF3AB207E1F70E94F4060C940E0B0C9401
:1000900000000E9446030E94DD060E9481080E9423
:1000A00054090E9467030E9421030E94910462E3A5
:1000B00070E080E090E00E94A80880E00E94CF05F8
:1000C00081E00E94CF0582E00E94CF0583E00E947C
:1000D000CF0580E00E941D0681E00E941D0682E09F
:1000E0000E941D0683E00E941D060895CF93DF93B2
:1000F00000D0CDB7DEB719821A8210929E001092FE
:100100009F001092A0001092A10088E893E10E9445
:1001100081096093A2007093A3008093A400909340
:10012000A5000E946B0939C061E080E00E942C05A7
:1001300080E690E00E941905AE014F5F5F4F63E0DB
:1001400083E00E94270364E670E080E090E00E9474
:10015000A808AE014F5F5F4F63E083E00E94270372
:1001600089818823D1F08091A6008F5F8093A600BB
:10017000813041F461E00E942C058DE690E00E9400
:1001800019050AC0823041F461E081E00E942C052B
:100190008BE790E00E941905198240919E005091D2
:1001A0009F006091A0007091A1008091A2009091A9
:1001B000A300A091A400B091A500481759076A07B1
:1001C0007B0708F4B1CF0E947609CE0102960E9407
:1001D000A5038A818133C9F781E00E94480464E164
:1001E00070E080E090E00E94A80862E080E00E9459
:1001F0002C058AE890E00E94190560ED77E080E028
:1002000090E00E94A80881E00E94480464E170E048
:1002100080E090E00E94A8080F900F90DF91CF91AE
:10022000089510929E0010929F001092A0001092CC
:10023000A1001092A2001092A3001092A4001092AC
:10024000A5000E94E30688E893E10E94810960937B
:10025000A2007093A3008093A4009093A50082C095
:10026000AFE9B6E40E94DD0A880F892F881F990B39
:1002700091958093AA000E946B092DC080E00E9496
:10028000B70681E00E94B70682E00E94B70683E0CD
:100290000E94B70661E080E00E942C0560EE74ECDD
:1002A00080E090E00E94E40880E00E94910681E0F6
:1002B0000E94910682E00E94910683E00E949106CE
:1002C00082E990E00E9419056091AA0070E080E048
:1002D00090E00E94440540919E0050919F006091E3
:1002E000A0007091A1008091A2009091A300A09124
:1002F000A400B091A500481759076A077B0708F4C6
:10030000BDCF0E94760980E00E94B70681E00E947E
:10031000B70682E00E94B70683E00E94B70661E05C
:1003200080E00E942C0560E570E580E090E00E948E
:10033000E40880E00E94910681E00E94910682E03C
:100340000E94910683E00E94910682E990E00E945B
:1003500019056091AA0070E080E090E00E944405D9
:100360000E94E3062091A8003091A900203B80E87C
:10037000380708F075CF2FC080E00E94B70681E0F3
:100380000E94B70682E00E94B70683E00E94B7068B
:1003900061E080E00E942C0560E570E580E090E07F
:1003A0000E94E40880E00E94910681E00E9491068C
:1003B00082E00E94910683E00E94910682E990E02B
:1003C0000E9419056091AA0070E080E090E00E9410
:1003D00044050E94E3068091A8009091A900803610
:1003E000964350F610929E0010929F001092A0002B
:1003F0001092A10084EF91E00E9481096093A20015
:100400007093A3008093A4009093A5003DC080E06A
:100410000E94910681E00E94910682E00E9491066E
:1004200083E00E94910661E080E00E942C0582E951
:1004300090E00E9419056091AA0070E080E090E0D1
:100440000E9444050E946B0906C082E00E94B70624
:1004500083E00E94B70640919E0050919F006091FA
:10046000A0007091A1008091A2009091A300A091A2
:10047000A400B091A500481759076A077B0728F325
:100480000E9476090E94E3068091A8009091A9003D
:10049000805494428032924108F4B9CF4FC080E03A
:1004A0000E94570681E00E94570682E00E9457068C
:1004B00083E00E9457062FC080E00E94B70681E0CB
:1004C0000E94B70682E00E94B70683E00E94B7064A
:1004D00061E080E00E942C0560E570E580E090E03E
:1004E0000E94E40880E00E94910681E00E9491064B
:1004F00082E00E94910683E00E94910682E990E0EA
:100500000E9419056091AA0070E080E090E00E94CE
:1005100044050E94E3068091A8009091A9008031D3
:10052000964250F280E00E941D0681E00E941D0666
:1005300082E00E941D0683E00E941D068091A800B3
:100540009091A9008034944208F4A9CF08951F9295
:100550000F920FB60F9211242F933F934F935F93F7
:100560006F937F938F939F93AF93BF93EF93FF937B
:100570008091A7008F5F8093A700813019F40E94BB
:100580005E031FC08230E9F40E9464030E944C03A2
:100590009093A9008093A80080E090E00E946103FE
:1005A0001092A7002091A8003091A900AFE9B6E40D
:1005B0000E94DD0A880F892F881F990B91958093DF
:1005C000AA00FF91EF91BF91AF919F918F917F9181
:1005D0006F915F914F913F912F910F900FBE0F90B0
:1005E0001F9018951F920F920FB60F9211240F9023
:1005F0000FBE0F901F9018951F920F920FB60F927B
:1006000011248F939F93AF93BF9380919E009091FD
:100610009F00A091A000B091A1000196A11DB11D65
:1006200080939E0090939F00A093A000B093A100A0
:10063000BF91AF919F918F910F900FBE0F901F9020
:10064000189540E063E083E00E94FB0608950F9355
:100650001F93CF93DF931F92CDB7DEB78A01198224
:10066000AE014F5F5F4F0E94F907811105C089817C
:10067000F801808381E004C08981F801808380E0F3
:100680000F90DF91CF911F910F9108950E9418094B
:100690000E94750880E00895CF93DF9300D0CDB716
:1006A000DEB71A821982CE0101960E944B09898118
:1006B0009A810F900F90DF91CF9108950E94330996
:1006C00008950E94510908950E944009089541E04B
:1006D00065E083E00E94FB0641E066E083E00E9463
:1006E000FB0641E067E083E00E94FB0640E060E03B
:1006F00083E00E94FB0640E061E083E00E94FB068D
:1007000040E064E083E00E94FB0641E065E083E0B6
:100710000E947A0741E066E083E00E947A0741E0A8
:1007200067E083E00E947A0741E060E083E00E9496
:100730007A0741E061E083E00E947A0741E064E0EB
:1007400083E00E947A0780E00895EF92FF920F9372
:100750001F93CF93DF9300D000D000D0CDB7DEB78A
:100760007C0185E0898386E08A8387E08B831C8215
:1007700081E08D8384E08E8300E079C0033039F41A
:1007800040E060E083E00E947A0710E062C0E1E0B0
:10079000F0E0EC0FFD1FE00FF11D40E0608183E011
:1007A0000E947A07F2CFE4E0F0E0EC0FFD1FE10FCA
:1007B000F11DA701608183E00E94F907F7018081A4
:1007C000811146C0011111C0111103C081E3808362
:1007D00033C0113021F482E3F70180832DC0123041
:1007E00059F583E3F701808327C0013091F411119B
:1007F00004C084E3F70180831FC0113021F485E336
:10080000F701808319C01230B9F486E3F7018083C1
:1008100013C0023089F4111104C087E3F70180830B
:100820000BC0113021F488E3F701808305C012303A
:1008300019F489E3F7018083E1E0F0E0EC0FFD1F9C
:10084000E00FF11D608183E00E94370880E013C053
:100850001F5F133008F4A7CFE1E0F0E0EC0FFD1FBD
:10086000E00FF11D608183E00E9437080F5F0330C5
:1008700008F484CF81E026960FB6F894DEBF0FBE51
:10088000CDBFDF91CF911F910F91FF90EF90089511
:10089000CF93C82F0E94810840E061E080E00E9471
:1008A0007A0740E062E080E00E947A0740E063E07F
:1008B00080E00E947A078BB39C2F907F8F70892BEA
:1008C0008BBB41E063E080E00E947A0761E070E06A
:1008D00080E090E00E94A80840E063E080E00E9491
:1008E0007A0720E1C29FC00111249BB39F70892B1E
:1008F0008BBB41E063E080E00E947A0761E070E03A
:1009000080E090E00E94A80840E063E080E00E9460
:100910007A0765E070E080E090E00E94A808CF913F
:1009200008950E94810841E061E080E00E94FB069A
:1009300041E062E080E00E94FB0641E063E080E08D
:100940000E94FB0641E064E080E00E94FB0641E07B
:1009500065E080E00E94FB0641E066E080E00E94E6
:10096000FB0641E067E080E00E94FB0664E170E086
:1009700080E090E00E94A80883E30E94480482E39C
:100980000E94480488E20E9448048CE00E944804C7
:1009900086E00E94480482E00E94480481E00E94B0
:1009A00048040895CF93C82F41E061E080E00E94A1
:1009B0007A0740E062E080E00E947A0740E063E06E
:1009C00080E00E947A078BB39C2F907F8F70892BD9
:1009D0008BBB41E063E080E00E947A0761E070E059
:1009E00080E090E00E94A80840E063E080E00E9480
:1009F0007A0720E1C29FC00111249BB39F70892B0D
:100A00008BBB41E063E080E00E947A0761E070E028
:100A100080E090E00E94A80840E063E080E00E944F
:100A20007A0765E070E080E090E00E94A808CF912E
:100A300008950F931F93CF938C01C0E003C00E94D1
:100A4000D204CF5FF801EC0FF11D80818111F7CF47
:100A5000CF911F910F910895CF93DF9300D0CDB721
:100A6000DEB790E8998390EC9A83E1E0F0E0EC0F38
:100A7000FD1FE80FF11D8081860F0E9448040F9032
:100A80000F90DF91CF9108951F93CF93DF93CDB750
:100A9000DEB72A970FB6F894DEBF0FBECDBF9923FD
:100AA000DCF590958095709561957F4F8F4F9F4FA6
:100AB00010E013C02AE030E040E050E00E94BE0A9F
:100AC000E1E0F0E0EC0FFD1FE10FF11D605D6083E0
:100AD000622F732F842F952F1F5F16161706180687
:100AE000190644F3E1E0F0E0EC0FFD1FE10FF11D0A
:100AF0008DE280831F5F0DC0E12FF0E0319781E030
:100B000090E08C0F9D1FE80FF91F80810E94D20496
:100B100011501111F1CF39C0611571058105910591
:100B200021F480E30E94D20430C01616170618067E
:100B30001906ACF02AC02AE030E040E050E00E9404
:100B4000BE0AE1E0F0E0EC0FFD1FE10FF11D605D7A
:100B50006083622F732F842F952F1F5F01C010E0D9
:100B6000161617061806190634F30DC0E12FF0E02B
:100B7000319781E090E08C0F9D1FE80FF91F808175
:100B80000E94D20411501111F1CF2A960FB6F89499
:100B9000DEBF0FBECDBFDF91CF911F910895813091
:100BA000B9F028F0823029F18330A1F144C041E04E
:100BB00060E081E00E94FB0641E061E081E00E948C
:100BC000FB0641E062E081E00E94FB0680E00895C0
:100BD00041E063E081E00E94FB0641E064E081E0E7
:100BE0000E94FB0641E065E081E00E94FB0680E098
:100BF000089541E060E082E00E94FB0641E061E090
:100C000082E00E94FB0641E062E082E00E94FB0677
:100C100080E0089541E063E082E00E94FB0641E04D
:100C200064E082E00E94FB0641E065E082E00E9411
:100C3000FB0680E0089581E00895813091F028F06E
:100C40008230D9F0833029F130C041E060E081E0AA
:100C50000E947A0740E061E081E00E947A0780E02C
:100C6000089541E063E081E00E947A0740E064E09B
:100C700081E00E947A0780E0089541E060E082E030
:100C80000E947A0740E061E082E00E947A0780E0FB
:100C9000089541E063E082E00E947A0740E064E06A
:100CA00082E00E947A0780E0089581E00895813013
:100CB00091F028F08230D9F0833029F130C040E043
:100CC00060E081E00E947A0741E061E081E00E94FB
:100CD0007A0780E0089540E063E081E00E947A07AF
:100CE00041E064E081E00E947A0780E0089540E0FE
:100CF00060E082E00E947A0741E061E082E00E94C9
:100D00007A0780E0089540E063E082E00E947A077D
:100D100041E064E082E00E947A0780E0089581E08B
:100D20000895813069F028F0823089F08330B1F085
:100D30001CC040E062E081E00E947A0780E00895F4
:100D400040E065E081E00E947A0780E0089540E09D
:100D500062E082E00E947A0780E0089540E065E06A
:100D600082E00E947A0780E0089581E00895813052
:100D700069F028F0823089F08330B1F01CC041E086
:100D800062E081E00E947A0780E0089541E065E03A
:100D900081E00E947A0780E0089541E062E082E00D
:100DA0000E947A0780E0089541E065E082E00E94B9
:100DB0007A0780E0089581E0089541E060E080E0F6
:100DC0000E94FB06089541E060E080E00E947A07FF
:100DD0006FE070E080E090E00E94E40840E060E0B6
:100DE00080E00E947A0708950E9449000E947600E0
:100DF0000E941101FDCF442319F04130E9F174C084
:100E0000813099F028F08230E9F0833041F16EC0F2
:100E10002AB381E090E002C0880F991F6A95E2F73B
:100E2000809582238ABB80E0089527B381E090E01B
:100E300002C0880F991F6A95E2F78095822387BBCD
:100E400080E0089524B381E090E002C0880F991FEC
:100E50006A95E2F78095822384BB80E0089521B3F0
:100E600081E090E002C0880F991F6A95E2F78095B3
:100E7000822381BB80E00895813091F028F0823098
:100E8000D9F0833029F134C02AB381E090E002C068
:100E9000880F991F6A95E2F7822B8ABB80E008953C
:100EA00027B381E090E002C0880F991F6A95E2F7AE
:100EB000822B87BB80E0089524B381E090E002C0DC
:100EC000880F991F6A95E2F7822B84BB80E0089512
:100ED00021B381E090E002C0880F991F6A95E2F784
:100EE000822B81BB80E0089581E0089581E0089520
:100EF00081E00895442319F04130E9F174C0813054
:100F000099F028F08230E9F0833041F16EC02BB3C4
:100F100081E090E002C0880F991F6A95E2F7809502
:100F200082238BBB80E0089528B381E090E002C06B
:100F3000880F991F6A95E2F78095822388BB80E02D
:100F4000089525B381E090E002C0880F991F6A954B
:100F5000E2F78095822385BB80E0089522B381E08B
:100F600090E002C0880F991F6A95E2F7809582236E
:100F700082BB80E00895813091F028F08230D9F072
:100F8000833029F134C02BB381E090E002C0880F98
:100F9000991F6A95E2F7822B8BBB80E0089528B3F6
:100FA00081E090E002C0880F991F6A95E2F7822BDA
:100FB00088BB80E0089525B381E090E002C0880FEF
:100FC000991F6A95E2F7822B85BB80E0089522B3D2
:100FD00081E090E002C0880F991F6A95E2F7822BAA
:100FE00082BB80E0089581E0089581E0089581E06A
:100FF0000895813099F028F08230E9F0833041F192
:1010000034C089B390E002C0959587956A95E2F760
:10101000817089BBFA01808380E0089586B390E0F7
:1010200002C0959587956A95E2F7817086BBFA01B3
:10103000808380E0089583B390E002C09595879502
:101040006A95E2F7817083BBFA01808380E008959E
:1010500080B390E002C0959587956A95E2F781701C
:1010600080BBFA01808380E0089581E0089581309B
:1010700091F028F08230D9F0833029F130C02BB3C1
:1010800081E090E002C0880F991F6A95E2F78227FD
:101090008BBB80E0089528B381E090E002C0880F08
:1010A000991F6A95E2F7822788BB80E0089525B3EF
:1010B00081E090E002C0880F991F6A95E2F78227CD
:1010C00085BB80E0089522B381E090E002C0880FE4
:1010D000991F6A95E2F7822782BB80E0089581E03C
:1010E00008958FB780688FBF08950E94710885B7F3
:1010F000816085BF85B78D7F85BF8BB780648BBFCF
:10110000089583B78F7783BF83B78F7B83BF83B700
:10111000877F83BF83B78F7E83BF83B78F7D83BF76
:1011200080E0089583B7816083BF83B78D7F83BFDD
:1011300083B78B7F83BF80E0089583B78E7F83BFA3
:1011400083B78D7F83BF83B78B7F83BF80E0089594
:101150000E94300A2FE632E143E05DE30E948F09EE
:101160000E94010A6093AB007093AC008093AD00C5
:101170009093AE0012BE0E94920840E050E0BA0187
:101180000AC008B600FEFDCF88B7816088BF4F5FF8
:101190005F4F6F4F7F4F8091AB009091AC00A0915B
:1011A000AD00B091AE00481759076A077B0748F3B6
:1011B0001092AB001092AC001092AD001092AE00F5
:1011C0000E949D0880E00895DC01CB01689414F82A
:1011D000B695A795979587951694D1F78093AB0010
:1011E0009093AC00A093AD00B093AE0012BE0E94ED
:1011F000920840E050E0BA010AC008B600FEFDCFF8
:1012000088B7816088BF4F5F5F4F6F4F7F4F80917E
:10121000AB009091AC00A091AD00B091AE0048172A
:1012200059076A077B0748F30E949D0880E00895EC
:101230008FB58E7F8FBD8FB58D7F8FBD8EB5877F2C
:101240008EBD8EB58F7E8EBD8FB584608FBD8FB500
:1012500088608FBD8FB780688FBF89B79AB7846069
:101260009ABF89BF08951DBC1CBC8EB581608EBD20
:101270008EB58D7F8EBD8EB58B7F8EBD80E008953F
:101280008EB58E7F8EBD8EB58D7F8EBD8EB58B7FDC
:101290008EBD81E008952CB53DB5FC0131832083DE
:1012A00008959DBD8CBD089585B58F7785BD85B5A5
:1012B0008F7B85BD85B5877F85BD85B58F7E85BDD7
:1012C00085B58F7D85BD8FB780688FBF89B78064F6
:1012D00089BF80E0089585B5816085BD85B58D7F26
:1012E00085BD85B58B7F85BD80E0089585B58E7FF2
:1012F00085BD85B58D7F85BD85B58B7F85BD80E03E
:101300000895BC0180E090E00E94300A2FE632E1AF
:1013100043E05DE30E948F090E94010A08950E9444
:10132000A3090C94840A0E947D0A58F00E94760A50
:1013300040F029F45F3F29F00C946D0A51110C9490
:10134000B80A0C94730A0E94950A68F39923B1F3C2
:10135000552391F3951B550BBB27AA2762177307DB
:10136000840738F09F5F5F4F220F331F441FAA1F6F
:10137000A9F335D00E2E3AF0E0E832D0915050402B
:10138000E695001CCAF72BD0FE2F29D0660F771FD9
:10139000881FBB1F261737074807AB07B0E809F0BF
:1013A000BB0B802DBF01FF2793585F4F3AF09E3F44
:1013B000510578F00C946D0A0C94B80A5F3FE4F381
:1013C000983ED4F3869577956795B795F7959F5F87
:1013D000C9F7880F911D9695879597F90895E1E0D3
:1013E000660F771F881FBB1F621773078407BA0732
:1013F00020F0621B730B840BBA0BEE1F88F7E0958D
:1014000008950E949D0A88F09F5798F0B92F992758
:10141000B751B0F0E1F0660F771F881F991F1AF0DF
:10142000BA95C9F714C0B13091F00E94B70AB1E083
:1014300008950C94B70A672F782F8827B85F39F082
:10144000B93FCCF3869577956795B395D9F73EF478
:1014500090958095709561957F4F8F4F9F4F089520
:10146000E89409C097FB3EF490958095709561953E
:101470007F4F8F4F9F4F9923A9F0F92F96E9BB27F4
:101480009395F695879577956795B795F111F8CF70
:10149000FAF4BB0F11F460FF1BC06F5F7F4F8F4FDB
:1014A0009F4F16C0882311F096E911C0772321F0D1
:1014B0009EE8872F762F05C0662371F096E8862F69
:1014C00070E060E02AF09A95660F771F881FDAF7C0
:1014D000880F9695879597F9089597F99F6780E803
:1014E00070E060E008959FEF80EC089500240A9476
:1014F0001616170618060906089500240A941216EF
:101500001306140605060895092E0394000C11F421
:10151000882352F0BB0F40F4BF2B11F460FF04C0CE
:101520006F5F7F4F8F4F9F4F089557FD9058440F27
:10153000551F59F05F3F71F04795880F97FB991F32
:1015400061F09F3F79F087950895121613061406EF
:10155000551FF2CF4695F1DF08C01616170618067C
:10156000991FF1CF86957105610508940895E89457
:10157000BB2766277727CB0197F90895052E97FBA0
:101580001EF400940E94D50A57FD07D00E94EC0A71
:1015900007FC03D04EF40C94D50A50954095309535
:1015A00021953F4F4F4F5F4F0895909580957095CF
:1015B00061957F4F8F4F9F4F0895A29FB001B39FBA
:1015C000C001A39F700D811D1124911DB29F700D4C
:1015D000811D1124911D0895A1E21A2EAA1BBB1B87
:1015E000FD010DC0AA1FBB1FEE1FFF1FA217B307EF
:1015F000E407F50720F0A21BB30BE40BF50B661F05
:10160000771F881F991F1A9469F7609570958095C8
:1016100090959B01AC01BD01CF010895F894FFCFD7
:10162000536574204465662E20526F74004C454605
:101630005420524F544154494F4E00524947485448
:1016400020524F544154494F4E0057616974696E9E
:0E165000670044697374616E6365203A0000A0
:00000001FF
